:03000000020006F5
:20005F00752131752234752337752445752532752635752738752830752933752A36752BBF
:1F007F0039752C46752D41752E42752F437530447533007534407535007536800200033F
:03000300020FB930
:20009E00AE82AF83D2B48E828F83E508F0C2B422AE82AF837C007D008C028D03C3EA9EEB14
:2000BE0064808FF063F08095F050147AE87B031ABAFF011BEA4B70F70CBC00DC0D80D9226C
:2000DE00AF82C2B5D2B4853382853483EFF0C2B4D2B5D2B4853382853483E508F0C2B42211
:2000FE00AE82AF838F05C2B5D2B4853382853483EDF0C2B4C2B5D2B4853382853483EEF0D5
:20011E00C2B4AF09AE08D2B5D2B5D2B4853382853483EFF0C2B4D2B5D2B4853382853483FB
:20013E00EEF0C2B42285823985833A85083B85093C2285823F85834085084185094222E5C2
:20015E0082FF24F7500122EF60068F067F0080047E017F008E3D22E582FF24FC404EEF2F68
:20017E009001827380068014802280307F487543F0754400754540754601803E7F28754374
:20019E00407544017545F0754600802E7F887543F0754400754540754601801E7FE8754359
:2001BE00407544017545F0754600800E7F487543F07544007545407546018F087582360290
:2001DE0000DEAE82AF83C2B5D2B4853382853483742AF0C2B4D2B5D2B48533828534838F38
:2001FE0005EDF0C2B4D2B5D2B4853382853483EEF0C2B4D2B5D2B4853382853483E50BF04F
:20021E00C2B4D2B5D2B4853382853483E50AF0C2B4C2B5D2B4853382853483742BF0C2B4FA
:20023E00D2B5D2B4853382853483E509F0C2B4D2B5D2B4853382853483E508F0C2B4D2B56C
:20025E00D2B4853382853483E50DF0C2B4D2B5D2B4853382853483E50CF0C2B4227543F088
:20027E00754400754540754601C2B4D2B5C2B5D2B4853382853483E4F0C2B4D2B5D2B485A5
:20029E003382853483E4F0C2B4D2B5D2B4853382853483E4F0C2B4D2B5D2B4853382853438
:2002BE0083E4F0C2B49000C81200AE7508007582011200DE9000321200AE750800758228B8
:2002DE001200DE90000A1200AE7508237582C01200DE7508117582C11200DEC2B5D2B485B7
:2002FE00338285348374C5F0C2B4D2B5D2B4853382853483743DF0C2B4D2B5D2B48533826F
:20031E008534837430F0C2B47508AA7582C71200DE7508887582361200DEC2B5D2B48533CD
:20033E0082853483743AF0C2B4D2B5D2B48533828534837455F0C2B4D2B5D2B4853382854F
:20035E003483E4F0C2B475081B7509009000B11200FE7508077582B71200DE750800758281
:20037E00111200DE9000961200AE7508007582291200DE9001F41200AEAE43AF441EBEFFE7
:20039E00011F8E0A8F0BAE45AF461EBEFF011F8E0C8F0DE4F508F5099000000201E0AE8252
:2003BE00AF838E048F050CBC00010D8C0A8D0BAC47AD480CBC00010D8C0C8D0D854708857A
:2003DE0048098E828F831201E0C2B5D2B4853382853483742CF0C2B4D2B5D2B48533828554
:2003FE003483E54AF0C2B4D2B4853382853483E549F0C2B4228582518583527401C3954D15
:20041E00FCE4954EFD8C538D54854D08854E0990FFFE121039AA82AB83A84DA94EE54D2503
:20043E004BF547E54E354CF548854F4985504A855182855283C003C002C001C0001203BC61
:20045E00E54BC3954DF547E54C954EF548854F4985504A8551828552831203BCE54D2551B5
:20047E00F582E54E3552F583854B47854C48854F4985504A1203BCE551C3954DF582E552EF
:20049E00954EF583854B47854C48854F4985504A1203BCD000D001D002D003E4F557F558E3
:2004BE00755501F556C3E55798E558648089F063F08095F0400122E55420E71618B8FF01F6
:2004DE001974022AFAE43BFBEA2553F553EB3554F554C002C0030557E4B557020558740224
:2004FE002555F555E43556F556E5552553F553E5563554F554AC51AD52E5572CFEE5583D7D
:20051E00FF8E598F5AAA4BAB4CE82AFEE93BFF8E5B8F5C855B47855C48854F4985504A85EA
:20053E005982855A83C005C004C003C002C001C0001203BCD000D001D002D003D004D00511
:20055E00ECC39557FEED9558FF8E5D8F5E855B47855C48854F4985504A855D82855E83C01D
:20057E0005C004C003C002C001C0001203BCD000D001D002D003D004D005EAC398FEEB9907
:20059E00FF8E478F48854F4985504A855982855A83C007C006C005C004C003C002C001C078
:2005BE00001203BCD000D001D002D003D004D005D006D0078E478F48854F4985504A855DE6
:2005DE0082855E83C005C004C003C002C001C0001203BCD000D001D002D003D004D005E8DE
:2005FE002CFEE93DFF8E5D8F5EE5572AFEE5583BFF8E478F48854F4985504A855D82855EAC
:20061E0083C007C006C005C004C003C002C001C0001203BCD000D001D002D003D004D0055D
:20063E00D006D007ECC398FCED99FD8E478F48854F4985504A8C828D83C005C004C003C017
:20065E0002C001C0001203BCD000D001D002D003EAC39557FAEB9558FB8A478B48854F49BB
:20067E0085504A855D82855E83C003C002C001C0001203BCD000D001D002D003D004D005AD
:20069E008A478B48854F4985504A8C828D83C003C002C001C0001203BCD000D001D002D024
:2006BE0003D003D0020204C3AF828F057E00ED2DFBEE33FCA943AA44ED29F561EE3AF56271
:2006DE00A845AA46ED28F563EE3AF56479007A00C3E99561EA64808562F063F08095F0504F
:2006FE005778007E00C3E89563EE64808564F063F08095F0503A89828A83884B8E4C8F4DBE
:20071E00754E00855F4F856050C007C006C004C003C002C001C000120413D000D001D0029D
:20073E00D003D004D006D007EB28F8EC3EFE80B5EB29F9EC3AFA809822AE82AF838E048FF5
:20075E0005C3EC94F0ED9400500DAC65AD66C3EC9440ED9401400122E5672EFCE5683FFDDA
:20077E001CBCFF011DC3EC94F0ED9400400A74F0C39EF567E49FF568E5692565FCE56A350F
:20079E0066FD1CBCFF011DC3EC9440ED9401400D7440C39565F56974019566F56AE5672E79
:2007BE00FCE5683FFD1CBCFF011D8C0A8D0BE5692565FCE56A3566FD1CBCFF011D8C0C8D9E
:2007DE000D8565088566098E828F831201E0C2B5D2B4853382853483742CF0C2B4D2B5AF44
:2007FE006CAD69AE6AED4E6030AB67AC68EB4C6021D2B4853382853483EFF0C2B4D2B4853C
:20081E003382853483E56BFAF0C2B41BBBFF011C80DB1DBDFF011E80CC22AE82AF838F0570
:20083E00E4F508F509750AEFF50B750C3F750D01900000C006C0051201E0D005D006C2B5DA
:20085E00D2B4853382853483742CF0C2B4D2B5D2B4853382853483EDF0C2B4D2B4853382E2
:20087E00853483EEF0C2B47CB07F048C028F031CBCFF011FEA4B60667B10D2B48533828539
:20089E003483EDF0C2B4D2B4853382853483EEF0C2B4D2B4853382853483EDF0C2B4D2B40B
:2008BE00853382853483EEF0C2B4D2B4853382853483EDF0C2B4D2B4853382853483EEF027
:2008DE00C2B4D2B4853382853483EDF0C2B4D2B4853382853483EEF0C2B4DB9E808D7F3FA1
:2008FE008F041FEC601AD2B4853382853483EDF0C2B4D2B4853382853483EEF0C2B480E0C3
:20091E0022AE82AF83C3EE94F0EF648094805067AC6DAD6EC3EC9440ED648094815058AA73
:20093E00747B008A088B09900006C007C006C005C004C003C002121039A882A983D002D000
:20095E0003D004D005D006D007E82EF8E93FF918B8FF0119E920E71FEBC40354F8CAC4036A
:20097E00CA6ACA54F8CA6AFBEA2CFAEB3DFB1ABAFF011BEB30E701227401B5740474018002
:20099E0001E4FBFAE570B57208E571B57303D38001C392007575007405B5750575760080B4
:2009BE0047C002856F08750900900005C007C006C005C004C003121039A982AA83D003D0D2
:2009DE0004D005D006D007E92431F578EA3411F579E575F93395E0FAE92578F582EA3579A1
:2009FE00F583E493F576D002C2D58574F0E57530E704B2D5F404A430D50AF42401C5F0F4C4
:200A1E003400C5F02EF578EF35F0F57985787A85797B757700E57620E003020AE0EB6046FB
:200A3E00E575F83395E0F9E82EF8E93FF988828983E577F83395E0F9E82CF8E93DF9884771
:200A5E00894885704985714AC007C006C005C004C003C0021203BCD002D003D004D005D09F
:200A7E0006D007020B87857A82857B83C2D58574F0E57730E704B2D5F404A430D50AF424A2
:200A9E0001C5F0F43400C5F02CF8ED35F0F988658966A8747900886789688869896A85704C
:200ABE006B85716CC007C006C005C004C003C002120757D002D003D004D005D006D0070243
:200ADE000B87300003020B87EA6045E575F83395E0F9E82EF8E93FF988828983E577F83351
:200AFE0095E0F9E82CF8E93DF98847894885724985734AC007C006C005C004C003C0021270
:200B1E0003BCD002D003D004D005D006D0078059857882857983C2D58574F0E57730E7042D
:200B3E00B2D5F404A430D50AF42401C5F0F43400C5F02CF8ED35F0F988658966A87479001A
:200B5E00886789688869896A85726B85736CC007C006C005C004C003C002120757D002D040
:200B7E0003D004D005D006D007E576C313F5760577C3E577648094885003020A330575C3F8
:200B9E00E5756480948650030209B522AF82BF0A26AD3DE4C40354F8CDC403CD6DCD54F8C2
:200BBE00CD6DFEAB3BAC3CED2BFBEE3CFC8B3B8C3CE4F539F53A22BF0D0122853B6D853C0A
:200BDE006E8F6F853F70854071854172854273853D74853982853A8312091F853D08750975
:200BFE0000900006121039AE82AF83AC39AD3AEE2CFCEF3DFD8C398D3A22AD82AE83AFF0CC
:200C1E007B007C00EB2DF8EC3EF98F02888289838AF01210A3FA60208A82C007C006C005CE
:200C3E00C004C003120BAAD003D004D005D006D0070BBB00CF0C80CC22AF827B007C007D6B
:200C5E00007E00C2B48B828C83EFF0D2B40BBB00090CBC00050DBD00010EC3EB94FFEC94CB
:200C7E00FFED9400EE940040DA227F00BF080E7F0075820AC007120BAAD007800AC007127C
:200C9E000CA8120BAAD0070F80E27590F07590F08590315331F074F0B531F29000141200DD
:200CBE00AEE59054F0F53174F0B5310280ED9000011200AEE59054F0F53174F0B5310280D4
:200CDE00DA7590FEE59054F0F53174F0B531028005753200803D7590FDE59054F0F53174B0
:200CFE00F0B53102800575320180287590FBE59054F0F53174F0B53102800575320280133D
:200D1E007590F7E59054F0F53174F0B5310280B175320374E0B5310CE532253225E02421B5
:200D3E00F987822274D0B5310DE532253225E0242104F987822274B0B5310EE532253225AF
:200D5E00E024212402F9878222E532253225E024212403F9878222AF827D007E00BF010017
:200D7E00405F8F037C0075080A8C098B828C83C006C005C004C0031210BFA982AA83D00352
:200D9E00D00475080A7509008B828C83C002C0011210F5AB82D001D002D005D0068B078D0C
:200DBE00088E0990000AC007C002C001121039AB82AC83D001D002D007E92BFDEA3CFE80AC
:200DDE009C8D828E8322120D75AE82AF838E048F05C3EC9401ED9400404275080A750900AF
:200DFE008C828D83C005C004121056AA82D004D00575080A7509008C828D83C002121010CA
:200E1E00AC82AD83D0028C068D0774302AF582C007C006120BAAD006D00780B175820A02E4
:200E3E000BAAAF82757C00757D007E00BF0100405A8F047D00740F5CFA7508108D098C82D9
:200E5E008D83C006C0021210F5AC82D002D0068C07EA24F6400CEE247CF98A0574302DF72E
:200E7E008026EE247CF97D0075080A8D098A828D83C007C006C0011210BFAC82AD83D00113
:200E9E00D006D00774412CF70E80A1857D82120BAA857C82020BAAE582FF24C692014008D0
:200EBE008F06EE24D0FE800474C92FFE8E822290F8001208389000141200AE9007E01208B0
:200EDE00389000141200AE758200120175900000120838755F007560F87582141206C690DD
:200EFE0000641200AE90000012083875820512015DE4F508F5099007FF12015090162C7543
:200F1E00F080120C1875820312015D90163575F080120C1890164075F080120C189000C854
:200F3E001200AE900000120838758201120175E4F508F50990000012014390164B75F080D6
:200F5E00120C189001F41200AE900000120838758202120175E4F508F509900000120143D0
:200F7E0090165675F080120C189001F41200AE900000120838758203120175E4F508F509B4
:200F9E009000001201439000C81200AE90166175F080120C189000C80200AEC2B5C2B475A9
:200FBE00083F85358285368312009EC2B4D2B512027B75080685358285368312009E120E49
:200FDE00CD75820212017590D6BA1208387508BA7509D6900000120150E4F508F509900046
:120FFE000012014390166C75F080120C18120C8880FB3D
:2011310000000000003E5B4F5B3E3E6B4F6B3E1C3E7C3E1C183C7E3C181C577D571C1C5E49
:201151007F5E1C00183C1800FFE7C3E7FF0018241800FFE7DBE7FF30483A060E26297929D8
:2011710026407F050507407F05253F5A3CE73C5A7F3E1C1C08081C1C3E7F14227F22145FE9
:201191005F005F5F06097F017F006689956A606060606094A2FFA29408047E040810207E96
:2011B100201008082A1C08081C2A08081E101010100C1E0C1E0C30383E3830060E3E0E0600
:2011D100000000000000005F00000007000700147F147F14242A7F2A1223130864623649CB
:2011F1005620500008070300001C2241000041221C002A1C7F1C2A08083E0808008070307F
:20121100000808080808000060600020100804023E5149453E00427F400072494949462187
:2012310041494D331814127F1027454545393C4A49493141211109073649494936464949AC
:20125100291E000014000000403400000008142241141414141400412214080201590906E1
:201271003E415D594E7C1211127C7F494949363E414141227F4141413E7F494949417F0957
:201291000909013E414151737F0808087F00417F41002040413F017F081422417F40404071
:2012B100407F021C027F7F0408107F3E4141413E7F090909063E4151215E7F091929462641
:2012D1004949493203017F01033F4040403F1F2040201F3F4038403F6314081463030478C2
:2012F10004036159494D43007F4141410204081020004141417F0402010204404040404034
:20131100000307080020545478407F284444383844444428384444287F38545454180008DC
:201331007E090218A4A49C787F0804047800447D40002040403D007F1028440000417F40BF
:20135100007C047804787C080404783844444438FC1824241818242418FC7C080404084804
:201371005454542404043F44243C4040207C1C2040201C3C4030403C44281028444C909001
:20139100907C4464544C4400083641000000770000004136080002010204023C2623263C3D
:2013B1001EA1A161123A4040207A3854545559215555794122545478422155547840205468
:2013D1005579400C1E5272123955555559395454545939555454580000457C410002457D7B
:2013F100420001457C407D1211127DF0282528F07C545545002054547C547C0A097F493289
:20141100494949323A4444443A324A4848303A4141217A3A42402078009DA0A07D3D42426C
:20143100423D3D4040403D3C24FF2424487E4943662B2FFC2F2BFF0929F620C0887E0903BA
:2014510020545479410000447D413048484A32384040227A007A0A0A727D0D19317D2629C7
:20147100292F28262929292630484D4020380808080808080808382F10C8ACBA2F10283437
:20149100FA00007B000008142A142222142A1408AA005500AAAA55AA55AA000000FF00106E
:2014B1001010FF00141414FF001010FF00FF1010F010F0141414FC001414F700FF0000FF3E
:2014D10000FF1414F404FC141417101F10101F101F1414141F00101010F0000000001F105A
:2014F1001010101F10101010F010000000FF101010101010101010FF10000000FF1400009B
:20151100FF00FF00001F10170000FC04F414141710171414F404F40000FF00F714141414C2
:20153100141414F700F7141414171410101F101F141414F4141010F010F000001F101F00F9
:2015510000001F14000000FC140000F010F01010FF10FF141414FF141010101F000000007B
:20157100F010FFFFFFFFFFF0F0F0F0F0FFFFFF0000000000FFFF0F0F0F0F0F38444438442D
:20159100FC4A4A4A347E02020606027E027E0263554941633844443C04407E201E200602D3
:2015B1007E020299A5E7A5991C2A492A1C4C7201724C304A4D4D303048784830BC625A4679
:2015D1003D3E494949007E0101017E2A2A2A2A2A44445F444440514A444040444A514000A6
:2015F10000FF0103E080FF000008086B6B083612362436060F090F0600001818000000103F
:2016110010003040FF0101001F01011E00191D1712003C3C3C3C000000000057656C636FB0
:201631006D650A004543454E2D343333300A00526F746174696F6E203000526F746174698E
:201651006F6E203100526F746174696F6E203200526F746174696F6E203300467265652064
:08167100547970653A200A006B
:201010007A10E4FBFCE58225E0F582E58333F583EB33FBEC33FCEB9508F5F0EC95094006F4
:09103000FCABF0438201DADD2281
:06003500E478FFF6D8FD9F
:200013007900E94400601B7A00901679780175A000E493F2A308B8000205A0D9F4DAF27504
:02003300A0FF2C
:1D103900E5828508F0A4C582C0F08509F0A4D0F025F0C5838508F0A42583F5832279
:20105600E508450960467A01E50825E0F508E509334012F509E5829508E583950940030A67
:2010760080E6C3E50913F509E50813F508C3E5829508F5F0E58395094005F58385F082C30C
:0D109600E50913F509E50813F508DAE12274
:20003B007800E84400600A790175A000E4F309D8FC7800E84400600C7900900001E4F0A3C3
:04005B00D8FCD9FAFA
:0D00060075817D12112DE58260030200035B
:1C10A30020F71430F6148883A88220F507E6A88375830022E280F7E49322E0225C
:2010BF00C2D5E58330E70DD2D5E4C39582F582E49583F583E50930E70BE4C39508F508E469
:1610DF009509F50912105630D50BE4C39582F582E49583F583220C
:2010F500C2D5E58330E70DD2D5E4C39582F582E49583F583E50930E70DB2D5E4C39508F596
:1811150008E49509F50912101030D50BE4C39582F582E49583F583222D
:04112D0075820022A5
:00000001FF
