:03000000020006F5
:20005F00752131752234752337752445752532752635752738752830752933752A36752BBF
:1F007F0039752C46752D41752E42752F437530447533007534407535007536800200033F
:03000300020FA247
:20009E00AE82AF83D2B48E828F83E508F0C2B422AE82AF837C007D008C028D03C3EA9EEB14
:2000BE0064808FF063F08095F050147AE87B031ABAFF011BEA4B70F70CBC00DC0D80D9226C
:2000DE00AF82C2B5D2B4853382853483EFF0C2B4D2B5D2B4853382853483E508F0C2B42211
:2000FE00AE82AF838F05C2B5D2B4853382853483EDF0C2B4C2B5D2B4853382853483EEF0D5
:20011E00C2B4AF09AE08D2B5D2B5D2B4853382853483EFF0C2B4D2B5D2B4853382853483FB
:20013E00EEF0C2B42285823985833A85083B85093C2285823F85834085084185094222E5C2
:20015E0082FF24F7500122EF60068F067F0080047E017F008E3D22E582FF24FC404EEF2F68
:20017E009001827380068014802280307F487543F07544007545F0754600803E7F287543C5
:20019E00F07544007545F0754600802E7F887543F07544007545F0754600801E7FE87543FB
:2001BE00F07544007545F0754600800E7F487543F07544007545F07546008F087582360232
:2001DE0000DEAE82AF83C2B5D2B4853382853483742AF0C2B4D2B5D2B48533828534838F38
:2001FE0005EDF0C2B4D2B5D2B4853382853483EEF0C2B4D2B5D2B4853382853483E50BF04F
:20021E00C2B4D2B5D2B4853382853483E50AF0C2B4C2B5D2B4853382853483742BF0C2B4FA
:20023E00D2B5D2B4853382853483E509F0C2B4D2B5D2B4853382853483E508F0C2B4D2B56C
:20025E00D2B4853382853483E50DF0C2B4D2B5D2B4853382853483E50CF0C2B4227543F088
:20027E007544007545F0754600C2B4D2B5C2B5D2B4853382853483E4F0C2B4D2B5D2B485F6
:20029E003382853483E4F0C2B4D2B5D2B4853382853483E4F0C2B4D2B5D2B4853382853438
:2002BE0083E4F0C2B49000C81200AE7508007582011200DE9000321200AE750800758228B8
:2002DE001200DE90000A1200AE7508237582C01200DE7508117582C11200DEC2B5D2B485B7
:2002FE00338285348374C5F0C2B4D2B5D2B4853382853483743DF0C2B4D2B5D2B48533826F
:20031E008534837430F0C2B47508AA7582C71200DE7508887582361200DEC2B5D2B48533CD
:20033E0082853483743AF0C2B4D2B5D2B48533828534837455F0C2B4D2B5D2B4853382854F
:20035E003483E4F0C2B475081B7509009000B11200FE7508077582B71200DE750800758281
:20037E00111200DE9000961200AE7508007582291200DE9001F41200AEAE43AF441EBEFFE7
:20039E00011F8E0A8F0BAE45AF461EBEFF011F8E0C8F0DE4F508F5099000000201E0AE8252
:2003BE00AF838E048F050CBC00010D8C0A8D0BAC47AD480CBC00010D8C0C8D0D854708857A
:2003DE0048098E828F831201E0C2B5D2B4853382853483742CF0C2B4D2B5D2B48533828554
:2003FE003483E54AF0C2B4D2B4853382853483E549F0C2B4228582518583527401C3954D15
:20041E00FCE4954EFD8C538D54854D08854E0990FFFE121022AA82AB83A84DA94EE54D251A
:20043E004BF547E54E354CF548854F4985504A855182855283C003C002C001C0001203BC61
:20045E00E54BC3954DF547E54C954EF548854F4985504A8551828552831203BCE54D2551B5
:20047E00F582E54E3552F583854B47854C48854F4985504A1203BCE551C3954DF582E552EF
:20049E00954EF583854B47854C48854F4985504A1203BCD000D001D002D003E4F557F558E3
:2004BE00755501F556C3E55798E558648089F063F08095F0400122E55420E71618B8FF01F6
:2004DE001974022AFAE43BFBEA2553F553EB3554F554C002C0030557E4B557020558740224
:2004FE002555F555E43556F556E5552553F553E5563554F554AC51AD52E5572CFEE5583D7D
:20051E00FF8E598F5AAA4BAB4CE82AFEE93BFF8E5B8F5C855B47855C48854F4985504A85EA
:20053E005982855A83C005C004C003C002C001C0001203BCD000D001D002D003D004D00511
:20055E00ECC39557FEED9558FF8E5D8F5E855B47855C48854F4985504A855D82855E83C01D
:20057E0005C004C003C002C001C0001203BCD000D001D002D003D004D005EAC398FEEB9907
:20059E00FF8E478F48854F4985504A855982855A83C007C006C005C004C003C002C001C078
:2005BE00001203BCD000D001D002D003D004D005D006D0078E478F48854F4985504A855DE6
:2005DE0082855E83C005C004C003C002C001C0001203BCD000D001D002D003D004D005E8DE
:2005FE002CFEE93DFF8E5D8F5EE5572AFEE5583BFF8E478F48854F4985504A855D82855EAC
:20061E0083C007C006C005C004C003C002C001C0001203BCD000D001D002D003D004D0055D
:20063E00D006D007ECC398FCED99FD8E478F48854F4985504A8C828D83C005C004C003C017
:20065E0002C001C0001203BCD000D001D002D003EAC39557FAEB9558FB8A478B48854F49BB
:20067E0085504A855D82855E83C003C002C001C0001203BCD000D001D002D003D004D005AD
:20069E008A478B48854F4985504A8C828D83C003C002C001C0001203BCD000D001D002D024
:2006BE0003D003D0020204C3AF828F057E00ED2DFBEE33FCA943AA44ED29F561EE3AF56271
:2006DE00A845AA46ED28F563EE3AF56479007A00C3E99561EA64808562F063F08095F0504F
:2006FE005778007E00C3E89563EE64808564F063F08095F0503A89828A83884B8E4C8F4DBE
:20071E00754E00855F4F856050C007C006C004C003C002C001C000120413D000D001D0029D
:20073E00D003D004D006D007EB28F8EC3EFE80B5EB29F9EC3AFA809822AE82AF838E048FF5
:20075E0005C3EC94F0ED9400500DAC65AD66C3EC94F0ED9400400122E5672EFCE5683FFD2B
:20077E001CBCFF011DC3EC94F0ED9400400A74F0C39EF567E49FF568E5692565FCE56A350F
:20079E0066FD1CBCFF011DC3EC94F0ED9400400C74F0C39565F569E49566F56AE5672EFCB0
:2007BE00E5683FFD1CBCFF011D8C0A8D0BE5692565FCE56A3566FD1CBCFF011D8C0C8D0D8D
:2007DE008565088566098E828F831201E0C2B5D2B4853382853483742CF0C2B4D2B5AF6CE5
:2007FE00AD69AE6AED4E6030AB67AC68EB4C6021D2B4853382853483EFF0C2B4D2B4853375
:20081E0082853483E56BFAF0C2B41BBBFF011C80DB1DBDFF011E80CC22AE82AF838F05E4BF
:20083E00F508F509750AEFF50B750CEFF50D900000C006C0051201E0D005D006C2B5D2B409
:20085E00853382853483742CF0C2B4D2B5D2B4853382853483EDF0C2B4D2B48533828534AF
:20087E0083EEF0C2B47C847F038C028F031CBCFF011FEA4B60667B10D2B485338285348368
:20089E00EDF0C2B4D2B4853382853483EEF0C2B4D2B4853382853483EDF0C2B4D2B485330A
:2008BE0082853483EEF0C2B4D2B4853382853483EDF0C2B4D2B4853382853483EEF0C2B469
:2008DE00D2B4853382853483EDF0C2B4D2B4853382853483EEF0C2B4DB9E808D7F3F8F0484
:2008FE001FEC601AD2B4853382853483EDF0C2B4D2B4853382853483EEF0C2B480E022AE86
:20091E0082AF83C3EE94F0EF648094805067AC6DAD6EC3EC94F0ED648094805058AA747BA5
:20093E00008A088B09900006C007C006C005C004C003C002121022A882A983D002D003D033
:20095E0004D005D006D007E82EF8E93FF918B8FF0119E920E71FEBC40354F8CAC403CA6A09
:20097E00CA54F8CA6AFBEA2CFAEB3DFB1ABAFF011BEB30E701227401B5740474018001E451
:20099E00FBFAE570B57208E571B57303D38001C39200757500C3E5756480948640012274BA
:2009BE0005B575057576008047C002856F08750900900005C007C006C005C004C003121067
:2009DE0022A982AA83D003D004D005D006D007E9241AF578EA3411F579E575F93395E0FA30
:2009FE00E92578F582EA3579F583E493F576D002C2D58574F0E57530E704B2D5F404A430D0
:200A1E00D50AF42401C5F0F43400C5F02EF578EF35F0F57985787A85797B757700C3E57716
:200A3E00648094884003020BA6E57620E003020AF4EB6046E575F83395E0F9E82EF8E93F8A
:200A5E00F988828983E577F83395E0F9E82CF8E93DF98847894885704985714AC007C0069E
:200A7E00C005C004C003C0021203BCD002D003D004D005D006D007020B9B857A82857B83D2
:200A9E00C2D58574F0E57730E704B2D5F404A430D50AF42401C5F0F43400C5F02CF8ED351E
:200ABE00F0F988658966A8747900886789688869896A85706B85716CC007C006C005C00422
:200ADE00C003C002120757D002D003D004D005D006D007020B9B300003020B9BEA6045E511
:200AFE0075F83395E0F9E82EF8E93FF988828983E577F83395E0F9E82CF8E93DF98847890D
:200B1E004885724985734AC007C006C005C004C003C0021203BCD002D003D004D005D0065D
:200B3E00D0078059857882857983C2D58574F0E57730E704B2D5F404A430D50AF42401C5E0
:200B5E00F0F43400C5F02CF8ED35F0F988658966A8747900886789688869896A85726B855F
:200B7E00736CC007C006C005C004C003C002120757D002D003D004D005D006D007E576C354
:200B9E0013F5760577020A3B05750209B3AF82BF0A26AD3DE4C40354F8CDC403CD6DCD54CE
:200BBE00F8CD6DFEAB3BAC3CED2BFBEE3CFC8B3B8C3CE4F539F53A22BF0D0122853B6D854E
:200BDE003C6E8F6F853F70854071854172854273853D74853982853A8312091D853D087544
:200BFE000900900006121022AE82AF83AC39AD3AEE2CFCEF3DFD8C398D3A22AD82AE83AFCA
:200C1E00F07B007C00EB2DF8EC3EF98F02888289838AF012108CFA60208A82C007C006C0FA
:200C3E0005C004C003120BABD003D004D005D006D0070BBB00CF0C80CC22AF827B007C00E2
:200C5E007D007E00C2B48B828C83EFF0D2B40BBB00090CBC00050DBD00010EC3EB94FFECE2
:200C7E0094FFED9400EE940040DA227F00BF080E7F0075820AC007120BABD007800AC007F9
:200C9E00120CA9120BABD0070F80E27590F07590F08590315331F074F0B531F290001412C9
:200CBE0000AEE59054F0F53174F0B5310280ED9000011200AEE59054F0F53174F0B5310254
:200CDE0080DA7590FEE59054F0F53174F0B531028005753200803D7590FDE59054F0F531A4
:200CFE0074F0B53102800575320180287590FBE59054F0F53174F0B53102800575320280DC
:200D1E00137590F7E59054F0F53174F0B5310280B175320374E0B5310CE532253225E024C3
:200D3E0021F987822274D0B5310DE532253225E0242104F987822274B0B5310EE5322532B3
:200D5E0025E024212402F9878222E532253225E024212403F9878222AF827D007E00BF01F2
:200D7E0000405F8F037C0075080A8C098B828C83C006C005C004C0031210A8A982AA83D06C
:200D9E0003D00475080A7509008B828C83C002C0011210DEAB82D001D002D005D0068B07AD
:200DBE008D088E0990000AC007C002C001121022AB82AC83D001D002D007E92BFDEA3CFEB6
:200DDE00809C8D828E8322120D76AE82AF838E048F05C3EC9401ED9400404275080A75092E
:200DFE00008C828D83C005C00412103FAA82D004D00575080A7509008C828D83C002120FF2
:200E1E00F9AC82AD83D0028C068D0774302AF582C007C006120BABD006D00780B175820AEC
:200E3E00020BABAF82757C00757D007E00BF0100405A8F047D00740F5CFA7508108D098C58
:200E5E00828D83C006C0021210DEAC82D002D0068C07EA24F6400CEE247CF98A0574302DBA
:200E7E00F78026EE247CF97D0075080A8D098A828D83C007C006C0011210A8AC82AD83D034
:200E9E0001D006D00774412CF70E80A1857D82120BAB857C82020BAB90F80012083790008F
:200EBE00141200AE9007E01208379000141200AE758200120175900000120837755F00756B
:200EDE0060F87582141206C69000641200AE90000012083775820512015DE4F508F5099043
:200EFE0007FF12015090161575F080120C1975820312015D90161E75F080120C199016297B
:200F1E0075F080120C199000C81200AE900000120837758201120175E4F508F509900000AF
:200F3E0012014390163475F080120C199001F41200AE900000120837758202120175E4F5C7
:200F5E0008F50990000012014390163F75F080120C199001F41200AE900000120837758269
:200F7E0003120175E4F508F5099000001201439000C81200AE90164A75F080120C1990004F
:200F9E00C80200AEC2B5C2B47508C085358285368312009EC2B4D2B512027B7508F98535AB
:200FBE008285368312009E120EB675820212017590D6BA1208377508BA7509D690000012AE
:1B0FDE000150E4F508F50990000012014390165575F080120C19120C8980FBA9
:20111A0000000000003E5B4F5B3E3E6B4F6B3E1C3E7C3E1C183C7E3C181C577D571C1C5E60
:20113A007F5E1C00183C1800FFE7C3E7FF0018241800FFE7DBE7FF30483A060E26297929EF
:20115A0026407F050507407F05253F5A3CE73C5A7F3E1C1C08081C1C3E7F14227F22145F00
:20117A005F005F5F06097F017F006689956A606060606094A2FFA29408047E040810207EAD
:20119A00201008082A1C08081C2A08081E101010100C1E0C1E0C30383E3830060E3E0E0617
:2011BA00000000000000005F00000007000700147F147F14242A7F2A1223130864623649E2
:2011DA005620500008070300001C2241000041221C002A1C7F1C2A08083E08080080703096
:2011FA00000808080808000060600020100804023E5149453E00427F40007249494946219F
:20121A0041494D331814127F1027454545393C4A49493141211109073649494936464949C3
:20123A00291E000014000000403400000008142241141414141400412214080201590906F8
:20125A003E415D594E7C1211127C7F494949363E414141227F4141413E7F494949417F096E
:20127A000909013E414151737F0808087F00417F41002040413F017F081422417F40404088
:20129A00407F021C027F7F0408107F3E4141413E7F090909063E4151215E7F091929462658
:2012BA004949493203017F01033F4040403F1F2040201F3F4038403F6314081463030478D9
:2012DA0004036159494D43007F4141410204081020004141417F040201020440404040404B
:2012FA00000307080020545478407F284444383844444428384444287F38545454180008F4
:20131A007E090218A4A49C787F0804047800447D40002040403D007F1028440000417F40D6
:20133A00007C047804787C080404783844444438FC1824241818242418FC7C08040408481B
:20135A005454542404043F44243C4040207C1C2040201C3C4030403C44281028444C909018
:20137A00907C4464544C4400083641000000770000004136080002010204023C2623263C54
:20139A001EA1A161123A4040207A385454555921555579412254547842215554784020547F
:2013BA005579400C1E5272123955555559395454545939555454580000457C410002457D92
:2013DA00420001457C407D1211127DF0282528F07C545545002054547C547C0A097F4932A0
:2013FA00494949323A4444443A324A4848303A4141217A3A42402078009DA0A07D3D424284
:20141A00423D3D4040403D3C24FF2424487E4943662B2FFC2F2BFF0929F620C0887E0903D1
:20143A0020545479410000447D413048484A32384040227A007A0A0A727D0D19317D2629DE
:20145A00292F28262929292630484D4020380808080808080808382F10C8ACBA2F1028344E
:20147A00FA00007B000008142A142222142A1408AA005500AAAA55AA55AA000000FF001085
:20149A001010FF00141414FF001010FF00FF1010F010F0141414FC001414F700FF0000FF55
:2014BA0000FF1414F404FC141417101F10101F101F1414141F00101010F0000000001F1071
:2014DA001010101F10101010F010000000FF101010101010101010FF10000000FF140000B2
:2014FA00FF00FF00001F10170000FC04F414141710171414F404F40000FF00F714141414DA
:20151A00141414F700F7141414171410101F101F141414F4141010F010F000001F101F0010
:20153A0000001F14000000FC140000F010F01010FF10FF141414FF141010101F0000000092
:20155A00F010FFFFFFFFFFF0F0F0F0F0FFFFFF0000000000FFFF0F0F0F0F0F384444384444
:20157A00FC4A4A4A347E02020606027E027E0263554941633844443C04407E201E200602EA
:20159A007E020299A5E7A5991C2A492A1C4C7201724C304A4D4D303048784830BC625A4690
:2015BA003D3E494949007E0101017E2A2A2A2A2A44445F444440514A444040444A514000BD
:2015DA0000FF0103E080FF000008086B6B083612362436060F090F06000018180000001056
:2015FA0010003040FF0101001F01011E00191D1712003C3C3C3C000000000057656C636FC8
:20161A006D650A004543454E2D343333300A00526F746174696F6E203000526F74617469A5
:20163A006F6E203100526F746174696F6E203200526F746174696F6E20330046726565207B
:08165A00547970653A200A0082
:200FF9007A10E4FBFCE58225E0F582E58333F583EB33FBEC33FCEB9508F5F0EC950940060C
:09101900FCABF0438201DADD2298
:06003500E478FFF6D8FD9F
:200013007900E94400601B7A00901662780175A000E493F2A308B8000205A0D9F4DAF2751B
:02003300A0FF2C
:1D102200E5828508F0A4C582C0F08509F0A4D0F025F0C5838508F0A42583F5832290
:20103F00E508450960467A01E50825E0F508E509334012F509E5829508E583950940030A7E
:20105F0080E6C3E50913F509E50813F508C3E5829508F5F0E58395094005F58385F082C323
:0D107F00E50913F509E50813F508DAE1228B
:20003B007800E84400600A790175A000E4F309D8FC7800E84400600C7900900001E4F0A3C3
:04005B00D8FCD9FAFA
:0D00060075817D121116E582600302000372
:1C108C0020F71430F6148883A88220F507E6A88375830022E280F7E49322E02273
:2010A800C2D5E58330E70DD2D5E4C39582F582E49583F583E50930E70BE4C39508F508E480
:1610C8009509F50912103F30D50BE4C39582F582E49583F583223A
:2010DE00C2D5E58330E70DD2D5E4C39582F582E49583F583E50930E70DB2D5E4C39508F5AD
:1810FE0008E49509F509120FF930D50BE4C39582F582E49583F583225D
:0411160075820022BC
:00000001FF
