:03000000020006F5
:1A005F007523007524407525007526807527007528C0E4F529F52A02000342
:030003000216984A
:20007900AE82AF83D2B48E828F83E508F0C2B422AE82AF837C007D008C028D03C3EA9EEB39
:2000990064808FF063F08095F050147AE87B031ABAFF011BEA4B70F70CBC00DC0D80D92291
:2000B900AF82C2B5D2B4852382852483EFF0C2B4D2B5D2B4852382852483E508F0C2B42276
:2000D900AE82AF838F05C2B5D2B4852382852483EDF0C2B4C2B5D2B4852382852483EEF03A
:2000F900C2B4AF09AE08D2B5D2B5D2B4852382852483EFF0C2B4D2B5D2B485238285248361
:20011900EEF0C2B42285822D85832E85082F8509302285823385833485083585093622E547
:2001390082FF24F7500122EF60068F067F0080047E017F008E3122E582FF24FC404EEF2F99
:2001590090015D7380068014802280307F487537F0753800753940753A01803E7F287537FA
:20017900407538017539F0753A00802E7F887537F0753800753940753A01801E7FE87537DE
:20019900407538017539F0753A00800E7F487537F0753800753940753A018F087582360209
:2001B90000B9AE82AF83C2B5D2B4852382852483742AF0C2B4D2B5D2B48523828524838FC2
:2001D90005EDF0C2B4D2B5D2B4852382852483EEF0C2B4D2B5D2B4852382852483E50BF0B4
:2001F900C2B4D2B5D2B4852382852483E50AF0C2B4C2B5D2B4852382852483742BF0C2B460
:20021900D2B5D2B4852382852483E509F0C2B4D2B5D2B4852382852483E508F0C2B4D2B5D1
:20023900D2B4852382852483E50DF0C2B4D2B5D2B4852382852483E50CF0C2B4227537F0F9
:20025900753800753940753A01C2B4D2B5C2B5D2B4852382852483E4F0C2B4D2B5D2B4850E
:200279002382852483E4F0C2B4D2B5D2B4852382852483E4F0C2B4D2B5D2B48523828524BD
:2002990083E4F0C2B49000C81200897508007582011200B99000321200897508007582284C
:2002B9001200B990000A1200897508237582C01200B97508117582C11200B9C2B5D2B48570
:2002D900238285248374C5F0C2B4D2B5D2B4852382852483743DF0C2B4D2B5D2B4852382E4
:2002F9008524837430F0C2B47508AA7582C71200B97508887582361200B9C2B5D2B485235D
:2003190082852483743AF0C2B4D2B5D2B48523828524837455F0C2B4D2B5D2B485238285B4
:200339002483E4F0C2B475081B7509009000B11200D97508077582B71200B9750800758200
:20035900111200B99000961200897508007582291200B99001F4120089AE37AF381EBEFFB8
:20037900011F8E0A8F0BAE39AF3A1EBEFF011F8E0C8F0DE4F508F5099000000201BBAE82B4
:20039900AF838E048F050CBC00010D8C0A8D0BAC3BAD3C0CBC00010D8C0C8D0D853B0885C3
:2003B9003C098E828F831201BBC2B5D2B4852382852483742CF0C2B4D2B5D2B485238285DA
:2003D9002483E53EF0C2B4D2B4852382852483E53DF0C2B4228582458583467401C39541A6
:2003F900FCE49542FD8C478D4885410885420990FFFE12173DAA82AB83A841A942E541257E
:200419003FF53BE5423540F53C85433D85443E854582854683C003C002C001C0001203972F
:20043900E53FC39541F53BE5409542F53C85433D85443E854582854683120397E5412545A7
:20045900F582E5423546F583853F3B85403C85433D85443E120397E545C39541F582E546D5
:200479009542F583853F3B85403C85433D85443E120397D000D001D002D003E4F54BF54CB1
:20049900754901F54AC3E54B98E54C648089F063F08095F0400122E54820E71618B8FF0157
:2004B9001974022AFAE43BFBEA2547F547EB3548F548C002C003054BE4B54B02054C74029D
:2004D9002549F549E4354AF54AE5492547F547E54A3548F548AC45AD46E54B2CFEE54C3D4A
:2004F900FF8E4D8F4EAA3FAB40E82AFEE93BFF8E4F8F50854F3B85503C85433D85443E85B8
:200519004D82854E83C005C004C003C002C001C000120397D000D001D002D003D004D00573
:20053900ECC3954BFEED954CFF8E518F52854F3B85503C85433D85443E855182855283C0EA
:2005590005C004C003C002C001C000120397D000D001D002D003D004D005EAC398FEEB9951
:20057900FF8E3B8F3C85433D85443E854D82854E83C007C006C005C004C003C002C001C0FD
:2005990000120397D000D001D002D003D004D005D006D0078E3B8F3C85433D85443E855184
:2005B90082855283C005C004C003C002C001C000120397D000D001D002D003D004D005E834
:2005D9002CFEE93DFF8E518F52E54B2AFEE54C3BFF8E3B8F3C85433D85443E855182855261
:2005F90083C007C006C005C004C003C002C001C000120397D000D001D002D003D004D005A8
:20061900D006D007ECC398FCED99FD8E3B8F3C85433D85443E8C828D83C005C004C003C084
:2006390002C001C000120397D000D001D002D003EAC3954BFAEB954CFB8A3B8B3C85433D4D
:2006590085443E855182855283C003C002C001C000120397D000D001D002D003D004D00527
:200679008A3B8B3C85433D85443E8C828D83C003C002C001C000120397D000D001D002D0B6
:2006990003D003D00202049EAF828F057E00ED2DFBEE33FCA937AA38ED29F555EE3AF556EB
:2006B900A839AA3AED28F557EE3AF55879007A00C3E99555EA64808556F063F08095F050BC
:2006D9005778007E00C3E89557EE64808558F063F08095F0503A89828A83883F8E408F411F
:2006F900754200855343855444C007C006C004C003C002C001C0001203EED000D001D00225
:20071900D003D004D006D007EB28F8EC3EFE80B5EB29F9EC3AFA809822AE82AF838E048F1A
:2007390005C3EC94F0ED9400500DAC59AD5AC3EC9440ED9401400122E55B2EFCE55C3FFD2F
:200759001CBCFF011DC3EC94F0ED9400400A74F0C39EF55BE49FF55CE55D2559FCE55E3570
:200779005AFD1CBCFF011DC3EC9440ED9401400D7440C39559F55D7401955AF55EE55B2EE6
:20079900FCE55C3FFD1CBCFF011D8C0A8D0BE55D2559FCE55E355AFD1CBCFF011D8C0C8DFF
:2007B9000D855908855A098E828F831201BBC2B5D2B4852382852483742CF0C2B4D2B5AFC6
:2007D90060AD5DAE5EED4E6030AB5BAC5CEB4C6021D2B4852382852483EFF0C2B4D2B485BD
:2007F9002382852483E55FFAF0C2B41BBBFF011C80DB1DBDFF011E80CC22AE82AF838F05C2
:20081900E4F508F509750AEFF50B750C3F750D01900000C006C0051201BBD005D006C2B524
:20083900D2B4852382852483742CF0C2B4D2B5D2B4852382852483EDF0C2B4D2B485238257
:20085900852483EEF0C2B47CB07F048C028F031CBCFF011FEA4B60667B10D2B4852382857E
:200879002483EDF0C2B4D2B4852382852483EEF0C2B4D2B4852382852483EDF0C2B4D2B480
:20089900852382852483EEF0C2B4D2B4852382852483EDF0C2B4D2B4852382852483EEF0AC
:2008B900C2B4D2B4852382852483EDF0C2B4D2B4852382852483EEF0C2B4DB9E808D7F3F06
:2008D9008F041FEC601AD2B4852382852483EDF0C2B4D2B4852382852483EEF0C2B480E028
:2008F90022AE82AF83C3EE94F0EF648094805067AC61AD62C3EC9440ED648094815058AAB1
:20091900687B008A088B09900006C007C006C005C004C003C00212173DA882A983D002D026
:2009390003D004D005D006D007E82EF8E93FF918B8FF0119E920E71FEBC40354F8CAC4038F
:20095900CA6ACA54F8CA6AFBEA2CFAEB3DFB1ABAFF011BEB30E701227401B5680474018033
:2009790001E4FBFAE564B56608E565B56703D38001C392007569007405B56905756A00802D
:2009990047C002856308750900900005C007C006C005C004C00312173DA982AA83D003D0F8
:2009B90004D005D006D007E92435F56CEA3418F56DE569F93395E0FAE9256CF582EA356DF7
:2009D900F583E493F56AD002C2D58568F0E56930E704B2D5F404A430D50AF42401C5F0F40D
:2009F9003400C5F02EF56CEF35F0F56D856C6E856D6F756B00E56A20E003020ABBEB6046A6
:200A1900E569F83395E0F9E82EF8E93FF988828983E56BF83395E0F9E82CF8E93DF9883BBA
:200A3900893C85643D85653EC007C006C005C004C003C002120397D002D003D004D005D025
:200A590006D007020B62856E82856F83C2D58568F0E56B30E704B2D5F404A430D50AF4241C
:200A790001C5F0F43400C5F02CF8ED35F0F98859895AA8687900885B895C885D895E8564D1
:200A99005F856560C007C006C005C004C003C002120732D002D003D004D005D006D00702B1
:200AB9000B62300003020B62EA6045E569F83395E0F9E82EF8E93FF988828983E56BF833D8
:200AD90095E0F9E82CF8E93DF9883B893C85663D85673EC007C006C005C004C003C00212DD
:200AF9000397D002D003D004D005D006D0078059856C82856D83C2D58568F0E56B30E704A8
:200B1900B2D5F404A430D50AF42401C5F0F43400C5F02CF8ED35F0F98859895AA868790063
:200B3900885B895C885D895E85665F856760C007C006C005C004C003C002120732D002D0EA
:200B590003D004D005D006D007E56AC313F56A056BC3E56B648094885003020A0E0569C37E
:200B7900E56964809486500302099022AF82BF0A26AD31E4C40354F8CDC403CD6DCD54F824
:200B9900CD6DFEAB2FAC30ED2BFBEE3CFC8B2F8C30E4F52DF52E22BF0D0122852F6185309B
:200BB900628F63853364853465853566853667853168852D82852E831208FA853108750974
:200BD9000090000612173DAE82AF83AC2DAD2EEE2CFCEF3DFD8C2D8D2E22AD82AE83AFF016
:200BF9007B007C00EB2DF8EC3EF98F02888289838AF01217A7FA60208A82C007C006C005E9
:200C1900C004C003120B85D003D004D005D006D0070BBB00CF0C80CC22AF827B007C007DB5
:200C3900007E00C2B48B828C83EFF0D2B40BBB00090CBC00050DBD00010EC3EB94FFEC94F0
:200C5900FFED9400EE940040DA227F00BF080E7F0075820AC007120B85D007800AC00712C6
:200C79000C83120B85D0070F80E27590F07590F08590215321F074F0B521F290001412007C
:200C990089E59054F0F52174F0B5210280ED900001120089E59054F0F52174F0B521028083
:200CB900DA7590FEE59054F0F52174F0B521028005752200803D7590FDE59054F0F5217415
:200CD900F0B52102800575220180287590FBE59054F0F52174F0B5210280057522028013B2
:200CF9007590F7E59054F0F52174F0B5210280B175220374E0B52115E52275F004A4243062
:200D1900F582741D35F0F583E493F5822274D0B52118E52275F004A42430FE741D35F0FFB8
:200D39008E828F83A3E493F5822274B0B52119E52275F004A42430FE741D35F0FF8E828FF8
:200D590083A3A3E493F58222E52275F004A42430FE741D35F0FF8E828F83A3A3A3E493F50F
:200D79008222AF827D007E00BF0100405F8F037C0075080A8C098B828C83C006C005C00496
:200D9900C0031217C3A982AA83D003D00475080A7509008B828C83C002C0011217F9AB8299
:200DB900D001D002D005D0068B078D088E0990000AC007C002C00112173DAB82AC83D00197
:200DD900D002D007E92BFDEA3CFE809C8D828E8322120D7BAE82AF838E048F05C3EC940158
:200DF900ED9400404275080A7509008C828D83C005C00412175AAA82D004D00575080A75D7
:200E190009008C828D83C002121714AC82AD83D0028C068D0774302AF582C007C006120B4E
:200E390085D006D00780B175820A020B85AF827570007571007E00BF0100405A8F047D00BF
:200E5900740F5CFA7508108D098C828D83C006C0021217F9AC82D002D0068C07EA24F64008
:200E79000CEE2470F98A0574302DF78026EE2470F97D0075080A8D098A828D83C007C00617
:200E9900C0011217C3AC82AD83D001D006D00774412CF70E80A1857182120B858570820216
:200EB9000B85E582FF24C6920140088F06EE24D0FE800474C92FFE8E822290F80012081314
:200ED9009000141200899007E01208139000141200897582001201509000001208137553F8
:200EF900007554F87582141206A1900064120089900000120813758205120138E4F508F5EB
:200F1900099007FF12012B901D4075F080120BF3758203120138901D4975F080120BF39039
:200F39001D5475F080120BF39000C8120089900000120813758201120150E4F508F50990B8
:200F5900000012011E901D5F75F080120BF39001F41200899000001208137582021201500D
:200F7900E4F508F50990000012011E901D6A75F080120BF39001F4120089900000120813CF
:200F9900758203120150E4F508F50990000012011E9000C8120089901D7575F080120BF331
:200FB9009000C80200897E007F007D00C007C006C005120C83AC82C004120B85D0048C8252
:200FD900120EBBAC82D005D006D0077B00EC4206EB4207BD0302800EEFC454F0CEC4CE6E75
:200FF900CE54F0CE6EFF0DBD040040C08E828F83227F007E00C007C006120C83AD82C0055A
:20101900120B85D0058D82120EBBAD82D006D007ED4207BE010280078F05EDC454F0FF0E66
:20103900BE020040D08F822290D6BA120813E4F508F50990000012011E75820212013890D3
:201059000002E4F0901D8075F080120BF312100AE582900001F075820A120B85901D957511
:20107900F080120BF37E007F00C2B48E048F05900001E0FBF97A008C828D83E9F0EAA3F0EB
:20109900D2B4E9B5030280438B82C005C004C001120E46758220120B85D0018982120E4693
:2010B900758220120B85D004D0058C828D83E0F582120E4675820A120B85901DA575F08000
:2010D900120BF39000027401F08078C2B4900001EBF4F0E0FBF97A008C828D83E9F0EAA350
:2010F900F0D2B4E9B503028045EBF4F582C005C004C001120E46758220120B85D00189825E
:20111900120E46758220120B85D004D0058C828D83E0F582120E4675820A120B85901DA51E
:2011390075F080120BF39000027401F080150EBE00010F8E048F05C3EC94FFED94FF5003FE
:20115900021082900002E06009901DBA75F080120BF3901DC475F080120BF3120C83AF8273
:20117900BF31F82290D6BA120813E4F508F50990000012011E758202120138901DD575F034
:2011990080120BF312100AAF8275820AC007120B85901DE175F080120BF3120FBFAD82AE9F
:2011B9008375820AC006C005120B85901DF075F080120BF3D005D006D007C2B48D828E83BB
:2011D9008F057E00EDF0EEA3F0D2B4EDB507108D82120E46901DFD75F080120BF38009901A
:2011F9001E1175F080120BF3901E1F75F080120BF3120C83AF82BF31F82290D6BA120813C7
:20121900E4F508F50990000012011E758202120138901E3175F080120BF3120FBFAE82AF3E
:201239008375820AC007C006120B85901E4375F080120BF312100AAD8275820AC005120BBE
:2012590085901E4F75F080120BF3120FBFAB82AC8375820AC004C003120B85901E6275F023
:2012790080120BF3D003D004D005D006D00779007A00C003C0048D007C00C3E998EA9CD07F
:2012990004D0035031C005C2B48E828F838B728C73E0F8A3E0FD857282857383E8F0EDA3D0
:2012B900F0D2B40EBE00010F0BBB00010C09B900010AD00580BC901E7775F080120BF39068
:2012D9001E1F75F080120BF3120C83AF82BF31F822AE82AF838F058D048C82C007C006C005
:2012F90004120E46D004D0068E058D82C006C005C004120E46901E7E75F080120BF3D00475
:20131900D005D006D007C2B48E828F83E0FBD2B48B82C007C006C005C004120E4675820AAF
:20133900120B85901E8175F080120BF312100AAB8275820AC003120B85D003D004D005D0C3
:2013590006D007C2B47A008E828F83EBF0EAA3F0D2B48C82C005C003120E46D003D0058D76
:2013790082C003120E46901E7E75F080120BF3D0038B82120E4675820A020B8590D6BA127D
:201399000813E4F508F50990000012011E758202120138901E9275F080120BF3120FBFAE72
:2013B90082AF8375820AC007C006120B85D006D0078E828F83C007C0061212EAD006D00719
:2013D900901E1F75F080C007C006120BF3901EA275F080120BF3901EB975F080120BF312F2
:2013F9000C83AD82D006D007900003EDF0BD310122BD322D8E828F83C007C0061212EA907F
:20141900D6BA120813E4F508F50990000012011E758202120138D006D007900003E4F0807E
:2014390033BD33300EBE00010F8E828F83C007C0061212EA90D6BA120813E4F508F50990EB
:20145900000012011E758202120138D006D007900003E4F0900003E0FDBD310122BD320179
:20147900220213D92290D6BA120813E4F508F50990000012011E758202120138901E92753B
:20149900F080120BF3120FBF75820A120B85901ED775F080120BF312100AAF8275820AC098
:2014B90007120B85901EEA75F080120BF312100AD0077D007E008F037C00C3ED9BEE9C50AC
:2014D900070DBD00F10E80EE22D2B4852782852883E0FFC2B48F8222D2B4852982852A833F
:2014F900E0FFC2B48F8222AF8290D6BAC007120813E4F508F50990000012011E758202125B
:201519000138901F0075F080120BF3D0078F82120E4675820A120B85901F0E75F080020B35
:20153900F3AF8290D6BAC007120813E4F508F50990000012011E758202120138901F207532
:20155900F080120BF3D0078F82120E4675820A120B85901F0E75F080020BF390D6BA120825
:2015790013E4F508F50990000012011E758202120138901F0075F080120BF31214E2120E8F
:201599004675820A120B85901F0E75F080120BF3120C83AF82BF3001229001F41200891281
:2015B90014E212150080E990D6BA120813E4F508F50990000012011E758202120138901FAC
:2015D9002075F080120BF31214F1120E4675820A120B85901F0E75F080120BF3120C83AFBB
:2015F90082BF3001229001F41200891214F112153A80E9758202120150758203120138900C
:20161900D6BA1208137508BA7509D690000012012BE4F508F50990000012011E901F2E75A9
:20163900F080120BF3901F3D75F080120BF3901F4875F080120BF3901F5875F080120BF348
:20165900901F6175F080120BF3901F6B75F080120BF3901F7475F080120BF3901F7D75F0B4
:2016790080120BF3901F8675F080120BF3901F9075F080120BF3901FA075F080020BF375BA
:20169900080085258285268312007912025690000012081375820012015075531F75540013
:2016B9007582141206A112160C120C83AF82C007120E46D007BF3102801EBF3302801EBF62
:2016D90034028023BF36028023BF37028028BF4102800FBF42D0801912117D80C912104197
:1B16F90080C412121380BF12139580BA12147E80B512157480B01215C080AB72
:2018350000000000003E5B4F5B3E3E6B4F6B3E1C3E7C3E1C183C7E3C181C577D571C1C5E3E
:201855007F5E1C00183C1800FFE7C3E7FF0018241800FFE7DBE7FF30483A060E26297929CD
:2018750026407F050507407F05253F5A3CE73C5A7F3E1C1C08081C1C3E7F14227F22145FDE
:201895005F005F5F06097F017F006689956A606060606094A2FFA29408047E040810207E8B
:2018B500201008082A1C08081C2A08081E101010100C1E0C1E0C30383E3830060E3E0E06F5
:2018D500000000000000005F00000007000700147F147F14242A7F2A1223130864623649C0
:2018F5005620500008070300001C2241000041221C002A1C7F1C2A08083E08080080703074
:20191500000808080808000060600020100804023E5149453E00427F40007249494946217C
:2019350041494D331814127F1027454545393C4A49493141211109073649494936464949A1
:20195500291E000014000000403400000008142241141414141400412214080201590906D6
:201975003E415D594E7C1211127C7F494949363E414141227F4141413E7F494949417F094C
:201995000909013E414151737F0808087F00417F41002040413F017F081422417F40404066
:2019B500407F021C027F7F0408107F3E4141413E7F090909063E4151215E7F091929462636
:2019D5004949493203017F01033F4040403F1F2040201F3F4038403F6314081463030478B7
:2019F50004036159494D43007F4141410204081020004141417F0402010204404040404029
:201A1500000307080020545478407F284444383844444428384444287F38545454180008D1
:201A35007E090218A4A49C787F0804047800447D40002040403D007F1028440000417F40B4
:201A5500007C047804787C080404783844444438FC1824241818242418FC7C0804040848F9
:201A75005454542404043F44243C4040207C1C2040201C3C4030403C44281028444C9090F6
:201A9500907C4464544C4400083641000000770000004136080002010204023C2623263C32
:201AB5001EA1A161123A4040207A385454555921555579412254547842215554784020545D
:201AD5005579400C1E5272123955555559395454545939555454580000457C410002457D70
:201AF500420001457C407D1211127DF0282528F07C545545002054547C547C0A097F49327E
:201B1500494949323A4444443A324A4848303A4141217A3A42402078009DA0A07D3D424261
:201B3500423D3D4040403D3C24FF2424487E4943662B2FFC2F2BFF0929F620C0887E0903AF
:201B550020545479410000447D413048484A32384040227A007A0A0A727D0D19317D2629BC
:201B7500292F28262929292630484D4020380808080808080808382F10C8ACBA2F1028342C
:201B9500FA00007B000008142A142222142A1408AA005500AAAA55AA55AA000000FF001063
:201BB5001010FF00141414FF001010FF00FF1010F010F0141414FC001414F700FF0000FF33
:201BD50000FF1414F404FC141417101F10101F101F1414141F00101010F0000000001F104F
:201BF5001010101F10101010F010000000FF101010101010101010FF10000000FF14000090
:201C1500FF00FF00001F10170000FC04F414141710171414F404F40000FF00F714141414B7
:201C3500141414F700F7141414171410101F101F141414F4141010F010F000001F101F00EE
:201C550000001F14000000FC140000F010F01010FF10FF141414FF141010101F0000000070
:201C7500F010FFFFFFFFFFF0F0F0F0F0FFFFFF0000000000FFFF0F0F0F0F0F384444384422
:201C9500FC4A4A4A347E02020606027E027E0263554941633844443C04407E201E200602C8
:201CB5007E020299A5E7A5991C2A492A1C4C7201724C304A4D4D303048784830BC625A466E
:201CD5003D3E494949007E0101017E2A2A2A2A2A44445F444440514A444040444A5140009B
:201CF50000FF0103E080FF000008086B6B083612362436060F090F06000018180000001034
:201D150010003040FF0101001F01011E00191D1712003C3C3C3C000000000031343745328C
:201D3500353830333639464142434457656C636F6D650A004543454E2D343333300A0052BB
:201D55006F746174696F6E203000526F746174696F6E203100526F746174696F6E203200DD
:201D7500526F746174696F6E203300456E746572206279746520746F20636865636B0A00AE
:201D9500496E2070726F67726573732E2E2E0A004D656D6F727920636865636B2066616967
:201DB5006C65640A0053756363657373210A005072657373203120666F72206D656E750031
:201DD500456E74657220627974650A00456E74657220616464726573730A00496E2070724B
:201DF5006F67726573730A002066657463686564210A53756363657373210A00436865639C
:201E15006B206661696C65640A005072657373203120666F72206D656E750A00456E746583
:201E350072207374617274206164642E0A00456E7465722073697A650A00456E746572204B
:201E5500746172676574206164642E0A004D6F766520696E2070726F67726573732E2E2EB8
:201E75000A00446F6E65210A003A2000456E746572206E657720627974653A0A00456E7491
:201E9500657220616464726573733A0A005072657373203220746F2065646974206167619B
:201EB500696E0A005072657373203320746F2065646974206E65787420616464726573731E
:201ED5000A00456E74657220626C6F636B2073697A653A0A00456E746572206279746520A9
:201EF500746F20636F756E743A0A0054656D70657261747572653A20005072657373203018
:201F150020666F72206D656E750A004C69676874206C6576656C3A20004272616E646F6E18
:201F350020436C696E650A004543454E20343333300A00313A204261736963206368656348
:201F55006B0A00323A2044756D700A00333A20436865636B0A00413A204D6F76650A0034E6
:201F75003A20456469740A00353A2046696E640A00363A20436F756E740A00423A20546550
:151F95006D70657261747572650A00373A204C696768740A00C5
:201714007A10E4FBFCE58225E0F582E58333F583EB33FBEC33FCEB9508F5F0EC95094006E9
:09173400FCABF0438201DADD2276
:06003500E478FFF6D8FD9F
:200013007900E94400601B7A00901FAA780475A000E493F2A308B8000205A0D9F4DAF275C7
:02003300A0FF2C
:1D173D00E5828508F0A4C582C0F08509F0A4D0F025F0C5838508F0A42583F583226E
:20175A00E508450960467A01E50825E0F508E509334012F509E5829508E583950940030A5C
:20177A0080E6C3E50913F509E50813F508C3E5829508F5F0E58395094005F58385F082C301
:0D179A00E50913F509E50813F508DAE12269
:20003B007800E84400600A790175A000E4F309D8FC7803E84400600C7901900001E4F0A3BF
:04005B00D8FCD9FAFA
:0D000600758173121831E58260030200035A
:1C17A70020F71430F6148883A88220F507E6A88375830022E280F7E49322E02251
:2017C300C2D5E58330E70DD2D5E4C39582F582E49583F583E50930E70BE4C39508F508E45E
:1617E3009509F50912175A30D50BE4C39582F582E49583F58322F6
:2017F900C2D5E58330E70DD2D5E4C39582F582E49583F583E50930E70DB2D5E4C39508F58B
:1818190008E49509F50912171430D50BE4C39582F582E49583F5832217
:04183100758200229A
:00000001FF
