:03000000020006F5
:10005F00752300752440752500752680752700755A
:0A006F0028C0E4F529F52A02000379
:0300030002168959
:10007900AE82AF83D2B48E828F83E508F0C2B422F8
:10008900AE82AF837C007D008C028D03C3EA9EEBB8
:1000990064808FF063F08095F050147AE87B031A3E
:1000A900BAFF011BEA4B70F70CBC00DC0D80D922AA
:1000B900AF82C2B5D2B4852382852483EFF0C2B45E
:1000C900D2B5D2B4852382852483E508F0C2B4224F
:1000D900AE82AF838F05C2B5D2B4852382852483CE
:1000E900EDF0C2B4C2B5D2B4852382852483EEF083
:1000F900C2B4AF09AE08D2B5D2B5D2B485238285D0
:100109002483EFF0C2B4D2B5D2B485238285248387
:10011900EEF0C2B42285822D85832E85082F8509AC
:10012900302285823385833485083585093622E571
:1001390082FF24F7500122EF60068F067F008004BA
:100149007E017F008E3122E582FF24FC404EEF2F95
:1001590090015D7380068014802280307F48753756
:10016900F0753800753940753A01803E7F2875373A
:10017900407538017539F0753A00802E7F887537DA
:10018900F0753800753940753A01801E7FE875377A
:10019900407538017539F0753A00800E7F4875371A
:1001A900F0753800753940753A018F087582360245
:1001B90000B9AE82AF83C2B5D2B4852382852483C8
:1001C900742AF0C2B4D2B5D2B48523828524838F30
:1001D90005EDF0C2B4D2B5D2B4852382852483EE6D
:1001E900F0C2B4D2B5D2B4852382852483E50BF05D
:1001F900C2B4D2B5D2B4852382852483E50AF0C27C
:10020900B4C2B5D2B4852382852483742BF0C2B4D9
:10021900D2B5D2B4852382852483E509F0C2B4D24C
:10022900B5D2B4852382852483E508F0C2B4D2B55A
:10023900D2B4852382852483E50DF0C2B4D2B5D228
:10024900B4852382852483E50CF0C2B4227537F086
:10025900753800753940753A01C2B4D2B5C2B5D204
:10026900B4852382852483E4F0C2B4D2B5D2B4859F
:100279002382852483E4F0C2B4D2B5D2B485238223
:10028900852483E4F0C2B4D2B5D2B485238285240F
:1002990083E4F0C2B49000C8120089750800758221
:1002A900011200B990003212008975080075822880
:1002B9001200B990000A1200897508237582C012CC
:1002C90000B97508117582C11200B9C2B5D2B485D9
:1002D900238285248374C5F0C2B4D2B5D2B48523F0
:1002E90082852483743DF0C2B4D2B5D2B485238209
:1002F9008524837430F0C2B47508AA7582C71200C8
:10030900B97508887582361200B9C2B5D2B4852389
:1003190082852483743AF0C2B4D2B5D2B4852382DB
:100329008524837455F0C2B4D2B5D2B485238285AD
:100339002483E4F0C2B475081B7509009000B1125A
:1003490000D97508077582B71200B975080075825A
:10035900111200B99000961200897508007582295A
:100369001200B99001F4120089AE37AF381EBEFFF2
:10037900011F8E0A8F0BAE39AF3A1EBEFF011F8EC9
:100389000C8F0DE4F508F5099000000201BBAE825F
:10039900AF838E048F050CBC00010D8C0A8D0BAC4C
:1003A9003BAD3C0CBC00010D8C0C8D0D853B0885CB
:1003B9003C098E828F831201BBC2B5D2B4852382D8
:1003C900852483742CF0C2B4D2B5D2B48523828536
:1003D9002483E53EF0C2B4D2B4852382852483E523
:1003E9003DF0C2B4228582458583467401C3954197
:1003F900FCE49542FD8C478D48854108854209906A
:10040900FFFE12172EAA82AB83A841A942E5412516
:100419003FF53BE5423540F53C85433D85443E8506
:100429004582854683C003C002C001C000120397FC
:10043900E53FC39541F53BE5409542F53C85433D94
:1004490085443E854582854683120397E5412545C6
:10045900F582E5423546F583853F3B85403C85433A
:100469003D85443E120397E545C39541F582E5462E
:100479009542F583853F3B85403C85433D85443E18
:10048900120397D000D001D002D003E4F54BF54C0C
:10049900754901F54AC3E54B98E54C648089F063D9
:1004A900F08095F0400122E54820E71618B8FF01D1
:1004B9001974022AFAE43BFBEA2547F547EB35486C
:1004C900F548C002C003054BE4B54B02054C740264
:1004D9002549F549E4354AF54AE5492547F547E50A
:1004E9004A3548F548AC45AD46E54B2CFEE54C3D53
:1004F900FF8E4D8F4EAA3FAB40E82AFEE93BFF8EA7
:100509004F8F50854F3B85503C85433D85443E8503
:100519004D82854E83C005C004C003C002C001C01E
:1005290000120397D000D001D002D003D004D00527
:10053900ECC3954BFEED954CFF8E518F52854F3B89
:1005490085503C85433D85443E855182855283C013
:1005590005C004C003C002C001C000120397D00047
:10056900D001D002D003D004D005EAC398FEEB999C
:10057900FF8E3B8F3C85433D85443E854D82854EAC
:1005890083C007C006C005C004C003C002C001C0C3
:1005990000120397D000D001D002D003D004D005B7
:1005A900D006D0078E3B8F3C85433D85443E85511F
:1005B90082855283C005C004C003C002C001C000C7
:1005C900120397D000D001D002D003D004D005E89F
:1005D9002CFEE93DFF8E518F52E54B2AFEE54C3B3F
:1005E900FF8E3B8F3C85433D85443E855182855234
:1005F90083C007C006C005C004C003C002C001C053
:1006090000120397D000D001D002D003D004D00546
:10061900D006D007ECC398FCED99FD8E3B8F3C8545
:10062900433D85443E8C828D83C005C004C003C010
:1006390002C001C000120397D000D001D002D0033C
:10064900EAC3954BFAEB954CFB8A3B8B3C85433DC2
:1006590085443E855182855283C003C002C001C0D2
:1006690000120397D000D001D002D003D004D005E6
:100679008A3B8B3C85433D85443E8C828D83C003F8
:10068900C002C001C000120397D000D001D002D02F
:1006990003D003D00202049EAF828F057E00ED2DA8
:1006A900FBEE33FCA937AA38ED29F555EE3AF55694
:1006B900A839AA3AED28F557EE3AF55879007A00A3
:1006C900C3E99555EA64808556F063F08095F0504A
:1006D9005778007E00C3E89557EE64808558F0632B
:1006E900F08095F0503A89828A83883F8E408F4105
:1006F900754200855343855444C007C006C004C0F1
:1007090003C002C001C0001203EED000D001D00224
:10071900D003D004D006D007EB28F8EC3EFE80B514
:10072900EB29F9EC3AFA809822AE82AF838E048FD6
:1007390005C3EC94F0ED9400500DAC59AD5AC3ECDF
:100749009440ED9401400122E55B2EFCE55C3FFD00
:100759001CBCFF011DC3EC94F0ED9400400A74F039
:10076900C39EF55BE49FF55CE55D2559FCE55E35C7
:100779005AFD1CBCFF011DC3EC9440ED9401400DD2
:100789007440C39559F55D7401955AF55EE55B2E84
:10079900FCE55C3FFD1CBCFF011D8C0A8D0BE55D72
:1007A9002559FCE55E355AFD1CBCFF011D8C0C8DDD
:1007B9000D855908855A098E828F831201BBC2B5EE
:1007C900D2B4852382852483742CF0C2B4D2B5AF08
:1007D90060AD5DAE5EED4E6030AB5BAC5CEB4C602A
:1007E90021D2B4852382852483EFF0C2B4D2B485A3
:1007F9002382852483E55FFAF0C2B41BBBFF011C89
:1008090080DB1DBDFF011E80CC22AE82AF838F0528
:10081900E4F508F509750AEFF50B750C3F750D013F
:10082900900000C006C0051201BBD005D006C2B5B4
:10083900D2B4852382852483742CF0C2B4D2B5D274
:10084900B4852382852483EDF0C2B4D2B485238292
:10085900852483EEF0C2B47CB07F048C028F031C24
:10086900BCFF011FEA4B60667B10D2B485238285E9
:100879002483EDF0C2B4D2B4852382852483EEF0BB
:10088900C2B4D2B4852382852483EDF0C2B4D2B434
:10089900852382852483EEF0C2B4D2B48523828570
:1008A9002483EDF0C2B4D2B4852382852483EEF08B
:1008B900C2B4D2B4852382852483EDF0C2B4D2B404
:1008C900852382852483EEF0C2B4DB9E808D7F3F31
:1008D9008F041FEC601AD2B4852382852483EDF03E
:1008E900C2B4D2B4852382852483EEF0C2B480E0F9
:1008F90022AE82AF83C3EE94F0EF64809480506798
:10090900AC61AD62C3EC9440ED648094815058AA07
:10091900687B008A088B09900006C007C006C005DD
:10092900C004C003C00212172EA882A983D002D026
:1009390003D004D005D006D007E82EF8E93FF9180E
:10094900B8FF0119E920E71FEBC40354F8CAC4032F
:10095900CA6ACA54F8CA6AFBEA2CFAEB3DFB1ABA0E
:10096900FF011BEB30E701227401B56804740180B3
:1009790001E4FBFAE564B56608E565B56703D3806C
:1009890001C392007569007405B56905756A00802F
:1009990047C002856308750900900005C007C006B5
:1009A900C005C004C00312172EA982AA83D003D0A0
:1009B90004D005D006D007E92426F56CEA3418F5E9
:1009C9006DE569F93395E0FAE9256CF582EA356D4B
:1009D900F583E493F56AD002C2D58568F0E56930FC
:1009E900E704B2D5F404A430D50AF42401C5F0F41F
:1009F9003400C5F02EF56CEF35F0F56D856C6E851C
:100A09006D6F756B00E56A20E003020ABBEB604677
:100A1900E569F83395E0F9E82EF8E93FF988828924
:100A290083E56BF83395E0F9E82CF8E93DF9883B63
:100A3900893C85643D85653EC007C006C005C00484
:100A4900C003C002120397D002D003D004D005D04E
:100A590006D007020B62856E82856F83C2D58568D1
:100A6900F0E56B30E704B2D5F404A430D50AF424D8
:100A790001C5F0F43400C5F02CF8ED35F0F98859CA
:100A8900895AA8687900885B895C885D895E856474
:100A99005F856560C007C006C005C004C003C00209
:100AA900120732D002D003D004D005D006D00702F5
:100AB9000B62300003020B62EA6045E569F8339581
:100AC900E0F9E82EF8E93FF988828983E56BF83384
:100AD90095E0F9E82CF8E93DF9883B893C85663DC4
:100AE90085673EC007C006C005C004C003C0021226
:100AF9000397D002D003D004D005D006D00780597F
:100B0900856C82856D83C2D58568F0E56B30E70415
:100B1900B2D5F404A430D50AF42401C5F0F43400A4
:100B2900C5F02CF8ED35F0F98859895AA86879008B
:100B3900885B895C885D895E85665F856760C007BB
:100B4900C006C005C004C003C002120732D002D0DB
:100B590003D004D005D006D007E56AC313F56A05AA
:100B69006BC3E56B648094885003020A0E0569C360
:100B7900E56964809486500302099022AF82BF0A16
:100B890026AD31E4C40354F8CDC403CD6DCD54F87A
:100B9900CD6DFEAB2FAC30ED2BFBEE3CFC8B2F8CDF
:100BA90030E4F52DF52E22BF0D0122852F61853008
:100BB900628F6385336485346585356685366785D7
:100BC9003168852D82852E831208FA8531087509C9
:100BD9000090000612172EAE82AF83AC2DAD2EEE1B
:100BE9002CFCEF3DFD8C2D8D2E22AD82AE83AFF016
:100BF9007B007C00EB2DF8EC3EF98F02888289831B
:100C09008AF0121798FA60208A82C007C006C005C8
:100C1900C004C003120B85D003D004D005D006D080
:100C2900070BBB00CF0C80CC22AF827B007C007D00
:100C3900007E00C2B48B828C83EFF0D2B40BBB0070
:100C4900090CBC00050DBD00010EC3EB94FFEC942B
:100C5900FFED9400EE940040DA227F00BF080E7F7A
:100C69000075820AC007120B85D007800AC00712D7
:100C79000C83120B85D0070F80E27590F07590F008
:100C89008590215321F074F0B521F29000141200DF
:100C990089E59054F0F52174F0B5210280ED9000BA
:100CA90001120089E59054F0F52174F0B521028014
:100CB900DA7590FEE59054F0F52174F0B5210280C3
:100CC90005752200803D7590FDE59054F0F521747D
:100CD900F0B52102800575220180287590FBE59009
:100CE90054F0F52174F0B5210280057522028013B4
:100CF9007590F7E59054F0F52174F0B5210280B1B3
:100D090075220374E0B52115E52275F004A42421A8
:100D1900F582741D35F0F583E493F5822274D0B51C
:100D29002118E52275F004A42421FE741D35F0FF75
:100D39008E828F83A3E493F5822274B0B52119E5DD
:100D49002275F004A42421FE741D35F0FF8E828FD4
:100D590083A3A3E493F58222E52275F004A4242158
:100D6900FE741D35F0FF8E828F83A3A3A3E493F550
:100D79008222AF827D007E00BF0100405F8F037C2D
:100D89000075080A8C098B828C83C006C005C004D3
:100D9900C0031217B4A982AA83D003D00475080A24
:100DA9007509008B828C83C002C0011217EAAB82DD
:100DB900D001D002D005D0068B078D088E0990008E
:100DC9000AC007C002C00112172EAB82AC83D00142
:100DD900D002D007E92BFDEA3CFE809C8D828E83F0
:100DE90022120D7BAE82AF838E048F05C3EC940172
:100DF900ED9400404275080A7509008C828D83C004
:100E090005C00412174BAA82D004D00575080A75CB
:100E190009008C828D83C002121705AC82AD83D084
:100E2900028C068D0774302AF582C007C006120BA2
:100E390085D006D00780B175820A020B85AF82750D
:100E490070007571007E00BF0100405A8F047D005B
:100E5900740F5CFA7508108D098C828D83C006C0E9
:100E6900021217EAAC82D002D0068C07EA24F640B7
:100E79000CEE2470F98A0574302DF78026EE247063
:100E8900F97D0075080A8D098A828D83C007C0061D
:100E9900C0011217B4AC82AD83D001D006D007745B
:100EA900412CF70E80A1857182120B858570820213
:100EB9000B85E582FF24C6920140088F06EE24D0F7
:100EC900FE800474C92FFE8E822290F80012081346
:100ED9009000141200899007E01208139000141270
:100EE9000089758200120150900000120813755391
:100EF900007554F87582141206A1900064120089D5
:100F0900900000120813758205120138E4F508F5FE
:100F1900099007FF12012B901D3175F080120BF318
:100F2900758203120138901D3A75F080120BF39007
:100F39001D4575F080120BF39000C81200899000CE
:100F490000120813758201120150E4F508F50990A1
:100F5900000012011E901D5075F080120BF39001D4
:100F6900F4120089900000120813758202120150D0
:100F7900E4F508F50990000012011E901D5B75F05B
:100F890080120BF39001F4120089900000120813EB
:100F9900758203120150E4F508F509900000120169
:100FA9001E9000C8120089901D6675F080120BF31F
:100FB9009000C80200897E007F007D00C007C0063E
:100FC900C005120C83AC82C004120B85D0048C823C
:100FD900120EBBAC82D005D006D0077B00EC4206CE
:100FE900EB4207BD0302800EEFC454F0CEC4CE6EAF
:100FF900CE54F0CE6EFF0DBD040040C08E828F83AB
:10100900227F007E00C007C006120C83AD82C00596
:10101900120B85D0058D82120EBBAD82D006D0078A
:10102900ED4207BE010280078F05EDC454F0FF0EA3
:10103900BE020040D08F822290D6BA120813E4F57E
:1010490008F50990000012011E75820212013890FC
:101059000002E4F0901D7175F080120BF312100A72
:10106900E582900001F075820A120B85901D867544
:10107900F080120BF37E007F00C2B48E048F0590BE
:101089000001E0FBF97A008C828D83E9F0EAA3F094
:10109900D2B4E9B5030280438B82C005C004C00104
:1010A900120E46758220120B85D0018982120E46D6
:1010B900758220120B85D004D0058C828D83E0F5D2
:1010C90082120E4675820A120B85901D9675F08064
:1010D900120BF39000027401F08078C2B490000101
:1010E900EBF4F0E0FBF97A008C828D83E9F0EAA356
:1010F900F0D2B4E9B503028045EBF4F582C005C02E
:1011090004C001120E46758220120B85D001898216
:10111900120E46758220120B85D004D0058C828D63
:1011290083E0F582120E4675820A120B85901D9690
:1011390075F080120BF39000027401F080150EBE59
:1011490000010F8E048F05C3EC94FFED94FF50034B
:10115900021082900002E06009901DAB75F08012C8
:101169000BF3901DB575F080120BF3120C83AF824F
:10117900BF31F82290D6BA120813E4F508F50990A0
:10118900000012011E758202120138901DC675F009
:1011990080120BF312100AAF8275820AC007120B74
:1011A90085901DD275F080120BF3120FBFAD82AE80
:1011B9008375820AC006C005120B85901DE175F082
:1011C90080120BF3D005D006D007C2B48D828E836E
:1011D9008F057E00EDF0EEA3F0D2B4EDB507108DCA
:1011E90082120E46901DEE75F080120BF380099065
:1011F9001E0275F080120BF3901E1075F080120B11
:10120900F3120C83AF82BF31F82290D6BA120813B9
:10121900E4F508F50990000012011E758202120119
:1012290038901E2275F080120BF3120FBFAE82AFF9
:101239008375820AC007C006120B85901E3475F0AB
:1012490080120BF312100AAD8275820AC005120BC7
:1012590085901E4075F080120BF3120FBFAB82AC64
:101269008375820AC004C003120B85901E5375F062
:1012790080120BF3D003D004D005D006D007790033
:101289007A00C003C0048D007C00C3E998EA9CD0B1
:1012990004D0035031C005C2B48E828F838B728C07
:1012A90073E0F8A3E0FD857282857383E8F0EDA30E
:1012B900F0D2B40EBE00010F0BBB00010C09B9003E
:1012C900010AD00580BC901E6875F080120BF3905E
:1012D9001E1075F080120BF3120C83AF82BF31F828
:1012E90022AE82AF8390D6BAC007C006120813E4B3
:1012F900F508F50990000012011E758202120138E5
:10130900D006D0078F058D048C82C007C006C004A3
:10131900120E46D004D0068E058D82C006C005C0C7
:1013290004120E46901E6F75F080120BF3D004D094
:1013390005D006D007C2B48E828F83E0FBD2B48B6E
:1013490082C007C006C005C004120E4675820A1283
:101359000B85901E7275F080120BF312100AAB8286
:1013690075820AC003120B85D003D004D005D006BC
:10137900D007C2B47A008E828F83EBF0EAA3F0D251
:10138900B48C82C005C003120E46D003D0058D82ED
:10139900C003120E46901E6F75F080120BF3D00336
:1013A9008B82120E4675820A020B8590D6BA1208F4
:1013B90013E4F508F50990000012011E7582021266
:1013C9000138901E8375F080120BF3120FBFAE82A5
:1013D900AF8375820AC007C006120B85D006D007F5
:1013E9008E828F83C007C0061212EAD006D00790FA
:1013F9001E1075F080C007C006120BF3901E93757E
:10140900F080120BF3901EAA75F080120BF3120CE8
:1014190083AD82D006D007900003EDF0BD310122E3
:10142900BD32168E828F83C007C0061212EAD0061B
:10143900D007900003E4F0801CBD33190EBE0001F3
:101449000F8E828F83C007C0061212EAD006D0071A
:10145900900003E4F0900003E0FDBD310122BD32AC
:1014690001220213F82290D6BA120813E4F508F5FE
:101479000990000012011E758202120138901E8324
:1014890075F080120BF3120FBF75820A120B85904B
:101499001EC875F080120BF312100AAF8275820A0A
:1014A900C007120B85901EDB75F080120BF312102A
:1014B9000AD0077D007E008F037C00C3ED9BEE9C64
:1014C90050070DBD00F10E80EE22D2B4852782852A
:1014D9002883E0FFC2B48F8222D2B4852982852A6B
:1014E90083E0FFC2B48F8222AF8290D6BAC00712BE
:1014F9000813E4F508F50990000012011E7582022F
:10150900120138901EF175F080120BF3D0078F820B
:10151900120E4675820A120B85901EFF75F0800225
:101529000BF3AF8290D6BAC007120813E4F508F599
:101539000990000012011E758202120138901F11D4
:1015490075F080120BF3D0078F82120E4675820A4E
:10155900120B85901EFF75F080020BF390D6BA121C
:101569000813E4F508F50990000012011E758202BE
:10157900120138901EF175F080120BF31214D31278
:101589000E4675820A120B85901EFF75F080120BAC
:10159900F3120C83AF82BF3001229001F41200894B
:1015A9001214D31214F180E990D6BA120813E4F593
:1015B90008F50990000012011E7582021201389087
:1015C9001F1175F080120BF31214E2120E46758288
:1015D9000A120B85901EFF75F080120BF3120C8313
:1015E900AF82BF3001229001F41200891214E21275
:1015F900152B80E975820212015075820312013898
:1016090090D6BA1208137508BA7509D69000001257
:10161900012BE4F508F50990000012011E901F1F27
:1016290075F080120BF3901F2E75F080120BF3905A
:101639001F3975F080120BF3901F4975F080120B5A
:10164900F3901F5275F080120BF3901F5C75F080B8
:10165900120BF3901F6575F080120BF3901F6E75D6
:10166900F080120BF3901F7775F080120BF3901F27
:101679008175F080120BF3901F9175F080020BF3C6
:1016890075080085258285268312007912025690F5
:10169900000012081375820012015075531F75540A
:1016A900007582141206A11215FD120C83AF82C0B7
:1016B90007120E46D007BF3102801EBF3302801EBB
:1016C900BF34028023BF36028023BF37028028BF80
:1016D9004102800FBF42D0801912117D80C91210BA
:1016E9004180C412121380BF1213B480BA12146F4E
:0C16F90080B512156580B01215B180ABF1
:1018260000000000003E5B4F5B3E3E6B4F6B3E1C74
:101836003E7C3E1C183C7E3C181C577D571C1C5E8B
:101846007F5E1C00183C1800FFE7C3E7FF00182462
:101856001800FFE7DBE7FF30483A060E262979290C
:1018660026407F050507407F05253F5A3CE73C5A41
:101876007F3E1C1C08081C1C3E7F14227F22145F1E
:101886005F005F5F06097F017F006689956A606079
:1018960060606094A2FFA29408047E040810207E73
:1018A600201008082A1C08081C2A08081E101010F8
:1018B600100C1E0C1E0C30383E3830060E3E0E063E
:1018C600000000000000005F000000070007001491
:1018D6007F147F14242A7F2A122313086462364950
:1018E6005620500008070300001C22410000412238
:1018F6001C002A1C7F1C2A08083E0808008070303D
:1019060000080808080800006060002010080402AB
:101916003E5149453E00427F4000724949494621B1
:1019260041494D331814127F1027454545393C4A25
:10193600494931412111090736494949364649493C
:10194600291E000014000000403400000008142284
:1019560041141414141400412214080201590906F2
:101966003E415D594E7C1211127C7F494949363EF3
:10197600414141227F4141413E7F494949417F09D9
:101986000909013E414151737F0808087F00417FE4
:1019960041002040413F017F081422417F404040E2
:1019A600407F021C027F7F0408107F3E4141413E7A
:1019B6007F090909063E4151215E7F0919294626FC
:1019C6004949493203017F01033F4040403F1F2000
:1019D60040201F3F4038403F6314081463030478D7
:1019E60004036159494D43007F41414102040810F7
:1019F60020004141417F0402010204404040404032
:101A0600000307080020545478407F28444438389F
:101A160044444428384444287F3854545418000811
:101A26007E090218A4A49C787F0804047800447DEB
:101A360040002040403D007F1028440000417F4088
:101A4600007C047804787C080404783844444438DC
:101A5600FC1824241818242418FC7C0804040848BC
:101A66005454542404043F44243C4040207C1C200D
:101A760040201C3C4030403C44281028444C909068
:101A8600907C4464544C44000836410000007700C2
:101A960000004136080002010204023C2623263CCF
:101AA6001EA1A161123A4040207A3854545559215A
:101AB6005555794122545478422155547840205442
:101AC6005579400C1E527212395555555939545490
:101AD600545939555454580000457C410002457DFF
:101AE600420001457C407D1211127DF0282528F028
:101AF6007C545545002054547C547C0A097F493255
:101B0600494949323A4444443A324A4848303A41CB
:101B160041217A3A42402078009DA0A07D3D424274
:101B2600423D3D4040403D3C24FF2424487E4943FD
:101B3600662B2FFC2F2BFF0929F620C0887E090370
:101B460020545479410000447D413048484A323897
:101B56004040227A007A0A0A727D0D19317D2629C3
:101B6600292F28262929292630484D4020380808BB
:101B7600080808080808382F10C8ACBA2F102834EF
:101B8600FA00007B000008142A142222142A1408E2
:101B9600AA005500AAAA55AA55AA000000FF0010DF
:101BA6001010FF00141414FF001010FF00FF101097
:101BB600F010F0141414FC001414F700FF0000FFDA
:101BC60000FF1414F404FC141417101F10101F1037
:101BD6001F1414141F00101010F0000000001F1036
:101BE6001010101F10101010F010000000FF101041
:101BF60010101010101010FF10000000FF1400004D
:101C0600FF00FF00001F10170000FC04F414141757
:101C160010171414F404F40000FF00F7141414143D
:101C2600141414F700F7141414171410101F101FAF
:101C3600141414F4141010F010F000001F101F00FC
:101C460000001F14000000FC140000F010F010103B
:101C5600FF10FF141414FF141010101F00000000D2
:101C6600F010FFFFFFFFFFF0F0F0F0F0FFFFFF00C6
:101C760000000000FFFF0F0F0F0F0F3844443844D9
:101C8600FC4A4A4A347E02020606027E027E02634D
:101C9600554941633844443C04407E201E200602D8
:101CA6007E020299A5E7A5991C2A492A1C4C7201B5
:101CB600724C304A4D4D303048784830BC625A46F6
:101CC6003D3E494949007E0101017E2A2A2A2A2AE7
:101CD60044445F444440514A444040444A514000D1
:101CE60000FF0103E080FF000008086B6B08361256
:101CF600362436060F090F060000181800000010DB
:101D060010003040FF0101001F01011E00191D17C0
:101D160012003C3C3C3C00000000003134374532A8
:101D2600353830333639464142434457656C636F24
:101D36006D650A004543454E2D343333300A005253
:101D46006F746174696F6E203000526F74617469CC
:101D56006F6E203100526F746174696F6E203200AD
:101D6600526F746174696F6E203300456E746572CC
:101D7600206279746520746F20636865636B0A005E
:101D8600496E2070726F67726573732E2E2E0A006D
:101D96004D656D6F727920636865636B2066616956
:101DA6006C65640A0053756363657373210A00509A
:101DB60072657373203120666F72206D656E7500D3
:101DC600456E74657220627974650A00456E7465A5
:101DD6007220616464726573730A00496E207072C2
:101DE6006F67726573730A0020666574636865645D
:101DF600210A53756363657373210A00436865633B
:101E06006B206661696C65640A00507265737320A5
:101E16003120666F72206D656E750A00456E7465B9
:101E260072207374617274206164642E0A00456EB8
:101E36007465722073697A650A00456E746572204E
:101E4600746172676574206164642E0A004D6F7652
:101E56006520696E2070726F67726573732E2E2E01
:101E66000A00446F6E65210A003A2000456E7465CB
:101E760072206E657720627974653A0A00456E7441
:101E8600657220616464726573733A0A0050726504
:101E96007373203220746F206564697420616761F2
:101EA600696E0A005072657373203320746F206563
:101EB600646974206E6578742061646472657373F6
:101EC6000A00456E74657220626C6F636B207369DD
:101ED6007A653A0A00456E746572206279746520E7
:101EE600746F20636F756E743A0A0054656D706581
:101EF6007261747572653A20005072657373203092
:101F060020666F72206D656E750A004C696768748D
:101F1600206C6576656C3A20004272616E646F6E65
:101F260020436C696E650A004543454E20343333C1
:101F3600300A00313A204261736963206368656341
:101F46006B0A00323A2044756D700A00333A20431A
:101F56006865636B0A00413A204D6F76650A003466
:101F66003A20456469740A00353A2046696E640A67
:101F760000363A20436F756E740A00423A20546563
:101F86006D70657261747572650A00373A204C6926
:051F96006768740A00F9
:101705007A10E4FBFCE58225E0F582E58333F58379
:10171500EB33FBEC33FCEB9508F5F0EC9509400653
:09172500FCABF0438201DADD2285
:06003500E478FFF6D8FD9F
:100013007900E94400601B7A00901F9B780475A067
:1000230000E493F2A308B8000205A0D9F4DAF2754C
:02003300A0FF2C
:10172E00E5828508F0A4C582C0F08509F0A4D0F04A
:10173E0025F0C5838508F0A42583F58322E50845A9
:10174E000960467A01E50825E0F508E509334012FF
:10175E00F509E5829508E583950940030A80E6C3FD
:10176E00E50913F509E50813F508C3E5829508F5B3
:10177E00F0E58395094005F58385F082C3E50913ED
:0A178E00F509E50813F508DAE12279
:10003B007800E84400600A790175A000E4F309D860
:10004B00FC7803E84400600C7901900001E4F0A314
:04005B00D8FCD9FAFA
:0D000600758173121822E582600302000369
:1017980020F71430F6148883A88220F507E6A8837A
:1017A80075830022E280F7E49322E022C2D5E58324
:1017B80030E70DD2D5E4C39582F582E49583F583AD
:1017C800E50930E70BE4C39508F508E49509F50940
:1017D80012174B30D50BE4C39582F582E49583F557
:1017E8008322C2D5E58330E70DD2D5E4C39582F5CF
:1017F80082E49583F583E50930E70DB2D5E4C39516
:1018080008F508E49509F50912170530D50BE4C366
:0E1818009582F582E49583F583227582002285
:00000001FF
