:03000000020006F5
:03005F0002000399
:030003000200C830
:2000620028112141122242142444818284884818F599C007C006C0017F04E47401F590F550
:200082000CE590600723DFF5EFE480EF7E047410F590F50BE590600323DEF5E50B450CF5AE
:2000A2000DD001D006D007E59911AE22750A00900062E493C3950D6005A3050A80F4850AED
:0B00C20082228582822212006280FBF5
:06003500E478FFF6D8FD9F
:200013007900E94400601B7A009000D1780175A000E493F2A308B8000205A0D9F4DAF275C2
:02003300A0FF2C
:20003B007800E84400600A790175A000E4F309D8FC7800E84400600C7900900001E4F0A3C3
:04005B00D8FCD9FAFA
:0D0006007581071200CDE582600302000342
:0400CD007582002216
:00000001FF
