:03000000020006F5
:10005F007521317522347523377524457525327511
:10006F002635752738752830752933752A36752B3F
:10007F0039752C46752D41752E42752F43753044B9
:0F008F00753300753440753500753680020003F7
:03000300020FC128
:10009E00AE82AF83D2B48E828F83E508F0C2B422D3
:1000AE00AE82AF837C007D008C028D03C3EA9EEB93
:1000BE0064808FF063F08095F050147AE87B031A19
:1000CE00BAFF011BEA4B70F70CBC00DC0D80D92285
:1000DE00AF82C2B5D2B4853382853483EFF0C2B419
:1000EE00D2B5D2B4853382853483E508F0C2B4220A
:1000FE00AE82AF838F05C2B5D2B485338285348389
:10010E00EDF0C2B4C2B5D2B4853382853483EEF03D
:10011E00C2B4AF09AE08D2B5D2B5D2B4853382859A
:10012E003483EFF0C2B4D2B5D2B485338285348332
:10013E00EEF0C2B42285823985833A85083B850963
:10014E003C2285823F85834085084185094222E510
:10015E0082FF24F7500122EF60068F067F00800495
:10016E007E017F008E3D22E582FF24FC404EEF2F64
:10017E009001827380068014802280307F48754300
:10018E00F07544007545F0754600803E7F28754336
:10019E00F07544007545F0754600802E7F887543D6
:1001AE00F07544007545F0754600801E7FE8754376
:1001BE00F07544007545F0754600800E7F48754316
:1001CE00F07544007545F07546008F08758236024D
:1001DE0000DEAE82AF83C2B5D2B48533828534835E
:1001EE00742AF0C2B4D2B5D2B48533828534838FEB
:1001FE0005EDF0C2B4D2B5D2B4853382853483EE28
:10020E00F0C2B4D2B5D2B4853382853483E50BF017
:10021E00C2B4D2B5D2B4853382853483E50AF0C236
:10022E00B4C2B5D2B4853382853483742BF0C2B494
:10023E00D2B5D2B4853382853483E509F0C2B4D207
:10024E00B5D2B4853382853483E508F0C2B4D2B515
:10025E00D2B4853382853483E50DF0C2B4D2B5D2E3
:10026E00B4853382853483E50CF0C2B4227543F035
:10027E007544007545F0754600C2B4D2B5C2B5D20C
:10028E00B4853382853483E4F0C2B4D2B5D2B4855A
:10029E003382853483E4F0C2B4D2B5D2B4853382CE
:1002AE00853483E4F0C2B4D2B5D2B48533828534BA
:1002BE0083E4F0C2B49000C81200AE7508007582D7
:1002CE00011200DE9000321200AE75080075822811
:1002DE001200DE90000A1200AE7508237582C0125D
:1002EE0000DE7508117582C11200DEC2B5D2B4856A
:1002FE00338285348374C5F0C2B4D2B5D2B485339B
:10030E0082853483743DF0C2B4D2B5D2B4853382C3
:10031E008534837430F0C2B47508AA7582C7120092
:10032E00DE7508887582361200DEC2B5D2B485330A
:10033E0082853483743AF0C2B4D2B5D2B485338296
:10034E008534837455F0C2B4D2B5D2B48533828568
:10035E003483E4F0C2B475081B7509009000B11225
:10036E0000FE7508077582B71200DE7508007582EB
:10037E00111200DE9000961200AE750800758229EB
:10038E001200DE9001F41200AEAE43AF441EBEFF6B
:10039E00011F8E0A8F0BAE45AF461EBEFF011F8E8C
:1003AE000C8F0DE4F508F5099000000201E0AE8215
:1003BE00AF838E048F050CBC00010D8C0A8D0BAC27
:1003CE0047AD480CBC00010D8C0C8D0D8547088582
:1003DE0048098E828F831201E0C2B5D2B485338272
:1003EE00853483742CF0C2B4D2B5D2B485338285F1
:1003FE003483E54AF0C2B4D2B4853382853483E5C2
:10040E0049F0C2B4228582518583527401C3954D41
:10041E00FCE4954EFD8C538D54854D08854E099008
:10042E00FFFE120FEFAA82AB83A84DA94EE54D2514
:10043E004BF547E54E354CF548854F4985504A8575
:10044E005182855283C003C002C001C0001203BC9A
:10045E00E54BC3954DF547E54C954EF548854F490F
:10046E0085504A8551828552831203BCE54D255134
:10047E00F582E54E3552F583854B47854C48854FC1
:10048E004985504A1203BCE551C3954DF582E5529C
:10049E00954EF583854B47854C48854F4985504A87
:1004AE001203BCD000D001D002D003E4F557F558AA
:1004BE00755501F556C3E55798E558648089F06384
:1004CE00F08095F0400122E55420E71618B8FF01A0
:1004DE001974022AFAE43BFBEA2553F553EB355423
:1004EE00F554C002C0030557E4B55702055874020F
:1004FE002555F555E43556F556E5552553F553E591
:10050E00563554F554AC51AD52E5572CFEE5583DD9
:10051E00FF8E598F5AAA4BAB4CE82AFEE93BFF8E51
:10052E005B8F5C855B47855C48854F4985504A8566
:10053E005982855A83C005C004C003C002C001C0E1
:10054E00001203BCD000D001D002D003D004D005DD
:10055E00ECC39557FEED9558FF8E5D8F5E855B471C
:10056E00855C48854F4985504A855D82855E83C08E
:10057E0005C004C003C002C001C0001203BCD000FD
:10058E00D001D002D003D004D005EAC398FEEB9977
:10059E00FF8E478F48854F4985504A855982855A27
:1005AE0083C007C006C005C004C003C002C001C09E
:1005BE00001203BCD000D001D002D003D004D0056D
:1005CE00D006D0078E478F48854F4985504A855DA6
:1005DE0082855E83C005C004C003C002C001C00096
:1005EE001203BCD000D001D002D003D004D005E855
:1005FE002CFEE93DFF8E5D8F5EE5572AFEE5583BEA
:10060E00FF8E478F48854F4985504A855D82855EAE
:10061E0083C007C006C005C004C003C002C001C02D
:10062E00001203BCD000D001D002D003D004D005FC
:10063E00D006D007ECC398FCED99FD8E478F488508
:10064E004F4985504A8C828D83C005C004C003C0BB
:10065E0002C001C0001203BCD000D001D002D003F2
:10066E00EAC39557FAEB9558FB8A478B48854F4955
:10067E0085504A855D82855E83C003C002C001C07D
:10068E00001203BCD000D001D002D003D004D0059C
:10069E008A478B48854F4985504A8C828D83C0038B
:1006AE00C002C001C0001203BCD000D001D002D0E5
:1006BE0003D003D0020204C3AF828F057E00ED2D5E
:1006CE00FBEE33FCA943AA44ED29F561EE3AF5623F
:1006DE00A845AA46ED28F563EE3AF56479007A004E
:1006EE00C3E99561EA64808562F063F08095F0500D
:1006FE005778007E00C3E89563EE64808564F063EE
:10070E00F08095F0503A89828A83884B8E4C8F4DBB
:10071E00754E00855F4F856050C007C006C004C08F
:10072E0003C002C001C000120413D000D001D002D9
:10073E00D003D004D006D007EB28F8EC3EFE80B5EF
:10074E00EB29F9EC3AFA809822AE82AF838E048FB1
:10075E0005C3EC94F0ED9400500DAC65AD66C3ECA2
:10076E0094F0ED9400400122E5672EFCE5683FFD14
:10077E001CBCFF011DC3EC94F0ED9400400A74F014
:10078E00C39EF567E49FF568E5692565FCE56A3566
:10079E0066FD1CBCFF011DC3EC94F0ED9400400CF3
:1007AE0074F0C39565F569E49566F56AE5672EFC08
:1007BE00E5683FFD1CBCFF011D8C0A8D0BE569250C
:1007CE0065FCE56A3566FD1CBCFF011D8C0C8D0DAC
:1007DE008565088566098E828F831201E0C2B5D2C7
:1007EE00B4853382853483742CF0C2B4D2B5AF6C29
:1007FE00AD69AE6AED4E6030AB67AC68EB4C602114
:10080E00D2B4853382853483EFF0C2B4D2B485334B
:10081E0082853483E56BFAF0C2B41BBBFF011C80EA
:10082E00DB1DBDFF011E80CC22AE82AF838F05E49F
:10083E00F508F509750AEFF50B750CEFF50D90003F
:10084E0000C006C0051201E0D005D006C2B5D2B474
:10085E00853382853483742CF0C2B4D2B5D2B4857C
:10086E003382853483EDF0C2B4D2B48533828534BD
:10087E0083EEF0C2B47C847F038C028F031CBCFF1A
:10088E00011FEA4B60667B10D2B4853382853483B8
:10089E00EDF0C2B4D2B4853382853483EEF0C2B4A7
:1008AE00D2B4853382853483EDF0C2B4D2B48533AD
:1008BE0082853483EEF0C2B4D2B48533828534831C
:1008CE00EDF0C2B4D2B4853382853483EEF0C2B477
:1008DE00D2B4853382853483EDF0C2B4D2B485337D
:1008EE0082853483EEF0C2B4DB9E808D7F3F8F0411
:1008FE001FEC601AD2B4853382853483EDF0C2B416
:10090E00D2B4853382853483EEF0C2B480E022AE59
:10091E0082AF83C3EE94F0EF648094805067AC6D29
:10092E00AD6EC3EC94F0ED648094805058AA747B45
:10093E00008A088B09900006C007C006C005C004D7
:10094E00C003C002120FEFA882A983D002D003D039
:10095E0004D005D006D007E82EF8E93FF918B8FF05
:10096E000119E920E71FEBC40354F8CAC403CA6A8D
:10097E00CA54F8CA6AFBEA2CFAEB3DFB1ABAFF011D
:10098E001BEB30E701227401B5740474018001E49D
:10099E00FBFAE570B57208E571B57303D38001C338
:1009AE009200757500C3E5756480948640012274CB
:1009BE0005B575057576008047C002856F08750907
:1009CE0000900005C007C006C005C004C003120F8A
:1009DE00EFA982AA83D003D004D005D006D007E9B0
:1009EE0024E7F578EA3410F579E575F93395E0FAF0
:1009FE00E92578F582EA3579F583E493F576D00228
:100A0E00C2D58574F0E57530E704B2D5F404A43090
:100A1E00D50AF42401C5F0F43400C5F02EF578EFB4
:100A2E0035F0F57985787A85797B757700C3E5772A
:100A3E00648094884003020BA6E57620E003020A48
:100A4E00F4EB6046E575F83395E0F9E82EF8E93FEA
:100A5E00F988828983E577F83395E0F9E82CF8E98F
:100A6E003DF98847894885704985714AC007C00697
:100A7E00C005C004C003C0021203BCD002D003D014
:100A8E0004D005D006D007020B9B857A82857B8326
:100A9E00C2D58574F0E57730E704B2D5F404A430FE
:100AAE00D50AF42401C5F0F43400C5F02CF8ED3568
:100ABE00F0F988658966A8747900886789688869FD
:100ACE00896A85706B85716CC007C006C005C0044D
:100ADE00C003C002120757D002D003D004D005D0F5
:100AEE0006D007020B9B300003020B9BEA6045E524
:100AFE0075F83395E0F9E82EF8E93FF98882898395
:100B0E00E577F83395E0F9E82CF8E93DF98847895F
:100B1E004885724985734AC007C006C005C004C027
:100B2E0003C0021203BCD002D003D004D005D006FD
:100B3E00D0078059857882857983C2D58574F0E592
:100B4E007730E704B2D5F404A430D50AF42401C5F5
:100B5E00F0F43400C5F02CF8ED35F0F988658966AF
:100B6E00A8747900886789688869896A85726B8537
:100B7E00736CC007C006C005C004C003C0021207D4
:100B8E0057D002D003D004D005D006D007E576C3E7
:100B9E0013F5760577020A3B05750209B3AF82BFDE
:100BAE000A26AD3DE4C40354F8CDC403CD6DCD5437
:100BBE00F8CD6DFEAB3BAC3CED2BFBEE3CFC8B3B2A
:100BCE008C3CE4F539F53A22BF0D0122853B6D854B
:100BDE003C6E8F6F853F7085407185417285427383
:100BEE00853D74853982853A8312091D853D0875C8
:100BFE000900900006120FEFAE82AF83AC39AD3A0A
:100C0E00EE2CFCEF3DFD8C398D3A22AD82AE83AFDA
:100C1E00F07B007C00EB2DF8EC3EF98F0288828988
:100C2E00838AF0121059FA60208A82C007C006C06B
:100C3E0005C004C003120BABD003D004D005D00600
:100C4E00D0070BBB00CF0C80CC22AF827B007C0088
:100C5E007D007E00C2B48B828C83EFF0D2B40BBBCE
:100C6E0000090CBC00050DBD00010EC3EB94FFEC9A
:100C7E0094FFED9400EE940040DA227F00BF080E40
:100C8E007F0075820AC007120BABD007800AC0071F
:100C9E00120CA9120BABD0070F80E27590F0759075
:100CAE00F08590315331F074F0B531F2900014129A
:100CBE0000AEE59054F0F53174F0B5310280ED9050
:100CCE0000011200AEE59054F0F53174F0B531022A
:100CDE0080DA7590FEE59054F0F53174F0B531027E
:100CEE008005753200803D7590FDE59054F0F5312C
:100CFE0074F0B53102800575320180287590FBE5E0
:100D0E009054F0F53174F0B53102800575320280E1
:100D1E00137590F7E59054F0F53174F0B53102800B
:100D2E00B175320374E0B5310CE532253225E0247D
:100D3E0021F987822274D0B5310DE532253225E0B6
:100D4E00242104F987822274B0B5310EE5322532A2
:100D5E0025E024212402F9878222E532253225E07E
:100D6E0024212403F9878222AF827D007E00BF01F9
:100D7E0000405F8F037C0075080A8C098B828C8380
:100D8E00C006C005C004C003121075A982AA83D084
:100D9E0003D00475080A7509008B828C83C002C0CB
:100DAE00011210ABAB82D001D002D005D0068B075A
:100DBE008D088E0990000AC007C002C001120FEF05
:100DCE00AB82AC83D001D002D007E92BFDEA3CFE0A
:100DDE00809C8D828E8322120D76AE82AF838E041E
:100DEE008F05C3EC9401ED9400404275080A750915
:100DFE00008C828D83C005C00412100CAA82D00410
:100E0E00D00575080A7509008C828D83C002120FF9
:100E1E00C6AC82AD83D0028C068D0774302AF58263
:100E2E00C007C006120BABD006D00780B175820A80
:100E3E00020BABAF82757C00757D007E00BF01009A
:100E4E00405A8F047D00740F5CFA7508108D098C62
:100E5E00828D83C006C0021210ABAC82D002D006C7
:100E6E008C07EA24F6400CEE247CF98A0574302DAA
:100E7E00F78026EE247CF97D0075080A8D098A829A
:100E8E008D83C007C006C001121075AC82AD83D031
:100E9E0001D006D00774412CF70E80A1857D8212F9
:100EAE000BAB857C82020BAB90F8001208379000DA
:100EBE00141200AE9007E01208379000141200AE24
:100ECE00758200120175900000120837755F00756B
:100EDE0060F87582141206C69000641200AE90007F
:100EEE000012083775820512015DE4F508F50990C8
:100EFE0007FF1201509015E275F080120C197582E1
:100F0E000312015D9015EB75F080120C199015F619
:100F1E0075F080120C199000C81200AE90000012ED
:100F2E000837758201120175E4F508F50990000085
:100F3E0012014390160175F080120C199001F412F3
:100F4E0000AE900000120837758202120175E4F5AA
:100F5E0008F50990000012014390160C75F08012EE
:100F6E000C199001F41200AE900000120837758231
:100F7E0003120175E4F508F5099000001201439083
:100F8E0000C81200AE90161775F080120C19900062
:100F9E00C80200AE120CA98582E03F065B4F666D5B
:100FAE007D077F6F777C395E7971900FA893F580FE
:080FBE0080F822120FA280FE50
:1010E70000000000003E5B4F5B3E3E6B4F6B3E1CBB
:1010F7003E7C3E1C183C7E3C181C577D571C1C5ED2
:101107007F5E1C00183C1800FFE7C3E7FF001824A8
:101117001800FFE7DBE7FF30483A060E2629792952
:1011270026407F050507407F05253F5A3CE73C5A87
:101137007F3E1C1C08081C1C3E7F14227F22145F64
:101147005F005F5F06097F017F006689956A6060BF
:1011570060606094A2FFA29408047E040810207EB9
:10116700201008082A1C08081C2A08081E1010103E
:10117700100C1E0C1E0C30383E3830060E3E0E0684
:10118700000000000000005F0000000700070014D7
:101197007F147F14242A7F2A122313086462364996
:1011A7005620500008070300001C2241000041227E
:1011B7001C002A1C7F1C2A08083E08080080703083
:1011C70000080808080800006060002010080402F2
:1011D7003E5149453E00427F4000724949494621F8
:1011E70041494D331814127F1027454545393C4A6C
:1011F7004949314121110907364949493646494983
:10120700291E0000140000004034000000081422CA
:101217004114141414140041221408020159090638
:101227003E415D594E7C1211127C7F494949363E39
:10123700414141227F4141413E7F494949417F091F
:101247000909013E414151737F0808087F00417F2A
:1012570041002040413F017F081422417F40404028
:10126700407F021C027F7F0408107F3E4141413EC0
:101277007F090909063E4151215E7F091929462642
:101287004949493203017F01033F4040403F1F2046
:1012970040201F3F4038403F63140814630304781D
:1012A70004036159494D43007F414141020408103D
:1012B70020004141417F0402010204404040404078
:1012C700000307080020545478407F2844443838E6
:1012D70044444428384444287F3854545418000858
:1012E7007E090218A4A49C787F0804047800447D32
:1012F70040002040403D007F1028440000417F40CF
:10130700007C047804787C08040478384444443822
:10131700FC1824241818242418FC7C080404084802
:101327005454542404043F44243C4040207C1C2053
:1013370040201C3C4030403C44281028444C9090AE
:10134700907C4464544C4400083641000000770008
:1013570000004136080002010204023C2623263C15
:101367001EA1A161123A4040207A385454555921A0
:101377005555794122545478422155547840205488
:101387005579400C1E5272123955555559395454D6
:10139700545939555454580000457C410002457D45
:1013A700420001457C407D1211127DF0282528F06E
:1013B7007C545545002054547C547C0A097F49329B
:1013C700494949323A4444443A324A4848303A4112
:1013D70041217A3A42402078009DA0A07D3D4242BB
:1013E700423D3D4040403D3C24FF2424487E494344
:1013F700662B2FFC2F2BFF0929F620C0887E0903B7
:1014070020545479410000447D413048484A3238DD
:101417004040227A007A0A0A727D0D19317D262909
:10142700292F28262929292630484D402038080801
:10143700080808080808382F10C8ACBA2F10283435
:10144700FA00007B000008142A142222142A140828
:10145700AA005500AAAA55AA55AA000000FF001025
:101467001010FF00141414FF001010FF00FF1010DD
:10147700F010F0141414FC001414F700FF0000FF20
:1014870000FF1414F404FC141417101F10101F107D
:101497001F1414141F00101010F0000000001F107C
:1014A7001010101F10101010F010000000FF101087
:1014B70010101010101010FF10000000FF14000093
:1014C700FF00FF00001F10170000FC04F41414179E
:1014D70010171414F404F40000FF00F71414141484
:1014E700141414F700F7141414171410101F101FF6
:1014F700141414F4141010F010F000001F101F0043
:1015070000001F14000000FC140000F010F0101081
:10151700FF10FF141414FF141010101F0000000018
:10152700F010FFFFFFFFFFF0F0F0F0F0FFFFFF000C
:1015370000000000FFFF0F0F0F0F0F38444438441F
:10154700FC4A4A4A347E02020606027E027E026393
:10155700554941633844443C04407E201E2006021E
:101567007E020299A5E7A5991C2A492A1C4C7201FB
:10157700724C304A4D4D303048784830BC625A463C
:101587003D3E494949007E0101017E2A2A2A2A2A2D
:1015970044445F444440514A444040444A51400017
:1015A70000FF0103E080FF000008086B6B0836129C
:1015B700362436060F090F06000018180000001021
:1015C70010003040FF0101001F01011E00191D1707
:1015D70012003C3C3C3C000000000057656C636F08
:1015E7006D650A004543454E2D343333300A0052AA
:1015F7006F746174696F6E203000526F7461746923
:101607006F6E203100526F746174696F6E20320003
:0B161700526F746174696F6E20330025
:100FC6007A10E4FBFCE58225E0F582E58333F583C0
:100FD600EB33FBEC33FCEB9508F5F0EC950940069A
:090FE600FCABF0438201DADD22CC
:06003500E478FFF6D8FD9F
:100013007900E94400601B7A00901622780175A0EC
:1000230000E493F2A308B8000205A0D9F4DAF2754C
:02003300A0FF2C
:100FEF00E5828508F0A4C582C0F08509F0A4D0F091
:100FFF0025F0C5838508F0A42583F58322E50845F0
:10100F000960467A01E50825E0F508E50933401245
:10101F00F509E5829508E583950940030A80E6C343
:10102F00E50913F509E50813F508C3E5829508F5F9
:10103F00F0E58395094005F58385F082C3E5091333
:0A104F00F509E50813F508DAE122BF
:10003B007800E84400600A790175A000E4F309D860
:10004B00FC7800E84400600C7900900001E4F0A318
:04005B00D8FCD9FAFA
:0D00060075817D1210E3E5826003020003A6
:1010590020F71430F6148883A88220F507E6A883C0
:1010690075830022E280F7E49322E022C2D5E5836A
:1010790030E70DD2D5E4C39582F582E49583F583F3
:10108900E50930E70BE4C39508F508E49509F50986
:1010990012100C30D50BE4C39582F582E49583F5E3
:1010A9008322C2D5E58330E70DD2D5E4C39582F515
:1010B90082E49583F583E50930E70DB2D5E4C3955C
:1010C90008F508E49509F509120FC630D50BE4C3F4
:0E10D9009582F582E49583F5832275820022CC
:00000001FF
