:04000000020029329F
:01000B0032C2
:0100130032BA
:01001B0032B2
:030023000200A236
:1000820075210075220075250075264075270075BB
:100092002880752900752AC0E4F52BF52C0200266C
:03002600021EF3C4
:1000A200309808859921C298752201327598507549
:1000B2008920758DFDD28ED2ACD2AF228582991065
:1000C200990280FB22AE82AF83D2B48E828F83E507
:1000D20008F0C2B422AE82AF83D2B48E828F83E0A4
:1000E200FEC2B48E8222AE82AF837C007D008C027F
:1000F2008D03C3EA9EEB64808FF063F08095F0502D
:10010200147AE87B031ABAFF011BEA4B70F70CBCA6
:1001120000DC0D80D922AF82C2B5D2B4852582859A
:100122002683EFF0C2B4D2B5D2B485258285268368
:10013200E508F0C2B422AE82AF838F05C2B5D2B455
:10014200852582852683EDF0C2B4C2B5D2B4852559
:1001520082852683EEF0C2B4AF09AE08D2B5D2B51D
:10016200D2B4852582852683EFF0C2B4D2B5D2B44B
:10017200852582852683EEF0C2B42285822F85836F
:100182003085083185093222858235858336850896
:100192003785093822E582FF24F7500122EF6006F5
:1001A2008F067F0080047E017F008E3322E582FF6E
:1001B20024FC406AEF2F9001BC738006801B8030C4
:1001C20080457F4890000174F0F0E4A3F0900003B2
:1001D2007440F07401A3F0805A7F289000017440AB
:1001E200F07401A3F090000374F0F0E4A3F08043F4
:1001F2007F8890000174F0F0E4A3F0900003744053
:10020200F07401A3F0802C7FE89000017440F07438
:1002120001A3F090000374F0F0E4A3F080157F488E
:1002220090000174F0F0E4A3F09000037440F074C5
:1002320001A3F08F08758236020118AE82AF83C225
:10024200B5D2B4852582852683742AF0C2B4D2B58C
:10025200D2B48525828526838F05EDF0C2B4D2B54E
:10026200D2B4852582852683EEF0C2B4D2B5D2B44B
:10027200852582852683E50BF0C2B4D2B5D2B4853A
:100282002582852683E50AF0C2B4C2B5D2B485259B
:1002920082852683742BF0C2B4D2B5D2B48525826E
:1002A200852683E509F0C2B4D2B5D2B4852582850C
:1002B2002683E508F0C2B4D2B5D2B485258285265C
:1002C20083E50DF0C2B4D2B5D2B4852582852683EA
:1002D200E50CF0C2B42290000174F0F0E4A3F090B7
:1002E20000037440F07401A3F0C2B4D2B5C2B5D217
:1002F200B4852582852683E4F0C2B4D2B5D2B48512
:100302002582852683E4F0C2B4D2B5D2B485258293
:10031200852683E4F0C2B4D2B5D2B485258285267F
:1003220083E4F0C2B49000C81200E8750800758238
:10033200011201189000321200E875080075822837
:1003420012011890000A1200E87508237582C01283
:1003520001187508117582C1120118C2B5D2B4858F
:10036200258285268374C5F0C2B4D2B5D2B4852560
:1003720082852683743DF0C2B4D2B5D2B48525827B
:100382008526837430F0C2B47508AA7582C712013B
:1003920018750888758236120118C2B5D2B485253F
:1003A20082852683743AF0C2B4D2B5D2B48525824E
:1003B2008526837455F0C2B4D2B5D2B48525828520
:1003C2002683E4F0C2B475081B7509009000B112CF
:1003D20001387508077582B7120118750800758211
:1003E200111201189000961200E875080075822912
:1003F2001201189001F41200E8900001E0FEA3E05F
:10040200FF1EBEFF011F8E0A8F0B900003E0FEA3AA
:10041200E0FF1EBEFF011F8E0C8F0DE4F508F509EB
:1004220090000002023DAE82AF838E048F050CBCA9
:1004320000010D8C0A8D0BAC39AD3A0CBC00010DDC
:100442008C0C8D0D853908853A098E828F831202B4
:100452003DC2B5D2B4852582852683742CF0C2B400
:10046200D2B5D2B4852582852683E53CF0C2B4D2CA
:10047200B4852582852683E53BF0C2B4228582437A
:100482008583447401C3953FFCE49540FD900005CB
:10049200ECF0EDA3F0853F0885400990FFFE121FA6
:1004A200B2AC82AD83AA3FAB40E53F253DF539E5CD
:1004B20040353EF53A85413B85423C854382854441
:1004C20083C005C004C003C002120428E53DC395E1
:1004D2003FF539E53E9540F53A85413B85423C85FD
:1004E2004382854483120428E53F2543F582E54093
:1004F2003544F583853D39853E3A85413B85423C0D
:10050200120428E543C3953FF582E5449540F583FF
:10051200853D39853E3A85413B85423C120428D0CF
:1005220002D003D004D005780079007545018946D0
:10053200C3E89AE964808BF063F08095F040012271
:10054200900005E0F547A3E0F54820E7181ABAFF46
:10055200011B74022CFCE43DFD900005EC2547F0E4
:10056200ED3548A3F0C004C00508B80001097402C3
:100572002545F545E43546F546900005E0FEA3E045
:10058200FF900005E5452EF0E5463FA3F0AE43AFF0
:1005920044E82EFCE93FFD8C478D48853D49853E68
:1005A2004AEA2549FCEB354AFD8C4B8D4C854B398B
:1005B200854C3A85413B85423C854782854883C0CC
:1005C20007C006C005C004C003C002C001C00012BB
:1005D2000428D000D001D002D003D004D005D00628
:1005E200D007EEC398FCEF99FD8C4D8D4E854B39AB
:1005F200854C3A85413B85423C854D82854E83C080
:1006020007C006C005C004C003C002C001C000127A
:100612000428D000D001D002D003D004D005E5498F
:10062200C39AFCE54A9BFD8C398D3A85413B854254
:100632003C854782854883C005C004C003C002C010
:1006420001C000120428D000D001D002D003D0048F
:10065200D0058C398D3A85413B85423C854D82855A
:100662004E83C005C004C003C002C001C000120412
:1006720028D000D001D002D003D004D005D006D0BB
:1006820007EA2EFCEB3FFD8C4D8D4EE82549FCE937
:10069200354AFD8C398D3A85413B85423C854D82F8
:1006A200854E83C007C006C005C004C003C002C097
:1006B20001C000120428D000D001D002D003D0041F
:1006C200D005D006D007EEC39AFEEF9BFF8C398D82
:1006D2003A85413B85423C8E828F83C007C006C06B
:1006E20005C004C003C002C001C000120428D0002B
:1006F200D001D002D003D004D005E549C398FCE56F
:100702004A99FD8C398D3A85413B85423C854D8223
:10071200854E83C005C004C003C002C001C00012E0
:100722000428D000D001D002D003D004D005D006D6
:10073200D0078C398D3A85413B85423C8E828F832E
:10074200C005C004C003C002C001C000120428D00A
:1007520000D001D002D003D004D005D005D00402CD
:100762000532858251AD517E00ED2DFBEE33FC90BA
:100772000001E0F9A3E0FAED29F9EE3AFA9000035C
:10078200E0FFA3E0F8ED2FFFEE38FE900007E4F063
:10079200A3F0900007E0F8A3E0FDC3E899ED6480C0
:1007A2008AF063F08095F0400122900009E4F0A302
:1007B200F0900009E0F552A3E0F553C3E5529FE53E
:1007C2005364808EF063F08095F0504788828D8369
:1007D20085523D85533E85513F754000854F418589
:1007E2005042C007C006C005C004C003C002C00119
:1007F200C00012047FD000D001D002D003D004D0B8
:1008020005D006D007900009EB2552F0EC3553A332
:10081200F0809E900007E0F8A3E0FD900007EB282F
:10082200F0EC3DA3F0020794AE82AF838E048F05F5
:10083200C3EC94F0ED9400500DAC54AD55C3EC9460
:1008420040ED9401400122E5562EFCE5573FFD1C88
:10085200BCFF011DC3EC94F0ED9400400A74F0C398
:100862009EF556E49FF557E5582554FCE559355554
:10087200FD1CBCFF011DC3EC9440ED9401400D74BE
:1008820040C39554F55874019555F559E5562EFC1B
:10089200E5573FFD1CBCFF011D8C0A8D0BE5582559
:1008A20054FCE5593555FD1CBCFF011D8C0C8D0D0A
:1008B2008554088555098E828F8312023DC2B5D2B6
:1008C200B4852582852683742CF0C2B4D2B5AF5B81
:1008D200AD58AE59ED4E6030AB56AC57EB4C602183
:1008E200D2B4852582852683EFF0C2B4D2B48525A1
:1008F20082852683E55AFAF0C2B41BBBFF011C8035
:10090200DB1DBDFF011E80CC22AE82AF838F05E4CA
:10091200F508F509750AEFF50B750C3F750D019099
:100922000000C006C00512023DD005D006C2B5D2F5
:10093200B4852582852683742CF0C2B4D2B5D2B494
:10094200852582852683EDF0C2B4D2B485258285C1
:100952002683EEF0C2B47CB07F048C028F031CBCF1
:10096200FF011FEA4B60667B10D2B4852582852683
:1009720083EDF0C2B4D2B4852582852683EEF0C21F
:10098200B4D2B4852582852683EDF0C2B4D2B48573
:100992002582852683EEF0C2B4D2B48525828526CF
:1009A20083EDF0C2B4D2B4852582852683EEF0C2EF
:1009B200B4D2B4852582852683EDF0C2B4D2B48543
:1009C2002582852683EEF0C2B4DB9E808D7F3F8F29
:1009D200041FEC601AD2B4852582852683EDF0C20D
:1009E200B4D2B4852582852683EEF0C2B480E0229B
:1009F200AE82AF83C3EE94F0EF648094805067AC14
:100A02005CAD5DC3EC9440ED648094815058AA6360
:100A12007B008A088B09900006C007C006C005C08B
:100A220004C003C002121FB2A882A983D002D0035D
:100A3200D004D005D006D007E82EF8E93FF918B85F
:100A4200FF0119E920E71FEBC40354F8CAC403CA23
:100A52006ACA54F8CA6AFBEA2CFAEB3DFB1ABAFFDF
:100A6200011BEB30E701227401B5630474018001BC
:100A7200E4FB8B6AE55FB56108E560B56203D3808C
:100A820001C392007900B9050790000BE4F0804998
:100A9200855E08750900900005C007C006C005C044
:100AA20004C003C001121FB2A882AA83D001D003DE
:100AB200D004D005D006D007E824AAF564EA342091
:100AC200F565E9F83395E0FAE82564F582EA3565DB
:100AD200F583E493FA90000BF0C2D58563F0E93018
:100AE200E704B2D5F404A430D50AF42401C5F0F425
:100AF2003400C5F02EF564EF35F0F56589008564A4
:100B020066856567896875690090000BE020E003DF
:100B1200020BCAEB604EC000E568F83395E0FAE8D4
:100B22002EF8EA3FFA88828A83E569F83395E0FA7B
:100B3200E82CF8EA3DFA88398A3A855F3B85603CC1
:100B4200C007C006C005C004C003C001C000120433
:100B520028D000D001D003D004D005D006D007D0D1
:100B620000020C81C000856682856783C2D58563D9
:100B7200F0E56930E704B2D5F404A430D50AF424D0
:100B820001C5F0F43400C5F02CF8ED35F0FA8854C4
:100B92008A55A8637A0088568A5788588A59855F89
:100BA2005A85605BC007C006C005C004C003C0010F
:100BB200C00012082AD000D001D003D004D005D042
:100BC20006D007D000020C81300003020C81E56AD6
:100BD200604CC003E8FA3395E0FBEA2EFAEB3FFBE8
:100BE2008A828B83E569FA3395E0FBEA2CFAEB3DC6
:100BF200FB8A398B3A85613B85623CC007C006C0DF
:100C020005C004C003C001C000120428D000D001F6
:100C1200D003D004D005D006D007D0038061C00035
:100C2200856482856583C2D58563F0E56930E70412
:100C3200B2D5F404A430D50AF42401C5F0F434008A
:100C4200C5F02CF8ED35F0FA88548A55A8637A007D
:100C520088568A5788588A5985615A85625BC007C7
:100C6200C006C005C004C003C001C00012082AD0DB
:100C720000D001D003D004D005D006D007D0009018
:100C8200000BE0C313FAF00569C3E5696480948838
:100C92005003020B0B09C3E9648094865003020AD5
:100CA2008822AF82BF0A26AD33E4C40354F8CDC410
:100CB20003CD6DCD54F8CD6DFEAB31AC32ED2BFBD7
:100CC200EE3CFC8B318C32E4F52FF53022BF0D0166
:100CD2002285315C85325D8F5E85355F8536608524
:100CE2003761853862853363852F828530831209A7
:100CF200F2853308750900900006121FB2AE82AF6A
:100D020083AC2FAD30EE2CFCEF3DFD8C2F8D3022CD
:100D1200AD82AE83AFF07B007C00EB2DF8EC3EF9A8
:100D22008F02888289838AF012201CFA60208A82CC
:100D3200C007C006C005C004C003120CA4D003D073
:100D420004D005D006D0070BBB00CF0C80CC22E527
:100D52008290000CF0E0FF7B007C007D007E00C2F0
:100D6200B48B828C83EFF0D2B40BBB00090CBC00B5
:100D7200050DBD00010EC3EB94FFEC94FFED940052
:100D8200EE940040DA2290000DE4F090000DE0FFB6
:100D9200BF080D90000DE4F075820A120CA48006C3
:100DA200120DB1120CA490000DE02401F080DC754C
:100DB20090F07590F08590235323F074F0B523F2F0
:100DC2009000141200E8E59054F0F52374F0B52376
:100DD2000280ED9000011200E8E59054F0F52374D2
:100DE200F0B5230280DA7590FEE59054F0F5237495
:100DF200F0B523028005752400803D7590FDE590D5
:100E020054F0F52374F0B52302800575240180287F
:100E12007590FBE59054F0F52374F0B5230280053C
:100E220075240280137590F7E59054F0F52374F061
:100E3200B5230280B175240374E0B52315E524754A
:100E4200F004A424A5F582742535F0F583E493F526
:100E5200822274D0B52318E52475F004A424A5FEDB
:100E6200742535F0FF8E828F83A3E493F58222747A
:100E7200B0B52319E52475F004A424A5FE74253524
:100E8200F0FF8E828F83A3A3E493F58222E524757B
:100E9200F004A424A5FE742535F0FF8E828F83A36F
:100EA200A3A3E493F58222AF8290000EE4F0A3F0B4
:100EB200BF010040638F057E0075080A8E098D828E
:100EC2008E83C006C005122038AB82AC83D005D019
:100ED20006900010EBF0ECA3F075080A7509008D7E
:100EE200828E8312206EAD828D0790000EE0FDA3EC
:100EF200E0FE8D088E0990000AC007121FB2AD8273
:100F0200AE83D007900010E0FBA3E0FC90000EEB54
:100F12002DF0EC3EA3F0809890000EE0FEA3E08E50
:100F220082F58322E582900012F0E0F582120EA98A
:100F3200E5828583F0900014F0E5F0A3F0900014B0
:100F4200E0FEA3E0FFC3EE9401EF94004042750877
:100F52000A7509008E828F83C007C006121FCFACAC
:100F620082D006D007900013ECF075080A750900CC
:100F72008E828F83121F89AE82AF83900014EEF0AF
:100F8200EFA3F0900013E02430F582120CA480ADA0
:100F920022AF82756B30756C307E00BF0100405A03
:100FA2008F047D00740F5CFA7508108D098C828D98
:100FB20083C006C00212206EAC82D002D0068C071B
:100FC200EA24F6400CEE246BF98A0574302DF78082
:100FD20026EE246BF97D0075080A8D098A828D83BD
:100FE200C007C006C001122038AC82AD83D001D048
:100FF20006D00774412CF70E80A1856C82120CA4D6
:10100200856B82020CA4E582FF24C6920140088F00
:1010120006EE24D0FE800474C92FFE8E822290F840
:101022000012090B9000141200E89007E012090B5D
:101032009000141200E87582001201AF90000012B5
:10104200090B754F007550F87582141207649000F1
:10105200641200E890000012090B758205120197D4
:10106200E4F508F5099007FF12018A9025B575F09D
:1010720080120D127582031201979025BE75F080C1
:10108200120D129025C975F080120D129000C8122F
:1010920000E890000012090B7582011201AFE4F51D
:1010A20008F50990000012017D9025D475F0801298
:1010B2000D129001F41200E890000012090B7582E3
:1010C200021201AFE4F508F50990000012017D90CB
:1010D20025DF75F080120D129001F41200E89000E5
:1010E2000012090B7582031201AFE4F508F50990AD
:1010F200000012017D9000C81200E89025EA75F008
:1011020080120D129000C80200E8900016E4F0A3CD
:10111200F07F00C007120DB1AE82C006120CA4D03F
:10112200068E82121008AE82D007900016E0FCA351
:10113200E0FD7B00900016EE4CF0EB4DA3F0BF03F8
:1011420002801C900016E0FDA3E0C454F0CDC4CD93
:101152006DCD54F0CD6DFE900016EDF0EEA3F00FC4
:10116200BF040040AE900016E0FEA3E08E82F5833D
:1011720022900018E4F07F00C007120DB1AE82C0C9
:1011820006120CA4D0068E82121008AE82D00790EE
:101192000018E04EF0BF01028009900018E0C4542C
:1011A200F0FEF00FBF020040CF900018E0F582225F
:1011B20085826D85836E90D6BA12090BE4F508F527
:1011C2000990000012017D75820212019790001BA6
:1011D200E4F090001AE0FD900019E0F5F0EDA4FBB8
:1011E200ACF090001BE0FAF87900C3E89BE9648058
:1011F2008CF063F08095F04001228AF0EDA4F8A90A
:10120200F088718972E56D2571FEE56E3572FFBE5B
:10121200FF04BFFF0122C2B4E56D2571FEE56E3504
:1012220072FF8E6F8F70D2B4AE6DAF6EE82EE93F53
:10123200F582AE6D8AF0EDA42EFEC006C005C00494
:10124200C003C002120F93D002D003D004D005D045
:10125200068E82C005C004C003C002120F939025FF
:10126200F575F080120D12D002D003D004D0058A99
:10127200F0EDA4FEAFF0A96FAA707800C3E89D500C
:1012820061C003C0048E038F04E56D2BFBE56E3C49
:10129200FCBBFF09BCFF06D004D0038045D004D0BC
:1012A20003C003C004C2B489828A83E0FC740229A9
:1012B200F9E43AFAD2B48C82C007C006C005C00471
:1012C200C003C002C001C000120F93D000D001D0F1
:1012D20002D003D004D005D006D00708D004D00332
:1012E200809A75820AC005C004C003120CA4D00300
:1012F200D004D00590001BE02DF00211E490D6BA84
:1013020012090BE4F508F50990000012017D7582BF
:101312000212019790001D7401F09025F875F0807B
:10132200120D1212110CAE82AF8390001EEEF0EF7E
:10133200A3F075820AC007C006120CA490260E758F
:10134200F080120D1290261F75F080120D12902659
:101352003075F080120D12D006D007C007C00612F9
:101362000DB1AD82D006D00790001CEDF0BD410258
:101372008023BD42028005BD444B803290001C7424
:1013820001F090263F75F080C007C006120D12D002
:1013920006D007803090001C7402F090264575F04C
:1013A20080C007C006120D12D006D0078017900029
:1013B2001C7404F090264B75F080C007C006120D15
:1013C20012D006D00790001CE0FDBD0102800DBDC9
:1013D20002028008BD0402800302135D9026587544
:1013E200F080C007C006120D12121173AD82758211
:1013F2000AC005120CA4D005D006D007BD0F0050BC
:101402001C90001CE0FC900019EDF090001AECF02A
:101412008E828F83C0051211B2D005801B90001CF2
:10142200E0FC900019740FF090001AECF08E828F9D
:1014320083C0051211B2D0057F0075080F8F098D88
:10144200828F8312206EAE8290001CE0FFFD90001E
:101452001DE0FCBC01028026ECB50602802090262D
:101462006B75F080C007C006C005120D1290268170
:1014720075F080120D12D005D006D007803B900087
:101482001DE0FCB50602801790268175F080C0072A
:10149200C006C005120D12D005D006D007801ABCB6
:1014A2000102801590266B75F080C007C006C0054A
:1014B200120D12D005D006D00790269375F080C089
:1014C20007C006C005120D12120DB1AC82D005D0B4
:1014D20006D007BC425490001DE0FBB50602804ACC
:1014E20090001EE0F9A3E0FA740F29F9E43AFA90A9
:1014F200001EE9F0EAA3F090001EE0F9A3E0FA90E2
:101502000019740FF090001AEFF089828A83C007E5
:10151200C006C005C0031211B2D003D005D006D058
:101522000790001DEB04F0021450BC415590001DC1
:10153200E0FBBB0102804B90001EE0F9A3E0FAE958
:1015420024F1F9EA34FFFA90001EE9F0EAA3F090E0
:10155200001EE0F9A3E0FA900019740FF090001A4F
:10156200EDF089828A83C007C006C005C00312114C
:10157200B2D003D005D006D007EB1490001DF002C4
:101582001450BC3101220214502290D6BA12090B17
:10159200E4F508F50990000012017D75820212013E
:1015A200977F009026A575F080C007120D121211C8
:1015B20073AE8275820AC006120CA49026BA75F028
:1015C20080120D12D006D0077C007D00C2B48C02BE
:1015D2008D038E0079008A828B83E8F0E9A3F0D232
:1015E200B4E8B50602803F8E82C003C002C000127A
:1015F2000F93758220120CA4D0008882120F93756B
:101602008220120CA4D002D0038A828B83E0F5825E
:10161200120F9375820A120CA49026CA75F08012DA
:101622000D127F01806DC2B4EEF4FEF879008A8259
:101632008B83E8F0E9A3F0D2B4E8B50602803F8ECE
:1016420082C003C002C000120F93758220120CA444
:10165200D0008882120F93758220120CA4D002D07F
:10166200038A828B83E0F582120F9375820A120C31
:10167200A49026CA75F080120D127F0180150CBC51
:1016820000010D8C028D03C3EA94FFEB94FF50031B
:101692000215CEEF70099026DF75F080120D1290C0
:1016A200269375F080120D12120DB1AF82BF31F880
:1016B2002290D6BA12090BE4F508F509900000123F
:1016C200017D7582021201979026E975F080120D54
:1016D20012121173AF8275820AC007120CA49026EF
:1016E200F575F080120D1212110CAD82AE83758267
:1016F2000AC006C005120CA490270475F080120DD2
:1017020012D005D006D007C2B48D828E838F057E9B
:1017120000EDF0EEA3F0D2B4EDB507108D82120FFA
:101722009390271175F080120D128009902725756C
:10173200F080120D1290269375F080120D12120D88
:10174200B1AF82BF31F82290D6BA12090BE4F50884
:10175200F50990000012017D758202120197902511
:10176200F875F080120D1212110CAE82AF837582E1
:101772000AC007C006120CA490273375F080120D20
:101782001212110CAC82AD8375820AC005C004121C
:101792000CA490274A75F080120D12121173AB82BD
:1017A20075820AC003120CA490275775F080120D9F
:1017B20012D003D004D005D006D0077A00C3EA9B2A
:1017C200506DC0038A77757800857775857876EED7
:1017D2002575F9EF3576FBB9FF07BBFF04D003800F
:1017E2004ED003EC2575F8ED3576F9B8FF05B9FF53
:1017F20002803CC003C2B48E758F76E5772575F8FA
:10180200E5783576FB88828B838C018D03E5772919
:10181200F9E5783BFB89738B74E0F87B0085738272
:10182200857483E8F0EBA3F0D2B40AD003808E90E3
:10183200276C75F080120D1290269375F080120DB0
:1018420012120DB1AF82BF31F822AF83E582900050
:1018520020F0EFA3F0900020E0FEA3E0FFFC8E0555
:101862008C82C007C006C005C004120F93D004D0FA
:10187200058D82C005C004120F939025F575F08086
:10188200120D12D004D005D006D007C2B48E828FBA
:1018920083E0FBD2B48B82C007C006C005C004122D
:1018A2000F9375820A120CA490277375F080120DA3
:1018B20012121173AB8275820AC003120CA4D003F8
:1018C200D004D005D006D007C2B47A008E828F83AE
:1018D200EBF0EAA3F0D2B48C82C005C003120F93DE
:1018E200D003D0058D82C003120F939025F575F0B9
:1018F20080120D12D0038B82120F9375820A020C92
:10190200A490D6BA12090BE4F508F509900000126A
:10191200017D75820212019790278475F080120D65
:101922001212110CAE82AF8375820AC007C0061272
:101932000CA4D006D0078E828F83C007C00612186F
:101942004CD006D00790269375F080C007C00612CF
:101952000D1290279475F080120D129027AB75F03E
:1019620080120D12120DB1AD82D006D00790002266
:10197200EDF0BD310122BD322F90D6BAC007C006AC
:1019820012090BE4F508F50990000012017DD0065A
:10199200D0078E828F83C007C00612184CD006D0A3
:1019A20007900022E4F08035BD333290D6BAC007EA
:1019B200C00612090BE4F508F50990000012017D3A
:1019C200D006D0070EBE00010F8E828F83C007C0E3
:1019D2000612184CD006D007900022E4F0900022A4
:1019E200E0FDBD310122BD320122BD3301220219C7
:1019F2004722AE82AF8390D6BAC007C00612090B47
:101A0200E4F508F50990000012017D7582021201C9
:101A120097D006D007E57B70139027C975F080C078
:101A220007C006120D12D006D0078017857B82C030
:101A320007C006120F939027DB75F080120D12D0AB
:101A420006D007AD7A7C00C2B48C027B008E008F78
:101A520001EA28F8EB39F988828983E0FB89028E52
:101A620001EC29F9EBB5793B8D820DC007C006C0A8
:101A720005C004C002C001120F939025F575F080D5
:101A8200120D12D001D0028A82C001120F93D0012E
:101A92008982120F9375820A120CA4D004D005D049
:101AA20006D0070CBC0F00409E2290D6BA12090B3A
:101AB200E4F508F50990000012017D758202120119
:101AC200979000237401F09027EB75F080120D12AD
:101AD20012117385827C75820A120CA49025F87506
:101AE200F080120D1212110CAD82AE83900025ED22
:101AF200F0EEA3F075820AC006C005120CA490266F
:101B02005875F080120D12121173AC8275820AC0E0
:101B120004120CA4D004D005D0067B007A00C3EADC
:101B22009C502AC004C2B48A0079008D048E07E852
:101B32002CFCE93FFF8C828F83E0FFD2B4EFB57CAF
:101B4200028004D0048003D0040B0A80D1857C7902
:101B5200757A008B7B8D828E83C004C0031219F4C8
:101B6200D003D004900024740FF07F00F5088F0991
:101B72008C828F83C00312206EAE82D003C3740F97
:101B82009BE433FFFD8F048B028F7F8F7E900023B7
:101B9200E0F57D7401B57D028035EEB57D02802FC2
:101BA200EF602C90266B75F080C007C006C005C0A0
:101BB20004C003C002120D1290268175F080120D2E
:101BC20012D002D003D004D005D006D007805D9099
:101BD2000023E0B506028026ED602390268175F091
:101BE20080C007C006C005C004C003C002120D12A7
:101BF200D002D003D004D005D006D007802E9000AA
:101C020023E0F8B801028024EC602190266B75F085
:101C120080C007C006C005C004C003C002120D1276
:101C2200D002D003D004D005D006D00790269375F9
:101C3200F080C007C006C005C004C003C002120D78
:101C420012120DB1A882D002D003D004D005D00662
:101C5200D007B8310122B8426E900023E0F57DEE44
:101C6200B57D028062E57F605EC003900024E024BF
:101C72000FF0900025E0F9A3E0FB740F29F9E43B93
:101C8200FB900025E9F0EBA3F0900025E0F9A3E03A
:101C9200FB900024E0F57A857C798A7B89828B83AC
:101CA200C007C006C005C004C003C0021219F4D0A8
:101CB20002D003D004D005D006D007900023E57DE2
:101CC20004F0D003021B8FB841028003021B8F90E5
:101CD2000023E0F9B90103021B8FE57E7003021BAA
:101CE2008FC002900024E024F1F0900025E0F8A3D8
:101CF200E0FAE824F1F8EA34FFFA900025E8F0EA85
:101D0200A3F0900025E0F8A3E0FA900024E0F57A31
:101D1200857C798B7B88828A83C007C006C005C018
:101D220004C003C002C0011219F4D001D002D003D2
:101D3200D004D005D006D007E914900023F0D002D9
:101D4200021B8FAF8290D6BAC00712090BE4F508C6
:101D5200F50990000012017D90280175F080120DA6
:101D620012D0078F82120F9375820A120CA490264A
:101D72009375F080120D1290280F75F080020D12EB
:101D8200AF8290D6BAC00712090BE4F508F50990A4
:101D9200000012017D90282575F080120D12D007E7
:101DA2008F82120F9375820A120CA490269375F0FB
:101DB20080120D1290280F75F080020D1290D6BA83
:101DC20012090BE4F508F50990000012017D7582F5
:101DD20002120197852982852A831200D7121D4596
:101DE200120DB1AF82BF310122852982852A831269
:101DF20000D7121D4580E990D6BA12090BE4F50806
:101E0200F50990000012017D758202120197852B5F
:101E120082852C831200D7121D82120DB1AF82BFB0
:101E2200310122852B82852C831200D7121D8280DC
:101E3200E990283375F080120D127401B522FB74FB
:101E420030B5210122852182120CA475820A120C5E
:101E5200A475220080E47582021201AF758203121A
:101E6200019790D6BA12090B7508BA7509D6900077
:101E72000012018AE4F508F50990000012017D9034
:101E8200285075F080120D1290285F75F080120DA7
:101E92001275820212019790286A75F080120D1253
:101EA20090287A75F080120D1290288375F08012B6
:101EB2000D1290288D75F080120D1290289675F0F3
:101EC20080120D1290289F75F080120D129028A892
:101ED20075F080120D129028B275F080120D1290DA
:101EE20028C275F080120D129028CC75F080020D78
:101EF200127508008527828528831200C71202D82E
:101F020090000012090B7582001201AF754F1F7508
:101F120050007582141207641200AE121E58120D80
:101F2200B1AF82BF3102802DBF3202802DBF33029A
:101F3200802DBF34028032BF35028032BF3602802C
:101F420032BF37028037BF38028037BF4102801468
:101F5200BF42C880231216B380C11212FF80BC1286
:101F6200158C80B712174980B212190380AD121A6C
:101F7200AC80A8121AAC80A3121DBF809E121DF95C
:071F82008099121E338094C8
:1020AA0000000000003E5B4F5B3E3E6B4F6B3E1CE8
:1020BA003E7C3E1C183C7E3C181C577D571C1C5EFF
:1020CA007F5E1C00183C1800FFE7C3E7FF001824D6
:1020DA001800FFE7DBE7FF30483A060E2629792980
:1020EA0026407F050507407F05253F5A3CE73C5AB5
:1020FA007F3E1C1C08081C1C3E7F14227F22145F92
:10210A005F005F5F06097F017F006689956A6060EC
:10211A0060606094A2FFA29408047E040810207EE6
:10212A00201008082A1C08081C2A08081E1010106B
:10213A00100C1E0C1E0C30383E3830060E3E0E06B1
:10214A00000000000000005F000000070007001404
:10215A007F147F14242A7F2A1223130864623649C3
:10216A005620500008070300001C224100004122AB
:10217A001C002A1C7F1C2A08083E080800807030B0
:10218A00000808080808000060600020100804021F
:10219A003E5149453E00427F400072494949462125
:1021AA0041494D331814127F1027454545393C4A99
:1021BA0049493141211109073649494936464949B0
:1021CA00291E0000140000004034000000081422F8
:1021DA004114141414140041221408020159090666
:1021EA003E415D594E7C1211127C7F494949363E67
:1021FA00414141227F4141413E7F494949417F094D
:10220A000909013E414151737F0808087F00417F57
:10221A0041002040413F017F081422417F40404055
:10222A00407F021C027F7F0408107F3E4141413EED
:10223A007F090909063E4151215E7F09192946266F
:10224A004949493203017F01033F4040403F1F2073
:10225A0040201F3F4038403F63140814630304784A
:10226A0004036159494D43007F414141020408106A
:10227A0020004141417F04020102044040404040A5
:10228A00000307080020545478407F284444383813
:10229A0044444428384444287F3854545418000885
:1022AA007E090218A4A49C787F0804047800447D5F
:1022BA0040002040403D007F1028440000417F40FC
:1022CA00007C047804787C08040478384444443850
:1022DA00FC1824241818242418FC7C080404084830
:1022EA005454542404043F44243C4040207C1C2081
:1022FA0040201C3C4030403C44281028444C9090DC
:10230A00907C4464544C4400083641000000770035
:10231A0000004136080002010204023C2623263C42
:10232A001EA1A161123A4040207A385454555921CD
:10233A0055557941225454784221555478402054B5
:10234A005579400C1E527212395555555939545403
:10235A00545939555454580000457C410002457D72
:10236A00420001457C407D1211127DF0282528F09B
:10237A007C545545002054547C547C0A097F4932C8
:10238A00494949323A4444443A324A4848303A413F
:10239A0041217A3A42402078009DA0A07D3D4242E8
:1023AA00423D3D4040403D3C24FF2424487E494371
:1023BA00662B2FFC2F2BFF0929F620C0887E0903E4
:1023CA0020545479410000447D413048484A32380B
:1023DA004040227A007A0A0A727D0D19317D262937
:1023EA00292F28262929292630484D40203808082F
:1023FA00080808080808382F10C8ACBA2F10283463
:10240A00FA00007B000008142A142222142A140855
:10241A00AA005500AAAA55AA55AA000000FF001052
:10242A001010FF00141414FF001010FF00FF10100A
:10243A00F010F0141414FC001414F700FF0000FF4D
:10244A0000FF1414F404FC141417101F10101F10AA
:10245A001F1414141F00101010F0000000001F10A9
:10246A001010101F10101010F010000000FF1010B4
:10247A0010101010101010FF10000000FF140000C0
:10248A00FF00FF00001F10170000FC04F4141417CB
:10249A0010171414F404F40000FF00F714141414B1
:1024AA00141414F700F7141414171410101F101F23
:1024BA00141414F4141010F010F000001F101F0070
:1024CA0000001F14000000FC140000F010F01010AF
:1024DA00FF10FF141414FF141010101F0000000046
:1024EA00F010FFFFFFFFFFF0F0F0F0F0FFFFFF003A
:1024FA0000000000FFFF0F0F0F0F0F38444438444D
:10250A00FC4A4A4A347E02020606027E027E0263C0
:10251A00554941633844443C04407E201E2006024B
:10252A007E020299A5E7A5991C2A492A1C4C720128
:10253A00724C304A4D4D303048784830BC625A4669
:10254A003D3E494949007E0101017E2A2A2A2A2A5A
:10255A0044445F444440514A444040444A51400044
:10256A0000FF0103E080FF000008086B6B083612C9
:10257A00362436060F090F0600001818000000104E
:10258A0010003040FF0101001F01011E00191D1734
:10259A0012003C3C3C3C000000000031343746321B
:1025AA00353830333639454142434457656C636F99
:1025BA006D650A004543454E2D343333300A0052C7
:1025CA006F746174696F6E203000526F7461746940
:1025DA006F6E203100526F746174696F6E20320021
:1025EA00526F746174696F6E2033003A2000456E31
:1025FA0074657220737461727420616464726573A5
:10260A00733A0A00456E74657220646174612074BD
:10261A007970650A00422D427974652C20412D5744
:10262A006F72642C0A00442D446F75626C652077C2
:10263A006F72640A00427974650A00576F72640AFD
:10264A0000446F75626C6520776F72640A00456E8C
:10265A0074657220626C6F636B2073697A653A0ADB
:10266A00005072657373204120666F722070726524
:10267A0076696F75730A005072657373204220661B
:10268A006F72206E6578740A005072657373203118
:10269A0020666F72206D656E750A00456E746572EC
:1026AA00206279746520746F20636865636B0A0021
:1026BA00496E2070726F67726573732E2E2E0A0030
:1026CA004D656D6F727920636865636B2066616919
:1026DA006C65640A0053756363657373210A004568
:1026EA006E74657220627974650A00456E7465724B
:1026FA0020616464726573730A00496E2070726F98
:10270A0067726573730A002066657463686564217D
:10271A000A53756363657373210A00436865636BC3
:10272A00206661696C65640A00456E74657220747E
:10273A00617267657420616464726573733A0A0032
:10274A00456E7465722073697A653A0A004D6F7630
:10275A006520696E2070726F67726573732E2E2EF4
:10276A000A00446F6E65210A00456E746572206E18
:10277A00657720627974653A0A00456E746572203D
:10278A00616464726573733A0A00507265737320E8
:10279A003220746F206564697420616761696E0A0A
:1027AA00005072657373203320746F2065646974F6
:1027BA00206E65787420616464726573730A004ED2
:1027CA006F206D61746368657320666F756E640A45
:1027DA0000206D61746368657320666F756E640AA4
:1027EA0000456E746572206279746520746F206387
:1027FA006F756E743A0A0054656D7065726174750E
:10280A0072653A20005072657373206B6579207483
:10281A006F20726566726573680A004C696768742E
:10282A00206C6576656C3A200055415254204672F8
:10283A00656520747970652C203020666F72206D72
:10284A00656E753A0A004272616E646F6E20436C5F
:10285A00696E650A004543454E20343333300A0019
:10286A00313A20426173696320636865636B0A00C9
:10287A00323A2044756D700A00333A204368656322
:10288A006B0A00413A204D6F76650A00343A2045BA
:10289A006469740A00353A2046696E640A00363A59
:1028AA0020436F756E740A00423A2054656D706554
:1028BA007261747572650A00373A204C69676874E8
:1028CA000A00383A205541525420667265652074D0
:0528DA007970650A00A1
:101F89007A10E4FBFCE58225E0F582E58333F583ED
:101F9900EB33FBEC33FCEB9508F5F0EC95094006C7
:091FA900FCABF0438201DADD22F9
:06005800E478FFF6D8FD7C
:100036007900E94400601B7A009028DF782775A0D4
:1000460000E493F2A308B8000205A0D9F4DAF27529
:02005600A0FF09
:101FB200E5828508F0A4C582C0F08509F0A4D0F0BE
:101FC20025F0C5838508F0A42583F58322E508451D
:101FD2000960467A01E50825E0F508E50933401273
:101FE200F509E5829508E583950940030A80E6C371
:101FF200E50913F509E50813F508C3E5829508F527
:10200200F0E58395094005F58385F082C3E5091360
:0A201200F509E50813F508DAE122EC
:10005E007800E84400600A790175A000E4F309D83D
:10006E00FC7826E84400600C7901900001E4F0A3CE
:04007E00D8FCD9FAD7
:0D00290075817F1220A6E58260030200268B
:10201C0020F71430F6148883A88220F507E6A883ED
:10202C0075830022E280F7E49322E022C2D5E58397
:10203C0030E70DD2D5E4C39582F582E49583F58320
:10204C00E50930E70BE4C39508F508E49509F509B3
:10205C00121FCF30D50BE4C39582F582E49583F53E
:10206C008322C2D5E58330E70DD2D5E4C39582F542
:10207C0082E49583F583E50930E70DB2D5E4C39589
:10208C0008F508E49509F509121F8930D50BE4C34E
:0E209C009582F582E49583F5832275820022F9
:00000001FF
