:03000000020006F5
:10005F00752300752440752500752680752700755A
:0A006F0028C0E4F529F52A02000379
:0300030002235085
:10007900AE82AF83D2B48E828F83E508F0C2B422F8
:10008900AE82AF83D2B48E828F83E0FEC2B48E82F9
:1000990022AE82AF837C007D008C028D03C3EA9E71
:1000A900EB64808FF063F08095F050147AE87B035D
:1000B9001ABAFF011BEA4B70F70CBC00DC0D80D9A2
:1000C90022AF82C2B5D2B4852382852483EFF0C2E0
:1000D900B4D2B5D2B4852382852483E508F0C2B4AD
:1000E90022AE82AF838F05C2B5D2B485238285241F
:1000F90083EDF0C2B4C2B5D2B4852382852483EEE0
:10010900F0C2B4AF09AE08D2B5D2B5D2B485238254
:10011900852483EFF0C2B4D2B5D2B4852382852475
:1001290083EEF0C2B42285822D85832E85082F8522
:10013900093022858233858334850835850936223D
:10014900E582FF24F7500122EF60068F067F0080C9
:10015900047E017F008E3122E582FF24FC406AEF94
:100169002F90016E738006801B803080457F4890F8
:10017900000174F0F0E4A3F09000037440F07401FE
:10018900A3F0805A7F289000017440F07401A3F015
:1001990090000374F0F0E4A3F080437F889000019D
:1001A90074F0F0E4A3F09000037440F07401A3F03C
:1001B900802C7FE89000017440F07401A3F0900056
:1001C9000374F0F0E4A3F080157F4890000174F007
:1001D900F0E4A3F09000037440F07401A3F08F08D9
:1001E9007582360200CAAE82AF83C2B5D2B4852306
:1001F90082852483742AF0C2B4D2B5D2B48523820D
:100209008524838F05EDF0C2B4D2B5D2B48523829B
:10021900852483EEF0C2B4D2B5D2B4852382852475
:1002290083E50BF0C2B4D2B5D2B485238285248389
:10023900E50AF0C2B4C2B5D2B48523828524837499
:100249002BF0C2B4D2B5D2B4852382852483E509C3
:10025900F0C2B4D2B5D2B4852382852483E508F0EF
:10026900C2B4D2B5D2B4852382852483E50DF0C208
:10027900B4D2B5D2B4852382852483E50CF0C2B407
:100289002290000174F0F0E4A3F09000037440F0B0
:100299007401A3F0C2B4D2B5C2B5D2B485238285A4
:1002A9002483E4F0C2B4D2B5D2B4852382852483F1
:1002B900E4F0C2B4D2B5D2B4852382852483E4F0B4
:1002C900C2B4D2B5D2B4852382852483E4F0C2B402
:1002D9009000C812009A7508007582011200CA9030
:1002E900003212009A7508007582281200CA90001F
:1002F9000A12009A7508237582C01200CA7508117E
:100309007582C11200CAC2B5D2B4852382852483FD
:1003190074C5F0C2B4D2B5D2B4852382852483745E
:100329003DF0C2B4D2B5D2B485238285248374301A
:10033900F0C2B47508AA7582C71200CA7508887513
:1003490082361200CAC2B5D2B48523828524837449
:100359003AF0C2B4D2B5D2B48523828524837455C8
:10036900F0C2B4D2B5D2B4852382852483E4F0C225
:10037900B475081B7509009000B11200EA750807E9
:100389007582B71200CA7508007582111200CA90E9
:10039900009612009A7508007582291200CA900108
:1003A900F412009A900001E0FEA3E0FF1EBEFF01D7
:1003B9001F8E0A8F0B900003E0FEA3E0FF1EBEFF15
:1003C900011F8E0C8F0DE4F508F50990000002015C
:1003D900EFAE82AF838E048F050CBC00010D8C0A31
:1003E9008D0BAC37AD380CBC00010D8C0C8D0D8517
:1003F90037088538098E828F831201EFC2B5D2B4CE
:10040900852382852483742CF0C2B4D2B5D2B485F5
:100419002382852483E53AF0C2B4D2B48523828548
:100429002483E539F0C2B42285824185834274016F
:10043900C3953DFCE4953EFD900005ECF0EDA3F07D
:10044900853D08853E0990FFFE122402AC82AD83EA
:10045900AA3DAB3EE53D253BF537E53E353CF53854
:10046900853F3985403A854182854283C005C0046C
:10047900C003C0021203DAE53BC3953DF537E53CFD
:10048900953EF538853F3985403A854182854283D5
:100499001203DAE53D2541F582E53E3542F58385CE
:1004A9003B37853C38853F3985403A1203DAE541C7
:1004B900C3953DF582E542953EF583853B37853CFD
:1004C90038853F3985403A1203DAD002D003D00487
:1004D900D005780079007543018944C3E89AE96435
:1004E900808BF063F08095F0400122900005E0F5E3
:1004F90045A3E0F54620E7181ABAFF011B74022C40
:10050900FCE43DFD900005EC2545F0ED3546A3F0F2
:10051900C004C00508B800010974022543F543E485
:100529003544F544900005E0FEA3E0FF900005E5A1
:10053900432EF0E5443FA3F0AE41AF42E82EFCE97B
:100549003FFD8C458D46853B47853C48EA2547FC60
:10055900EB3548FD8C498D4A854937854A38853FB1
:100569003985403A854582854683C007C006C0055E
:10057900C004C003C002C001C0001203DAD000D019
:1005890001D002D003D004D005D006D007EEC3981D
:10059900FCEF99FD8C4B8D4C854937854A38853F51
:1005A9003985403A854B82854C83C007C006C00512
:1005B900C004C003C002C001C0001203DAD000D0D9
:1005C90001D002D003D004D005E547C39AFCE54821
:1005D9009BFD8C378D38853F3985403A8545828525
:1005E9004683C005C004C003C002C001C000120395
:1005F900DAD000D001D002D003D004D0058C378DD9
:1006090038853F3985403A854B82854C83C005C082
:1006190004C003C002C001C0001203DAD000D00137
:10062900D002D003D004D005D006D007EA2EFCEBC7
:100639003FFD8C4B8D4CE82547FCE93548FD8C374F
:100649008D38853F3985403A854B82854C83C00773
:10065900C006C005C004C003C002C001C000120327
:10066900DAD000D001D002D003D004D005D006D012
:1006790007EEC39AFEEF9BFF8C378D38853F39858E
:10068900403A8E828F83C007C006C005C004C003EC
:10069900C002C001C0001203DAD000D001D002D0DC
:1006A90003D004D005E547C398FCE54899FD8C378C
:1006B9008D38853F3985403A854B82854C83C00505
:1006C900C004C003C002C001C0001203DAD000D0C8
:1006D90001D002D003D004D005D006D0078C378DC5
:1006E90038853F3985403A8E828F83C005C004C062
:1006F90003C002C001C0001203DAD000D001D00249
:10070900D003D004D005D005D0040204E485824F7B
:10071900AD4F7E00ED2DFBEE33FC900001E0F9A317
:10072900E0FAED29F9EE3AFA900003E0FFA3E0F8C8
:10073900ED2FFFEE38FE900007E4F0A3F0900007DC
:10074900E0F8A3E0FDC3E899ED64808AF063F080E6
:1007590095F0400122900009E4F0A3F0900009E02F
:10076900F550A3E0F551C3E5509FE55164808EF043
:1007790063F08095F0504788828D8385503B855181
:100789003C854F3D753E00854D3F854E40C007C0B5
:1007990006C005C004C003C002C001C00012043174
:1007A900D000D001D002D003D004D005D006D007A4
:1007B900900009EB2550F0EC3551A3F0809E900094
:1007C90007E0F8A3E0FD900007EB28F0EC3DA3F06B
:1007D900020746AE82AF838E048F05C3EC94F0ED19
:1007E9009400500DAC52AD53C3EC9440ED940140CC
:1007F9000122E5542EFCE5553FFD1CBCFF011DC33C
:10080900EC94F0ED9400400A74F0C39EF554E49F13
:10081900F555E5562552FCE5573553FD1CBCFF013E
:100829001DC3EC9440ED9401400D7440C39552F5FD
:100839005674019553F557E5542EFCE5553FFD1CBB
:10084900BCFF011D8C0A8D0BE5562552FCE5573579
:1008590053FD1CBCFF011D8C0C8D0D855208855361
:10086900098E828F831201EFC2B5D2B485238285A6
:100879002483742CF0C2B4D2B5AF59AD56AE57ED3E
:100889004E6030AB54AC55EB4C6021D2B485238219
:10089900852483EFF0C2B4D2B4852382852483E50D
:1008A90058FAF0C2B41BBBFF011C80DB1DBDFF0160
:1008B9001E80CC22AE82AF838F05E4F508F5097559
:1008C9000AEFF50B750C3F750D01900000C006C0CD
:1008D900051201EFD005D006C2B5D2B485238285B1
:1008E9002483742CF0C2B4D2B5D2B4852382852472
:1008F90083EDF0C2B4D2B4852382852483EEF0C29D
:10090900B47CB07F048C028F031CBCFF011FEA4B2F
:1009190060667B10D2B4852382852483EDF0C2B44E
:10092900D2B4852382852483EEF0C2B4D2B4852360
:1009390082852483EDF0C2B4D2B4852382852483D1
:10094900EEF0C2B4D2B4852382852483EDF0C2B41B
:10095900D2B4852382852483EEF0C2B4D2B4852330
:1009690082852483EDF0C2B4D2B4852382852483A1
:10097900EEF0C2B4DB9E808D7F3F8F041FEC601ABE
:10098900D2B4852382852483EDF0C2B4D2B4852301
:1009990082852483EEF0C2B480E022AE82AF83C3A5
:1009A900EE94F0EF648094805067AC5AAD5BC3EC71
:1009B9009440ED648094815058AA617B008A088B29
:1009C90009900006C007C006C005C004C003C002E4
:1009D900122402A882A983D002D003D004D005D062
:1009E90006D007E82EF8E93FF918B8FF0119E92000
:1009F900E71FEBC40354F8CAC403CA6ACA54F8CA45
:100A09006AFBEA2CFAEB3DFB1ABAFF011BEB30E754
:100A190001227401B5610474018001E4FB8B68E56E
:100A29005DB55F08E55EB56003D38001C3920079C7
:100A390000B9050790000BE4F08049855C08750949
:100A490000900005C007C006C005C004C003C0016E
:100A5900122402A882AA83D001D003D004D005D0E1
:100A690006D007E824FAF562EA3424F563E9F83395
:100A790095E0FAE82562F582EA3563F583E493FAAD
:100A890090000BF0C2D58561F0E930E704B2D5F4E6
:100A990004A430D50AF42401C5F0F43400C5F02EBD
:100AA900F562EF35F0F563890085626485636589D0
:100AB9006675670090000BE020E003020B7CEB6099
:100AC9004EC000E566F83395E0FAE82EF8EA3FFAF9
:100AD90088828A83E567F83395E0FAE82CF8EA3DDD
:100AE900FA88378A38855D39855E3AC007C006C0FD
:100AF90005C004C003C001C0001203DAD000D00150
:100B0900D003D004D005D006D007D000020C33C0E2
:100B190000856482856583C2D58561F0E56730E724
:100B290004B2D5F404A430D50AF42401C5F0F43490
:100B390000C5F02CF8ED35F0FA88528A53A8617A8D
:100B49000088548A5588568A57855D58855E59C0EC
:100B590007C006C005C004C003C001C0001207DCFD
:100B6900D000D001D003D004D005D006D007D000E2
:100B7900020C33300003020C33E568604CC003E813
:100B8900FA3395E0FBEA2EFAEB3FFB8A828B83E589
:100B990067FA3395E0FBEA2CFAEB3DFB8A378B3891
:100BA900855F3985603AC007C006C005C004C00327
:100BB900C001C0001203DAD000D001D003D004D0A4
:100BC90005D006D007D0038061C0008562828563A5
:100BD90083C2D58561F0E56730E704B2D5F404A492
:100BE90030D50AF42401C5F0F43400C5F02CF8ED31
:100BF90035F0FA88528A53A8617A0088548A558850
:100C0900568A57855F58856059C007C006C005C018
:100C190004C003C001C0001207DCD000D001D0031A
:100C2900D004D005D006D007D00090000BE0C31344
:100C3900FAF00567C3E567648094885003020ABD2A
:100C490009C3E9648094865003020A3A22AF82BF3D
:100C59000A26AD31E4C40354F8CDC403CD6DCD5497
:100C6900F8CD6DFEAB2FAC30ED2BFBEE3CFC8B2FA2
:100C79008C30E4F52DF52E22BF0D0122852F5A85E2
:100C8900305B8F5C85335D85345E85355F85366085
:100C9900853161852D82852E831209A485310875D8
:100CA9000900900006122402AE82AF83AC2DAD2E4E
:100CB900EE2CFCEF3DFD8C2D8D2E22AD82AE83AF47
:100CC900F07B007C00EB2DF8EC3EF98F02888289DD
:100CD900838AF012246CFA60208A82C007C006C099
:100CE90005C004C003120C56D003D004D005D006A9
:100CF900D0070BBB00CF0C80CC22AF827B007C00DD
:100D09007D007E00C2B48B828C83EFF0D2B40BBB22
:100D190000090CBC00050DBD00010EC3EB94FFECEE
:100D290094FFED9400EE940040DA2290000CE4F078
:100D390090000CE0FFBF080D90000CE4F075820AEA
:100D4900120C568006120D5D120C5690000CE02410
:100D590001F080DC7590F07590F08590215321F0B9
:100D690074F0B521F290001412009AE59054F0F550
:100D79002174F0B5210280ED90000112009AE590EE
:100D890054F0F52174F0B5210280DA7590FEE590F2
:100D990054F0F52174F0B521028005752200803DDB
:100DA9007590FDE59054F0F52174F0B521028005A8
:100DB90075220180287590FBE59054F0F52174F0B7
:100DC900B52102800575220280137590F7E59054CC
:100DD900F0F52174F0B5210280B175220374E0B5F4
:100DE9002115E52275F004A424F5F582742935F05E
:100DF900F583E493F5822274D0B52118E52275F0C4
:100E090004A424F5FE742935F0FF8E828F83A3E4B0
:100E190093F5822274B0B52119E52275F004A42452
:100E2900F5FE742935F0FF8E828F83A3A3E493F531
:100E39008222E52275F004A424F5FE742935F0FF19
:100E49008E828F83A3A3A3E493F58222AF829000BD
:100E59000DE4F0A3F0BF010040638F057E00750823
:100E69000A8E098D828E83C006C005122488AB8242
:100E7900AC83D005D00690000FEBF0ECA3F0750819
:100E89000A7509008D828E831224BEAD828D07906A
:100E9900000DE0FDA3E0FE8D088E0990000AC00751
:100EA900122402AD82AE83D00790000FE0FBA3E0CD
:100EB900FC90000DEB2DF0EC3EA3F0809890000D16
:100EC900E0FEA3E08E82F58322120E55E58285832A
:100ED900F0900012F0E5F0A3F0900012E0FEA3E01C
:100EE900FFC3EE9401EF9400404275080A750900AA
:100EF9008E828F83C007C00612241FAC82D006D011
:100F090007900011ECF075080A7509008E828F832D
:100F19001223D9AE82AF83900012EEF0EFA3F090C6
:100F29000011E02430F582120C5680AD22AF827593
:100F39006900756A007E00BF0100405A8F047D0078
:100F4900740F5CFA7508108D098C828D83C006C0F8
:100F5900021224BEAC82D002D0068C07EA24F640E5
:100F69000CEE2469F98A0574302DF78026EE246980
:100F7900F97D0075080A8D098A828D83C007C0062C
:100F8900C001122488AC82AD83D001D006D0077489
:100F9900412CF70E80A1856A82120C56856982025E
:100FA9000C56E582FF24C6920140088F06EE24D034
:100FB900FE800474C92FFE8E822290F8001208BDAB
:100FC90090001412009A9007E01208BD90001412C4
:100FD900009A7582001201619000001208BD754DDA
:100FE90000754EF875821412071690006412009A63
:100FF9009000001208BD758205120149E4F508F553
:10100900099007FF12013C902A0575F080120CC463
:10101900758203120149902A0E75F080120CC49052
:101029002A1975F080120CC49000C812009A900019
:10103900001208BD758201120161E4F508F50990F5
:10104900000012012F902A2475F080120CC490011F
:10105900F412009A9000001208BD75820212016113
:10106900E4F508F50990000012012F902A2F75F078
:1010790080120CC49001F412009A9000001208BD6D
:10108900758203120161E4F508F509900000120167
:101099002F9000C812009A902A3A75F080120CC459
:1010A9009000C802009A900014E4F0A3F07F00C0F9
:1010B90007120D5DAE82C006120C56D0068E821242
:1010C9000FABAE82D007900014E0FCA3E0FD7B00DB
:1010D900900014EE4CF0EB4DA3F0BF0302801C907E
:1010E9000014E0FDA3E0C454F0CDC4CD6DCD54F09F
:1010F900CD6DFE900014EDF0EEA3F00FBF0400409B
:10110900AE900014E0FEA3E08E82F58322900016D3
:10111900E4F07F00C007120D5DAE82C006120C56C6
:10112900D0068E82120FABAE82D007900016E04E29
:10113900F0BF01028009900016E0C454F0FEF00FE0
:10114900BF020040CF900016E0F58222AF83E5820E
:10115900900019F0EFA3F090D6BA1208BDE4F50893
:10116900F50990000012012F7582021201499000C1
:101179001BE4F0A3F0900018E0FF900017E0F5F0F1
:10118900EFA4FDAEF0C00790001BE0FBA3E0FC8BD1
:10119900018C028D008E07C3E998EA9FD0074001B0
:1011A90022C005C006900019E0F9A3E0FAE92BF87E
:1011B900EA3CFEB8FF08BEFF05D006D00522D006DE
:1011C900D005C005C006C2B48F087509008B828C92
:1011D90083C007C006C005C004C003C002C0011215
:1011E9002402E5828583F0D001D002D003D004D057
:1011F90005D006D00729F8EA35F0FE886B8E6CD247
:10120900B48E828BF0EFA429F9C007C006C005C0CF
:1012190001120F36D0018982120F36902A4575F0D6
:1012290080120CC4D005D006D007856B6D856C6E15
:10123900756F00D006D005C3E56F9F502CC2B485E9
:101249006D82856E83E0FC7402256DF56DE4356E63
:10125900F56ED2B48C82C007C006C005120F36D015
:1012690005D006D007056F80CE75820AC007C00673
:10127900C005120C56D005D006D0078F037C00900C
:10128900001BE0F9A3E0FAEB29F9EC3AFA90001B0C
:10129900E9F0EAA3F002118E90D6BA1208BDE4F57E
:1012A90008F50990000012012F7582021201499078
:1012B900001E7401F0902A4875F080120CC41210B7
:1012C900AFAE82AF8390001FEEF0EFA3F075820AF4
:1012D900C007C006120C56902A5E75F080120CC425
:1012E900902A6F75F080120CC4902A8075F08012D4
:1012F9000CC4D006D007C007C006120D5DAD82D060
:1013090006D00790001DEDF0BD41028023BD4202C9
:101319008005BD444B803290001D7401F0902A8FE6
:1013290075F080C007C006120CC4D006D007803003
:1013390090001D7402F0902A9575F080C007C006D0
:10134900120CC4D006D007801790001D7404F090C9
:101359002A9B75F080C007C006120CC4D006D007BE
:1013690090001DE0FDBD0102800DBD02028008BD97
:10137900040280030212FF902AA875F080C007C0FA
:1013890006120CC4121116AD8275820AC005120C20
:1013990056D005D006D007BD0F00501C90001DE0A7
:1013A900FC900017EDF0900018ECF08E828F83C04E
:1013B90005121155D005801B90001DE0FC90001707
:1013C900740FF0900018ECF08E828F83C005121113
:1013D90055D005C3740F9DE433FF8F7090001DE055
:1013E900FCFBC0038D017A0075080F8A0989828A7E
:1013F90083C007C005C004C0031224BEA982AA8302
:10140900D003D004D005D007740129F571E43AF569
:101419007290001EE07E00B57108EEB57204D0032B
:101429008028D003EF6023902ABB75F080C007C0E5
:1014390005C004C003C002C001120CC4D001D0020F
:10144900D003D004D005D007805290001EE0FEBE24
:1014590001028027E5706023902ACD75F080C007CE
:10146900C005C004C003C002C001120CC4D001D021
:1014790002D003D004D005D0078021902AE375F06B
:1014890080C007C005C004C003C002C001120CC45B
:10149900D001D002D003D004D005D007902B057518
:1014A900F080C007C005C004C003C002C001120C0F
:1014B900C4120D5DAE82D001D002D003D004D00594
:1014C900D007BE426EC003740129F571E43AF57282
:1014D90090001EE0F8FA7B00B57108EBB57204D0F4
:1014E900038050D00390001FE0F9A3E0FA740F299C
:1014F900F9E43AFA90001FE9F0EAA3F090001FE03E
:10150900F9A3E0FA900017740FF0900018ECF08935
:10151900828A83C007C005C004C003C000121155E8
:10152900D000D003D004D005D00790001EE804F005
:101539000213EBBE415990001EE0FABA0102804F36
:1015490090001FE0F8A3E0F9E824F1F8E934FFF985
:1015590090001FE8F0E9A3F090001FE0F8A3E0F97C
:10156900900017740FF0900018EBF088828983C0FF
:1015790007C005C004C003C002121155D002D00330
:10158900D004D005D007EA1490001EF00213EBBE78
:101599003101220213EB2290D6BA1208BDE4F508F4
:1015A900F50990000012012F75820212014990007D
:1015B90022E4F0902B1775F080120CC4121116E575
:1015C90082900021F075820A120C56902B2C75F02E
:1015D90080120CC47E007F00C2B48E048F05900077
:1015E90021E0FBF97A008C828D83E9F0EAA3F0D23D
:1015F900B4E9B5030280438B82C005C004C001125F
:101609000F36758220120C56D0018982120F367559
:101619008220120C56D004D0058C828D83E0F5828D
:10162900120F3675820A120C56902B3C75F08012F7
:101639000CC49000227401F08078C2B4900021EBB0
:10164900F4F0E0FBF97A008C828D83E9F0EAA3F0EB
:10165900D2B4E9B503028045EBF4F582C005C004B4
:10166900C001120F36758220120C56D001898212E0
:101679000F36758220120C56D004D0058C828D83CA
:10168900E0F582120F3675820A120C56902B3C75C2
:10169900F080120CC49000227401F080150EBE0077
:1016A900010F8E048F05C3EC94FFED94FF500302E4
:1016B90015E1900022E06009902B5175F080120C21
:1016C900C4902B5B75F080120CC4120D5DAF82BF04
:1016D90031F82290D6BA1208BDE4F508F509900050
:1016E9000012012F758202120149902B6C75F0804E
:1016F900120CC4121116AF8275820AC007120C5659
:10170900902B7875F080120CC41210AFAD82AE83A5
:1017190075820AC006C005120C56902B8775F08099
:10172900120CC4D005D006D007C2B48D828E838F27
:10173900057E00EDF0EEA3F0D2B4EDB507108D8271
:10174900120F36902B9475F080120CC48009902BDF
:10175900A875F080120CC4902B0575F080120CC48A
:10176900120D5DAF82BF31F82290D6BA1208BDE4DE
:10177900F508F50990000012012F7582021201493E
:10178900902A4875F080120CC41210AFAE82AF8354
:1017990075820AC007C006120C56902BB675F080E8
:1017A900120CC41210AFAC82AD8375820AC005C099
:1017B90004120C56902BCD75F080120CC412111620
:1017C900AB8275820AC003120C56902BDA75F08031
:1017D900120CC4D003D004D005D006D00779007A02
:1017E90000C004C0058B007D00C3E998EA9DD005BF
:1017F900D0045052C003EE29F8EF3AFBB8FF07BBFB
:10180900FF04D0038040EC29F8ED3AFBB8FF07BB91
:10181900FF04D0038030C2B4E92EF8EA3FFB888286
:101829008B83E92CF8EA3DFB88738B74E0F87B0025
:10183900857382857483E8F0EBA3F0D2B409B9000B
:10184900010AD003809B902BEF75F080120CC49095
:101859002B0575F080120CC4120D5DAF82BF31F8F3
:1018690022AF83E582900023F0EFA3F0900023E0FC
:10187900FEA3E0FFFC8E058C82C007C006C005C030
:1018890004120F36D004D0058D82C005C004120F92
:1018990036902A4575F080120CC4D004D005D006C4
:1018A900D007C2B48E828F83E0FBD2B48B82C0078B
:1018B900C006C005C004120F3675820A120C569074
:1018C9002BF675F080120CC4121116AB8275820AC0
:1018D900C003120C56D003D004D005D006D007C2DD
:1018E900B47A008E828F83EBF0EAA3F0D2B48C82B3
:1018F900C005C003120F36D003D0058D82C0031274
:101909000F36902A4575F080120CC4D0038B8212D1
:101919000F3675820A020C5690D6BA1208BDE4F544
:1019290008F50990000012012F75820212014990F1
:101939002C0775F080120CC41210AFAE82AF8375FC
:10194900820AC007C006120C56D006D0078E828FB5
:1019590083C007C00612186AD006D007902B0575F8
:10196900F080C007C006120CC4902C1775F08012C5
:101979000CC4902C2E75F080120CC4120D5DAD8232
:10198900D006D007900025EDF0BD310122BD322FE0
:1019990090D6BAC007C0061208BDE4F508F509904B
:1019A900000012012FD006D0078E828F83C007C096
:1019B9000612186AD006D007900025E4F08035BDDC
:1019C900333290D6BAC007C0061208BDE4F508F54F
:1019D9000990000012012FD006D0070EBE00010F9A
:1019E9008E828F83C007C00612186AD006D007906E
:1019F9000025E4F0900025E0FDBD310122BD320152
:101A090022BD33012202196522AF83E582900029A4
:101A1900F0EFA3F090D6BA1208BDE4F508F50990E5
:101A2900000012012F758202120149900029E0FE7F
:101A3900A3E0FF900027E0FD900026E0FC9000283D
:101A4900E0FB79007A00C0058C007D00C3E998EAC3
:101A59009DD005400122C004C2B4E92EF8EA3FFC3A
:101A690088828C83E0FCD2B4ECB505028004D004F2
:101A7900807CD004C0058B820BC007C006C005C09E
:101A890004C003C002C001120F36902A4575F080C8
:101A9900120CC4D001D002D003D004D005D006D096
:101AA90007E92EEA3FF5828E058900E82DFDC0077A
:101AB900C006C005C004C003C002C001120F36D061
:101AC90001D002D003D004D0058D82C005C004C066
:101AD90003C002C001120F3675820A120C56D001DA
:101AE900D002D003D004D005D006D007D00509B95B
:101AF90000010A021A4F90D6BA1208BDE4F508F59A
:101B09000990000012012F75820212014990002BE1
:101B19007401F090002CE4F0902C4C75F080120CBC
:101B2900C4121116AF8275820AC007120C56902A88
:101B39004875F080120CC41210AFAD82AE839000CC
:101B49002DEDF0EEA3F075820AC006C005120C5601
:101B5900902AA875F080120CC4121116AC827582F5
:101B69000AC004120C56D004D005D006D0077B0059
:101B79007A00C3EA9C5031C004C2B48A75757600F4
:101B89008D778E78A875AC76E82577F8EC3578FCF2
:101B990088828C83E0FCD2B4ECB507028004D004BF
:101BA9008003D0040B0A80CABB0F00502490002682
:101BB900EBF0900027EFF0900028E4F08D828E83FF
:101BC900C007C004C003121A12D003D004D0078082
:101BD90029900026740FF0900027EFF0900028E478
:101BE900F08D828E83C007C004C003121A12D0037D
:101BF900D004D00790002C740FF0C3740F9BE4330A
:101C0900FE8BF0EC84F5778B04EC7018902C6375DF
:101C1900F080C007C006C004120CC4D004D006D09E
:101C290007021CB98C027B0075080F8B098A828B0D
:101C390083C007C006C0041224BEE5828583F0D0A4
:101C490004D006D0072401FAE435F0FB90002BE01C
:101C59007900B50206E9B50302801CEC24F050179F
:101C6900902ABB75F080C007C006C004120CC4D00E
:101C790004D006D007803990002BE0FBBB0102801D
:101C89001AEE6017902ACD75F080C007C006C0040F
:101C9900120CC4D004D006D0078015902AE375F041
:101CA90080C007C006C004120CC4D004D006D007F7
:101CB900902B0575F080C007C006C004120CC41231
:101CC9000D5DAB82D004D006D007BB4202800280F2
:101CD9007BC006A9777A0009B900010A90002BE0B8
:101CE900F8FD7E00B50108EEB50204D006805DD08E
:101CF9000690002CE0240FF090002DE0FAA3E0FDFF
:101D0900740F2AFAE43DFD90002DEAF0EDA3F0905E
:101D1900002DE0FAA3E0FD90002CE0F99000267474
:101D29000FF0900027EFF0900028E9F08A828D8368
:101D3900C007C006C004C000121A12D000D004D0D7
:101D490006D00790002BE804F0021C12BB416690F4
:101D5900002BE0FDBD0102805C90002CE024F1F035
:101D690090002DE0F9A3E0FAE924F1F9EA34FFFA49
:101D790090002DE9F0EAA3F090002DE0F9A3E0FA34
:101D890090002CE0F8900026740FF0900027EFF0F7
:101D9900900028E8F089828A83C007C006C005C080
:101DA90004121A12D004D005D006D007ED14900001
:101DB9002BF0021C12BB310122021C1222AF83E557
:101DC90082900032F0EFA3F090D6BA1208BDE4F584
:101DD90008F50990000012012F758202120149E5E8
:101DE90079700B902C7075F080120CC4800F857976
:101DF90082120F36902C8275F080120CC49000323A
:101E0900E0FEA3E0FF900030E0FD90002FE0F57ABE
:101E1900900031E0FB79007A00C005A87A7D00C303
:101E2900E998EA9DD005400122C2B4E92EF8EA3FBB
:101E3900FC88828C83E0FCD2B4ECB5055CC0058BD0
:101E4900820BC007C006C005C003C002C001120F43
:101E590036902A4575F080120CC4D001D002D00307
:101E6900D005D0068E008905ED28F87D008D82C049
:101E790006C005C003C002C001C000120F36D00061
:101E89008882120F3675820A120C56D001D002D000
:101E990003D005D006D007D00509B900010A021EF2
:101EA9002290D6BA1208BDE4F508F509900000128F
:101EB900012F7582021201499000377401F09000D8
:101EC90036E4F0902C9275F080120CC4121116AF02
:101ED9008275820AC007120C56902A4875F0801242
:101EE9000CC41210AFAD82AE83900034EDF0EEA3B6
:101EF900F075820AC006C005120C56902AA875F022
:101F090080120CC4121116AC8275820AC004120C1C
:101F190056D004D005D006D0077B0079007A00C0DE
:101F290005C0068C007E00C3E998EA9ED006D0055C
:101F39005026C004C2B4E92DF8EA3EFC88828C839D
:101F4900E0FCD2B4ECB507028004D0048003D004CD
:101F59000B09B900CA0A80C78B82C007C006C00531
:101F6900C004C003120F36D003D004D005D006D068
:101F790007BB0F00502690002FEBF0900030EFF0D8
:101F8900900031E4F08B798D828E83C007C004C044
:101F990003121DC6D003D004D007802B90002F74E4
:101FA9000FF0900030EFF0900031E4F08B798D82E2
:101FB9008E83C007C004C003121DC6D003D004D04D
:101FC900079000377402F0C3740F9BE433FE8B7DD6
:101FD9008BF0EC84F57B8B02EA7003022089C00345
:101FE9008A00790075080F890988828983C007C02A
:101FF90006C003C0021224BEE5828583F0D002D058
:1020090003D006D0072401F8E435F0F9900037E051
:102019007C00B50008ECB50104D0038022D003EAA6
:1020290024F0501B902ABB75F080C007C006C0037E
:10203900C002120CC4D002D003D006D00780419050
:102049000037E0FCBC0102801EEE601B902ACD75B2
:10205900F080C007C006C003C002120CC4D002D071
:1020690003D006D0078019902AE375F080C007C015
:1020790006C003C002120CC4D002D003D006D00798
:10208900902B0575F080C007C006C003C002120C72
:10209900C4120D5DAC82D002D003D006D007BC4279
:1020A900028003022131C003A87B790008B800012E
:1020B90009900037E0F57CAB7C7D00EBB50008EDBD
:1020C900B50104D0038061D003900034E0F9A3E0A6
:1020D900FD740F29F9E43DFD900034E9F0EDA3F01A
:1020E900900036E0240FF0900034E0F9A3E0FD9071
:1020F9000036E0F890002F740FF0900030EFF09068
:102109000031E8F0857D7989828D83C007C006C0DA
:1021190003C002121DC6D002D003D006D00790001A
:1021290037E57C04F0021FE1BC4170900037E0FD07
:10213900BD01028066C006900034E0F8A3E0F9E82A
:1021490024F1F8E934FFF9900034E8F0E9A3F090BC
:102159000036E024F1F0900034E0F8A3E0F99000B3
:1021690036E0FE90002F740FF0900030EFF09000F1
:1021790031EEF08B7988828983C007C006C005C01B
:1021890003C002121DC6D002D003D005D006D00765
:10219900ED14900037F0D006021FE1BC3101220294
:1021A9001FE122D2B4852782852883E0F58222D2D5
:1021B900B4852982852A83E0F58222AF8290D6BA36
:1021C900C0071208BDE4F508F50990000012012FB7
:1021D900758202120149902CA875F080120CC4D0A6
:1021E900078F82120F3675820A120C56902B0575CD
:1021F900F080120CC4902CB675F080020CC4AF822A
:1022090090D6BAC0071208BDE4F508F50990000098
:1022190012012F758202120149902CCC75F080129F
:102229000CC4D0078F82120F3675820A120C569091
:102239002B0575F080120CC4902CB675F080020C39
:10224900C490D6BA1208BDE4F508F5099000001249
:10225900012F7582021201491221AC1221C4120DFB
:102269005DAF82BF3101229001F412009A85278265
:102279008528831200891221C480E390D6BA1208F6
:10228900BDE4F508F50990000012012F75820212CC
:1022990001491221B8122207120D5DAF82BF310127
:1022A900229001F412009A852982852A83120089D5
:1022B90012220780E37582021201617582031201FD
:1022C9004990D6BA1208BD7508BA7509D6900000AA
:1022D90012013CE4F508F50990000012012F902C39
:1022E900DA75F080120CC4902CE975F080120CC4D8
:1022F900758202120149902CF475F080120CC49079
:102309002D0475F080120CC4902D0D75F080120CFF
:10231900C4902D1775F080120CC4902D2075F08093
:10232900120CC4902D2975F080120CC4902D3275B1
:10233900F080120CC4902D3C75F080120CC4902DC5
:102349004C75F080020CC4750800852582852683AA
:1023590012007912028A9000001208BD75820012DB
:102369000161754D1F754E007582141207161222F0
:10237900BE120D5DAF82BF31028028BF32028028B4
:10238900BF33028028BF3402802DBF3502802DBFA4
:102399003602802DBF37028032BF41028014BF420E
:1023A900CD80231216DC80C61212A180C11215A09D
:1023B90080BC12177280B712192180B2121AFF80DD
:1023C900AD121EAA80A812224A80A3122284809EDE
:1024FA0000000000003E5B4F5B3E3E6B4F6B3E1C94
:10250A003E7C3E1C183C7E3C181C577D571C1C5EAA
:10251A007F5E1C00183C1800FFE7C3E7FF00182481
:10252A001800FFE7DBE7FF30483A060E262979292B
:10253A0026407F050507407F05253F5A3CE73C5A60
:10254A007F3E1C1C08081C1C3E7F14227F22145F3D
:10255A005F005F5F06097F017F006689956A606098
:10256A0060606094A2FFA29408047E040810207E92
:10257A00201008082A1C08081C2A08081E10101017
:10258A00100C1E0C1E0C30383E3830060E3E0E065D
:10259A00000000000000005F0000000700070014B0
:1025AA007F147F14242A7F2A12231308646236496F
:1025BA005620500008070300001C22410000412257
:1025CA001C002A1C7F1C2A08083E0808008070305C
:1025DA0000080808080800006060002010080402CB
:1025EA003E5149453E00427F4000724949494621D1
:1025FA0041494D331814127F1027454545393C4A45
:10260A00494931412111090736494949364649495B
:10261A00291E0000140000004034000000081422A3
:10262A004114141414140041221408020159090611
:10263A003E415D594E7C1211127C7F494949363E12
:10264A00414141227F4141413E7F494949417F09F8
:10265A000909013E414151737F0808087F00417F03
:10266A0041002040413F017F081422417F40404001
:10267A00407F021C027F7F0408107F3E4141413E99
:10268A007F090909063E4151215E7F09192946261B
:10269A004949493203017F01033F4040403F1F201F
:1026AA0040201F3F4038403F6314081463030478F6
:1026BA0004036159494D43007F4141410204081016
:1026CA0020004141417F0402010204404040404051
:1026DA00000307080020545478407F2844443838BF
:1026EA0044444428384444287F3854545418000831
:1026FA007E090218A4A49C787F0804047800447D0B
:10270A0040002040403D007F1028440000417F40A7
:10271A00007C047804787C080404783844444438FB
:10272A00FC1824241818242418FC7C0804040848DB
:10273A005454542404043F44243C4040207C1C202C
:10274A0040201C3C4030403C44281028444C909087
:10275A00907C4464544C44000836410000007700E1
:10276A0000004136080002010204023C2623263CEE
:10277A001EA1A161123A4040207A38545455592179
:10278A005555794122545478422155547840205461
:10279A005579400C1E5272123955555559395454AF
:1027AA00545939555454580000457C410002457D1E
:1027BA00420001457C407D1211127DF0282528F047
:1027CA007C545545002054547C547C0A097F493274
:1027DA00494949323A4444443A324A4848303A41EB
:1027EA0041217A3A42402078009DA0A07D3D424294
:1027FA00423D3D4040403D3C24FF2424487E49431D
:10280A00662B2FFC2F2BFF0929F620C0887E09038F
:10281A0020545479410000447D413048484A3238B6
:10282A004040227A007A0A0A727D0D19317D2629E2
:10283A00292F28262929292630484D4020380808DA
:10284A00080808080808382F10C8ACBA2F1028340E
:10285A00FA00007B000008142A142222142A140801
:10286A00AA005500AAAA55AA55AA000000FF0010FE
:10287A001010FF00141414FF001010FF00FF1010B6
:10288A00F010F0141414FC001414F700FF0000FFF9
:10289A0000FF1414F404FC141417101F10101F1056
:1028AA001F1414141F00101010F0000000001F1055
:1028BA001010101F10101010F010000000FF101060
:1028CA0010101010101010FF10000000FF1400006C
:1028DA00FF00FF00001F10170000FC04F414141777
:1028EA0010171414F404F40000FF00F7141414145D
:1028FA00141414F700F7141414171410101F101FCF
:10290A00141414F4141010F010F000001F101F001B
:10291A0000001F14000000FC140000F010F010105A
:10292A00FF10FF141414FF141010101F00000000F1
:10293A00F010FFFFFFFFFFF0F0F0F0F0FFFFFF00E5
:10294A0000000000FFFF0F0F0F0F0F3844443844F8
:10295A00FC4A4A4A347E02020606027E027E02636C
:10296A00554941633844443C04407E201E200602F7
:10297A007E020299A5E7A5991C2A492A1C4C7201D4
:10298A00724C304A4D4D303048784830BC625A4615
:10299A003D3E494949007E0101017E2A2A2A2A2A06
:1029AA0044445F444440514A444040444A514000F0
:1029BA0000FF0103E080FF000008086B6B08361275
:1029CA00362436060F090F060000181800000010FA
:1029DA0010003040FF0101001F01011E00191D17E0
:1029EA0012003C3C3C3C00000000003134374532C8
:1029FA00353830333639464142434457656C636F44
:102A0A006D650A004543454E2D343333300A005272
:102A1A006F746174696F6E203000526F74617469EB
:102A2A006F6E203100526F746174696F6E203200CC
:102A3A00526F746174696F6E2033003A2000456EDC
:102A4A007465722073746172742061646472657350
:102A5A00733A0A00456E7465722064617461207469
:102A6A007970650A00422D427974652C20412D57F0
:102A7A006F72642C0A00442D446F75626C6520776E
:102A8A006F72640A00427974650A00576F72640AA9
:102A9A0000446F75626C6520776F72640A00456E38
:102AAA0074657220626C6F636B2073697A653A0A87
:102ABA00005072657373204220666F72206E6578CB
:102ACA00740A005072657373204120666F72207019
:102ADA00726576696F75730A005072657373204167
:102AEA0020666F722070726576696F75732C20424A
:102AFA0020666F72206E6578740A0050726573736F
:102B0A00203120666F72206D656E750A00456E74FD
:102B1A006572206279746520746F20636865636BDF
:102B2A000A00496E2070726F67726573732E2E2EBB
:102B3A000A004D656D6F727920636865636B206664
:102B4A0061696C65640A0053756363657373210A6E
:102B5A00005072657373203120666F72206D656E46
:102B6A007500456E74657220627974650A00456E57
:102B7A0074657220616464726573730A00496E2019
:102B8A0070726F67726573730A0020666574636892
:102B9A006564210A53756363657373210A00436888
:102BAA0065636B206661696C65640A00456E7465CD
:102BBA0072207461726765742061646472657373EC
:102BCA003A0A00456E7465722073697A653A0A009A
:102BDA004D6F766520696E2070726F6772657373C8
:102BEA002E2E2E0A00446F6E65210A00456E74650A
:102BFA0072206E657720627974653A0A00456E74B0
:102C0A00657220616464726573733A0A0050726572
:102C1A007373203220746F20656469742061676160
:102C2A00696E0A005072657373203320746F2065D1
:102C3A00646974206E657874206164647265737364
:102C4A000A00456E746572206279746520746F207B
:102C5A007365617263683A0A004E6F6E6520666F2B
:102C6A00756E64210A004E6F206D61746368657326
:102C7A0020666F756E640A00206D617463686573FF
:102C8A0020666F756E640A00456E746572206279FB
:102C9A00746520746F20636F756E743A0A00546508
:102CAA006D70657261747572653A20005072657351
:102CBA0073206B657920746F20726566726573681C
:102CCA000A004C69676874206C6576656C3A200066
:102CDA004272616E646F6E20436C696E650A0045CC
:102CEA0043454E20343333300A00313A204261736F
:102CFA00696320636865636B0A00323A2044756D24
:102D0A00700A00333A20436865636B0A00413A202F
:102D1A004D6F76650A00343A20456469740A0035B5
:102D2A003A2046696E640A00363A20436F756E741B
:102D3A000A00423A2054656D706572617475726555
:0C2D4A000A00373A204C696768740A00E0
:1023D9007A10E4FBFCE58225E0F582E58333F58399
:1023E900EB33FBEC33FCEB9508F5F0EC9509400673
:0923F900FCABF0438201DADD22A5
:06003500E478FFF6D8FD9F
:100013007900E94400601B7A00902D56783875A06A
:1000230000E493F2A308B8000205A0D9F4DAF2754C
:02003300A0FF2C
:10240200E5828508F0A4C582C0F08509F0A4D0F069
:1024120025F0C5838508F0A42583F58322E50845C8
:102422000960467A01E50825E0F508E5093340121E
:10243200F509E5829508E583950940030A80E6C31C
:10244200E50913F509E50813F508C3E5829508F5D2
:10245200F0E58395094005F58385F082C3E509130C
:0A246200F509E50813F508DAE12298
:10003B007800E84400600A790175A000E4F309D860
:10004B00FC7837E84400600C7901900001E4F0A3E0
:04005B00D8FCD9FAFA
:0D00060075817D1224F6E58260030200037F
:10246C0020F71430F6148883A88220F507E6A88399
:10247C0075830022E280F7E49322E022C2D5E58343
:10248C0030E70DD2D5E4C39582F582E49583F583CC
:10249C00E50930E70BE4C39508F508E49509F5095F
:1024AC0012241F30D50BE4C39582F582E49583F595
:1024BC008322C2D5E58330E70DD2D5E4C39582F5EE
:1024CC0082E49583F583E50930E70DB2D5E4C39535
:1024DC0008F508E49509F5091223D930D50BE4C3A6
:0E24EC009582F582E49583F5832275820022A5
:00000001FF
