:03000000020006F5
:10005F00752300752440752500752680752700755A
:0A006F0028C0E4F529F52A02000379
:03000300021E8951
:10007900AE82AF83D2B48E828F83E508F0C2B422F8
:10008900AE82AF83D2B48E828F83E0FEC2B48E82F9
:1000990022AE82AF837C007D008C028D03C3EA9E71
:1000A900EB64808FF063F08095F050147AE87B035D
:1000B9001ABAFF011BEA4B70F70CBC00DC0D80D9A2
:1000C90022AF82C2B5D2B4852382852483EFF0C2E0
:1000D900B4D2B5D2B4852382852483E508F0C2B4AD
:1000E90022AE82AF838F05C2B5D2B485238285241F
:1000F90083EDF0C2B4C2B5D2B4852382852483EEE0
:10010900F0C2B4AF09AE08D2B5D2B5D2B485238254
:10011900852483EFF0C2B4D2B5D2B4852382852475
:1001290083EEF0C2B42285822D85832E85082F8522
:10013900093022858233858334850835850936223D
:10014900E582FF24F7500122EF60068F067F0080C9
:10015900047E017F008E3122E582FF24FC406AEF94
:100169002F90016E738006801B803080457F4890F8
:10017900000174F0F0E4A3F09000037440F07401FE
:10018900A3F0805A7F289000017440F07401A3F015
:1001990090000374F0F0E4A3F080437F889000019D
:1001A90074F0F0E4A3F09000037440F07401A3F03C
:1001B900802C7FE89000017440F07401A3F0900056
:1001C9000374F0F0E4A3F080157F4890000174F007
:1001D900F0E4A3F09000037440F07401A3F08F08D9
:1001E9007582360200CAAE82AF83C2B5D2B4852306
:1001F90082852483742AF0C2B4D2B5D2B48523820D
:100209008524838F05EDF0C2B4D2B5D2B48523829B
:10021900852483EEF0C2B4D2B5D2B4852382852475
:1002290083E50BF0C2B4D2B5D2B485238285248389
:10023900E50AF0C2B4C2B5D2B48523828524837499
:100249002BF0C2B4D2B5D2B4852382852483E509C3
:10025900F0C2B4D2B5D2B4852382852483E508F0EF
:10026900C2B4D2B5D2B4852382852483E50DF0C208
:10027900B4D2B5D2B4852382852483E50CF0C2B407
:100289002290000174F0F0E4A3F09000037440F0B0
:100299007401A3F0C2B4D2B5C2B5D2B485238285A4
:1002A9002483E4F0C2B4D2B5D2B4852382852483F1
:1002B900E4F0C2B4D2B5D2B4852382852483E4F0B4
:1002C900C2B4D2B5D2B4852382852483E4F0C2B402
:1002D9009000C812009A7508007582011200CA9030
:1002E900003212009A7508007582281200CA90001F
:1002F9000A12009A7508237582C01200CA7508117E
:100309007582C11200CAC2B5D2B4852382852483FD
:1003190074C5F0C2B4D2B5D2B4852382852483745E
:100329003DF0C2B4D2B5D2B485238285248374301A
:10033900F0C2B47508AA7582C71200CA7508887513
:1003490082361200CAC2B5D2B48523828524837449
:100359003AF0C2B4D2B5D2B48523828524837455C8
:10036900F0C2B4D2B5D2B4852382852483E4F0C225
:10037900B475081B7509009000B11200EA750807E9
:100389007582B71200CA7508007582111200CA90E9
:10039900009612009A7508007582291200CA900108
:1003A900F412009A900001E0FEA3E0FF1EBEFF01D7
:1003B9001F8E0A8F0B900003E0FEA3E0FF1EBEFF15
:1003C900011F8E0C8F0DE4F508F50990000002015C
:1003D900EFAE82AF838E048F050CBC00010D8C0A31
:1003E9008D0BAC37AD380CBC00010D8C0C8D0D8517
:1003F90037088538098E828F831201EFC2B5D2B4CE
:10040900852382852483742CF0C2B4D2B5D2B485F5
:100419002382852483E53AF0C2B4D2B48523828548
:100429002483E539F0C2B42285824185834274016F
:10043900C3953DFCE4953EFD900005ECF0EDA3F07D
:10044900853D08853E0990FFFE121F31AC82AD83C0
:10045900AA3DAB3EE53D253BF537E53E353CF53854
:10046900853F3985403A854182854283C005C0046C
:10047900C003C0021203DAE53BC3953DF537E53CFD
:10048900953EF538853F3985403A854182854283D5
:100499001203DAE53D2541F582E53E3542F58385CE
:1004A9003B37853C38853F3985403A1203DAE541C7
:1004B900C3953DF582E542953EF583853B37853CFD
:1004C90038853F3985403A1203DAD002D003D00487
:1004D900D005780079007543018944C3E89AE96435
:1004E900808BF063F08095F0400122900005E0F5E3
:1004F90045A3E0F54620E7181ABAFF011B74022C40
:10050900FCE43DFD900005EC2545F0ED3546A3F0F2
:10051900C004C00508B800010974022543F543E485
:100529003544F544900005E0FEA3E0FF900005E5A1
:10053900432EF0E5443FA3F0AE41AF42E82EFCE97B
:100549003FFD8C458D46853B47853C48EA2547FC60
:10055900EB3548FD8C498D4A854937854A38853FB1
:100569003985403A854582854683C007C006C0055E
:10057900C004C003C002C001C0001203DAD000D019
:1005890001D002D003D004D005D006D007EEC3981D
:10059900FCEF99FD8C4B8D4C854937854A38853F51
:1005A9003985403A854B82854C83C007C006C00512
:1005B900C004C003C002C001C0001203DAD000D0D9
:1005C90001D002D003D004D005E547C39AFCE54821
:1005D9009BFD8C378D38853F3985403A8545828525
:1005E9004683C005C004C003C002C001C000120395
:1005F900DAD000D001D002D003D004D0058C378DD9
:1006090038853F3985403A854B82854C83C005C082
:1006190004C003C002C001C0001203DAD000D00137
:10062900D002D003D004D005D006D007EA2EFCEBC7
:100639003FFD8C4B8D4CE82547FCE93548FD8C374F
:100649008D38853F3985403A854B82854C83C00773
:10065900C006C005C004C003C002C001C000120327
:10066900DAD000D001D002D003D004D005D006D012
:1006790007EEC39AFEEF9BFF8C378D38853F39858E
:10068900403A8E828F83C007C006C005C004C003EC
:10069900C002C001C0001203DAD000D001D002D0DC
:1006A90003D004D005E547C398FCE54899FD8C378C
:1006B9008D38853F3985403A854B82854C83C00505
:1006C900C004C003C002C001C0001203DAD000D0C8
:1006D90001D002D003D004D005D006D0078C378DC5
:1006E90038853F3985403A8E828F83C005C004C062
:1006F90003C002C001C0001203DAD000D001D00249
:10070900D003D004D005D005D0040204E485824F7B
:10071900AD4F7E00ED2DFBEE33FC900001E0F9A317
:10072900E0FAED29F9EE3AFA900003E0FFA3E0F8C8
:10073900ED2FFFEE38FE900007E4F0A3F0900007DC
:10074900E0F8A3E0FDC3E899ED64808AF063F080E6
:1007590095F0400122900009E4F0A3F0900009E02F
:10076900F550A3E0F551C3E5509FE55164808EF043
:1007790063F08095F0504788828D8385503B855181
:100789003C854F3D753E00854D3F854E40C007C0B5
:1007990006C005C004C003C002C001C00012043174
:1007A900D000D001D002D003D004D005D006D007A4
:1007B900900009EB2550F0EC3551A3F0809E900094
:1007C90007E0F8A3E0FD900007EB28F0EC3DA3F06B
:1007D900020746AE82AF838E048F05C3EC94F0ED19
:1007E9009400500DAC52AD53C3EC9440ED940140CC
:1007F9000122E5542EFCE5553FFD1CBCFF011DC33C
:10080900EC94F0ED9400400A74F0C39EF554E49F13
:10081900F555E5562552FCE5573553FD1CBCFF013E
:100829001DC3EC9440ED9401400D7440C39552F5FD
:100839005674019553F557E5542EFCE5553FFD1CBB
:10084900BCFF011D8C0A8D0BE5562552FCE5573579
:1008590053FD1CBCFF011D8C0C8D0D855208855361
:10086900098E828F831201EFC2B5D2B485238285A6
:100879002483742CF0C2B4D2B5AF59AD56AE57ED3E
:100889004E6030AB54AC55EB4C6021D2B485238219
:10089900852483EFF0C2B4D2B4852382852483E50D
:1008A90058FAF0C2B41BBBFF011C80DB1DBDFF0160
:1008B9001E80CC22AE82AF838F05E4F508F5097559
:1008C9000AEFF50B750C3F750D01900000C006C0CD
:1008D900051201EFD005D006C2B5D2B485238285B1
:1008E9002483742CF0C2B4D2B5D2B4852382852472
:1008F90083EDF0C2B4D2B4852382852483EEF0C29D
:10090900B47CB07F048C028F031CBCFF011FEA4B2F
:1009190060667B10D2B4852382852483EDF0C2B44E
:10092900D2B4852382852483EEF0C2B4D2B4852360
:1009390082852483EDF0C2B4D2B4852382852483D1
:10094900EEF0C2B4D2B4852382852483EDF0C2B41B
:10095900D2B4852382852483EEF0C2B4D2B4852330
:1009690082852483EDF0C2B4D2B4852382852483A1
:10097900EEF0C2B4DB9E808D7F3F8F041FEC601ABE
:10098900D2B4852382852483EDF0C2B4D2B4852301
:1009990082852483EEF0C2B480E022AE82AF83C3A5
:1009A900EE94F0EF648094805067AC5AAD5BC3EC71
:1009B9009440ED648094815058AA617B008A088B29
:1009C90009900006C007C006C005C004C003C002E4
:1009D900121F31A882A983D002D003D004D005D038
:1009E90006D007E82EF8E93FF918B8FF0119E92000
:1009F900E71FEBC40354F8CAC403CA6ACA54F8CA45
:100A09006AFBEA2CFAEB3DFB1ABAFF011BEB30E754
:100A190001227401B5610474018001E4FB8B68E56E
:100A29005DB55F08E55EB56003D38001C3920079C7
:100A390000B9050790000BE4F08049855C08750949
:100A490000900005C007C006C005C004C003C0016E
:100A5900121F31A882AA83D001D003D004D005D0B7
:100A690006D007E82429F562EA3420F563E9F8336A
:100A790095E0FAE82562F582EA3563F583E493FAAD
:100A890090000BF0C2D58561F0E930E704B2D5F4E6
:100A990004A430D50AF42401C5F0F43400C5F02EBD
:100AA900F562EF35F0F563890085626485636589D0
:100AB9006675670090000BE020E003020B7CEB6099
:100AC9004EC000E566F83395E0FAE82EF8EA3FFAF9
:100AD90088828A83E567F83395E0FAE82CF8EA3DDD
:100AE900FA88378A38855D39855E3AC007C006C0FD
:100AF90005C004C003C001C0001203DAD000D00150
:100B0900D003D004D005D006D007D000020C33C0E2
:100B190000856482856583C2D58561F0E56730E724
:100B290004B2D5F404A430D50AF42401C5F0F43490
:100B390000C5F02CF8ED35F0FA88528A53A8617A8D
:100B49000088548A5588568A57855D58855E59C0EC
:100B590007C006C005C004C003C001C0001207DCFD
:100B6900D000D001D003D004D005D006D007D000E2
:100B7900020C33300003020C33E568604CC003E813
:100B8900FA3395E0FBEA2EFAEB3FFB8A828B83E589
:100B990067FA3395E0FBEA2CFAEB3DFB8A378B3891
:100BA900855F3985603AC007C006C005C004C00327
:100BB900C001C0001203DAD000D001D003D004D0A4
:100BC90005D006D007D0038061C0008562828563A5
:100BD90083C2D58561F0E56730E704B2D5F404A492
:100BE90030D50AF42401C5F0F43400C5F02CF8ED31
:100BF90035F0FA88528A53A8617A0088548A558850
:100C0900568A57855F58856059C007C006C005C018
:100C190004C003C001C0001207DCD000D001D0031A
:100C2900D004D005D006D007D00090000BE0C31344
:100C3900FAF00567C3E567648094885003020ABD2A
:100C490009C3E9648094865003020A3A22AF82BF3D
:100C59000A26AD31E4C40354F8CDC403CD6DCD5497
:100C6900F8CD6DFEAB2FAC30ED2BFBEE3CFC8B2FA2
:100C79008C30E4F52DF52E22BF0D0122852F5A85E2
:100C8900305B8F5C85335D85345E85355F85366085
:100C9900853161852D82852E831209A485310875D8
:100CA9000900900006121F31AE82AF83AC2DAD2E24
:100CB900EE2CFCEF3DFD8C2D8D2E22AD82AE83AF47
:100CC900F07B007C00EB2DF8EC3EF98F02888289DD
:100CD900838AF0121F9BFA60208A82C007C006C06F
:100CE90005C004C003120C56D003D004D005D006A9
:100CF900D0070BBB00CF0C80CC22E58290000CF012
:100D0900E0FF7B007C007D007E00C2B48B828C8377
:100D1900EFF0D2B40BBB00090CBC00050DBD0001FE
:100D29000EC3EB94FFEC94FFED9400EE940040DACF
:100D39002290000DE4F090000DE0FFBF080D900037
:100D49000DE4F075820A120C568006120D63120C1E
:100D59005690000DE02401F080DC7590F07590F05C
:100D69008590215321F074F0B521F29000141200FE
:100D79009AE59054F0F52174F0B5210280ED9000C8
:100D89000112009AE59054F0F52174F0B521028022
:100D9900DA7590FEE59054F0F52174F0B5210280E2
:100DA90005752200803D7590FDE59054F0F521749C
:100DB900F0B52102800575220180287590FBE59028
:100DC90054F0F52174F0B5210280057522028013D3
:100DD9007590F7E59054F0F52174F0B5210280B1D2
:100DE90075220374E0B52115E52275F004A42424C5
:100DF900F582742535F0F583E493F5822274D0B534
:100E09002118E52275F004A42424FE742535F0FF89
:100E19008E828F83A3E493F5822274B0B52119E5FC
:100E29002275F004A42424FE742535F0FF8E828FE8
:100E390083A3A3E493F58222E52275F004A4242474
:100E4900FE742535F0FF8E828F83A3A3A3E493F567
:100E59008222AF8290000EE4F0A3F0BF010040634C
:100E69008F057E0075080A8E098D828E83C006C0A3
:100E790005121FB7AB82AC83D005D006900010EBEA
:100E8900F0ECA3F075080A7509008D828E83121F94
:100E9900EDAD828D0790000EE0FDA3E0FE8D088E7A
:100EA9000990000AC007121F31AD82AE83D00790A6
:100EB9000010E0FBA3E0FC90000EEB2DF0EC3EA34C
:100EC900F0809890000EE0FEA3E08E82F58322E583
:100ED90082900012F0E0F582120E5BE5828583F0C4
:100EE900900014F0E5F0A3F0900014E0FEA3E0FFF9
:100EF900C3EE9401EF9400404275080A7509008E0B
:100F0900828F83C007C006121F4EAC82D006D0075D
:100F1900900013ECF075080A7509008E828F831210
:100F29001F08AE82AF83900014EEF0EFA3F090009B
:100F390013E02430F582120C5680AD22AF82756918
:100F490000756A007E00BF0100405A8F047D00745D
:100F59000F5CFA7508108D098C828D83C006C0025A
:100F6900121FEDAC82D002D0068C07EA24F6400CA1
:100F7900EE2469F98A0574302DF78026EE2469F983
:100F89007D0075080A8D098A828D83C007C006C055
:100F990001121FB7AC82AD83D001D006D0077441CE
:100FA9002CF70E80A1856A82120C56856982020C83
:100FB90056E582FF24C6920140088F06EE24D0FE32
:100FC900800474C92FFE8E822290F8001208BD9009
:100FD900001412009A9007E01208BD900014120044
:100FE9009A7582001201619000001208BD754D00CA
:100FF900754EF875821412071690006412009A90C3
:1010090000001208BD758205120149E4F508F509C9
:101019009007FF12013C90253475F080120CC475BD
:10102900820312014990253D75F080120CC4902568
:101039004875F080120CC49000C812009A90000004
:101049001208BD758201120161E4F508F5099000E5
:101059000012012F90255375F080120CC49001F4F1
:1010690012009A9000001208BD758202120161E413
:10107900F508F50990000012012F90255E75F080A2
:10108900120CC49001F412009A9000001208BD7568
:101099008203120161E4F508F50990000012012F9D
:1010A9009000C812009A90256975F080120CC490BE
:1010B90000C802009A900016E4F0A3F07F00C00770
:1010C900120D63AE82C006120C56D0068E82120F24
:1010D900BAAE82D007900016E0FCA3E0FD7B009039
:1010E9000016EE4CF0EB4DA3F0BF0302801C9000FC
:1010F90016E0FDA3E0C454F0CDC4CD6DCD54F0CDC0
:101109006DFE900016EDF0EEA3F00FBF040040AEA7
:10111900900016E0FEA3E08E82F58322900018E489
:10112900F07F00C007120D63AE82C006120C56D0C4
:10113900068E82120FBAAE82D007900018E04EF0E8
:10114900BF01028009900018E0C454F0FEF00FBFFF
:10115900020040CF900018E0F58222AF83E582902B
:10116900001BF0EFA3F090D6BA1208BDE4F508F51C
:101179000990000012012F758202120149E4F56BF2
:10118900F56C90001AE0FD900019E0F5F0EDA4FB74
:10119900ACF0A96BAA6C8B008C07C3E998EA9F4055
:1011A900012290001BE0FEA3E0FFEE256BF9EF356D
:1011B9006CFAB9FF04BAFF0122C003C004C2B48D9E
:1011C90008750900856B82856C83C007C006C00558
:1011D900C004C003121F31E5828583F0D003D00417
:1011E900D005D006D0072EF9EF35F0FA89008A0428
:1011F900D2B48A82AF6B8FF0EDA42EFEC006C00573
:10120900C004C003C000120F45D000D003D004D0E1
:1012190005D0068E82C005C004C003C000120F4568
:1012290090257475F080120CC4D000D003D004D07E
:1012390005886D8C6E756F00D004D003C3E56F9D72
:10124900502CC2B4856D82856E83E0FF7402256DD2
:10125900F56DE4356EF56ED2B48F82C005C004C059
:1012690003120F45D003D004D005056F80CE7582D7
:101279000AC005C004C003120C56D003D004D0051F
:101289008D067F00A96BAA6CEE29F9EF3AFA896BF2
:101299008A6C02119B90D6BA1208BDE4F508F509CB
:1012A90090000012012F75820212014990001E74EC
:1012B90001F090257775F080120CC41210BEAE8231
:1012C900AF8390001FEEF0EFA3F075820AC007C04C
:1012D90006120C5690258D75F080120CC490259E2F
:1012E90075F080120CC49025AF75F080120CC4D033
:1012F90006D007C007C006120D63AD82D006D0071D
:1013090090001DEDF0BD41028023BD42028005BD64
:10131900444B803290001D7401F09025BE75F08019
:10132900C007C006120CC4D006D007803090001D3B
:101339007402F09025C475F080C007C006120CC471
:10134900D006D007801790001D7404F09025CA7547
:10135900F080C007C006120CC4D006D00790001D4B
:10136900E0FDBD0102800DBD02028008BD040280BE
:10137900030212FC9025D775F080C007C006120C35
:10138900C4121125AD8275820AC005120C56D0050A
:10139900D006D007BD0F00501C90001DE0FC900046
:1013A90019EDF090001AECF08E828F83C0051211AE
:1013B90064D005801B90001DE0FC900019740FF0AB
:1013C90090001AECF08E828F83C005121164D0054B
:1013D9007F0075080F8F098D828F83121FEDAE82F2
:1013E90090001DE0FFFD90001EE0FCBC010280267C
:1013F900ECB5060280209025EA75F080C007C0068A
:10140900C005120CC490260075F080120CC4D005DA
:10141900D006D007803B90001EE0FCB5060280177D
:1014290090260075F080C007C006C005120CC4D014
:1014390005D006D007801ABC010280159025EA75EF
:10144900F080C007C006C005120CC4D005D006D074
:101459000790261275F080C007C006C005120CC49B
:10146900120D63AC82D005D006D007BC425490005F
:101479001EE0FBB50602804A90001FE0F9A3E0FADE
:10148900740F29F9E43AFA90001FE9F0EAA3F09001
:10149900001FE0F9A3E0FA900019740FF090001A08
:1014A900EFF089828A83C007C006C005C003121104
:1014B90064D003D005D006D00790001EEB04F002DB
:1014C90013EFBC415590001EE0FBBB0102804B901D
:1014D900001FE0F9A3E0FAE924F1F9EA34FFFA90F0
:1014E900001FE9F0EAA3F090001FE0F9A3E0FA90E9
:1014F9000019740FF090001AEDF089828A83C007F1
:10150900C006C005C003121164D003D005D006D0AF
:1015190007EB1490001EF00213EFBC3101220213F5
:10152900EF2290D6BA1208BDE4F508F5099000003B
:1015390012012F758202120149900022E4F09026CF
:101549002475F080120CC4121125E582900021F057
:1015590075820A120C5690263975F080120CC47ED9
:10156900007F00C2B48E048F05900021E0FBF97A58
:10157900008C828D83E9F0EAA3F0D2B4E9B50302C5
:1015890080438B82C005C004C001120F45758220BB
:10159900120C56D0018982120F45758220120C5601
:1015A900D004D0058C828D83E0F582120F457582B7
:1015B9000A120C5690264975F080120CC49000222C
:1015C9007401F08078C2B4900021EBF4F0E0FBF9EB
:1015D9007A008C828D83E9F0EAA3F0D2B4E9B503ED
:1015E900028045EBF4F582C005C004C001120F4525
:1015F900758220120C56D0018982120F45758220FE
:10160900120C56D004D0058C828D83E0F582120F1E
:101619004575820A120C5690264975F080120CC441
:101629009000227401F080150EBE00010F8E048F08
:1016390005C3EC94FFED94FF500302156C90002252
:10164900E0600990265E75F080120CC490266875DA
:10165900F080120CC4120D63AF82BF31F82290D60C
:10166900BA1208BDE4F508F50990000012012F75BA
:10167900820212014990267975F080120CC4121168
:1016890025AF8275820AC007120C5690268575F01F
:1016990080120CC41210BEAD82AE8375820AC006D8
:1016A900C005120C5690269475F080120CC4D00512
:1016B900D006D007C2B48D828E838F057E00EDF0EF
:1016C900EEA3F0D2B4EDB507108D82120F45902626
:1016D900A175F080120CC480099026B575F08012AE
:1016E9000CC490261275F080120CC4120D63AF82DF
:1016F900BF31F82290D6BA1208BDE4F508F5099071
:10170900000012012F75820212014990257775F0A8
:1017190080120CC41210BEAE82AF8375820AC00754
:10172900C006120C569026C375F080120CC4121014
:10173900BEAC82AD8375820AC005C004120C5690F6
:1017490026DA75F080120CC4121125AB8275820A53
:10175900C003120C569026E775F080120CC4D00312
:10176900D004D005D006D00779007A00C004C0059E
:101779008B007D00C3E998EA9DD005D0045052C082
:1017890003EE29F8EF3AFBB8FF07BBFF04D003804B
:1017990040EC29F8ED3AFBB8FF07BBFF04D0038002
:1017A90030C2B4E92EF8EA3FFB88828B83E92CF832
:1017B900EA3DFB88708B71E0F87B0085708285714A
:1017C90083E8F0EBA3F0D2B409B900010AD0038091
:1017D9009B9026FC75F080120CC490261275F0803F
:1017E900120CC4120D63AF82BF31F822AF83E582B8
:1017F900900023F0EFA3F0900023E0FEA3E0FFFCAC
:101809008E058C82C007C006C005C004120F45D0E2
:1018190004D0058D82C005C004120F45902574754A
:10182900F080120CC4D004D005D006D007C2B48E03
:10183900828F83E0FBD2B48B82C007C006C005C08B
:1018490004120F4575820A120C5690270375F08011
:10185900120CC4121125AB8275820AC003120C56F0
:10186900D003D004D005D006D007C2B47A008E8246
:101879008F83EBF0EAA3F0D2B48C82C005C00312C7
:101889000F45D003D0058D82C003120F45902574F2
:1018990075F080120CC4D0038B82120F4575820A31
:1018A900020C5690D6BA1208BDE4F508F509900065
:1018B9000012012F75820212014990271475F080D8
:1018C900120CC41210BEAE82AF8375820AC007C063
:1018D90006120C56D006D0078E828F83C007C00629
:1018E9001217F5D006D00790261275F080C007C0F0
:1018F90006120CC490272475F080120CC490273B63
:1019090075F080120CC4120D63AD82D006D0079019
:101919000025EDF0BD310122BD322F90D6BAC007A6
:10192900C0061208BDE4F508F50990000012012F60
:10193900D006D0078E828F83C007C0061217F5D054
:1019490006D007900025E4F08035BD333290D6BA31
:10195900C007C0061208BDE4F508F5099000001299
:10196900012FD006D0070EBE00010F8E828F83C0D3
:1019790007C0061217F5D006D007900025E4F090AD
:101989000025E0FDBD310122BD320122BD33012216
:101999000218F02285827685837790D6BA1208BD1F
:1019A900E4F508F50990000012012F758202120171
:1019B90049E575700B90275975F080120CC4800F9A
:1019C900857582120F4590276B75F080120CC4AD96
:1019D900747C00C3EC9572400122C2B48C027B0076
:1019E900A876A977EA28FEEB39FF8E828F83E0FF7C
:1019F900D2B4EFB573548D820DC005C004C003C0C5
:101A090002C001C000120F4590257475F080120CB8
:101A1900C4D000D001D002D003D004D005EA28EB0D
:101A290039F582AE76EC2EFEC006C005C004120F51
:101A390045D004D005D0068E82C005C004120F45DA
:101A490075820A120C56D004D0050C0219DC90D606
:101A5900BA1208BDE4F508F50990000012012F75C6
:101A690082021201499000267401F0900027E4F0E7
:101A790090277B75F080120CC4121125AF827582F4
:101A89000AC007120C5690257775F080120CC41203
:101A990010BEAD82AE83900028EDF0EEA3F0758202
:101AA9000AC006C005120C569025D775F080120C95
:101AB900C4121125AC8275820AC004120C56D004D6
:101AC900D005D006D007757900757800C3E5789CF4
:101AD9005022C2B4A87879008D028E03E82AFAE967
:101AE9003BFB8A828B83E0FBD2B4EBB50702057915
:101AF900057880D8AB79C3740F9579E433FA602AF5
:101B090075720F8F737574008579758D828E83C098
:101B190007C004C003C00212199DD002D003D0042B
:101B2900D007900027740FF080228579728F737522
:101B390074008579758D828E83C007C004C003C087
:101B49000212199DD002D003D004D0077E00750877
:101B59000F8E098C828E83C007C003C002121FED4D
:101B6900AD82AE83D002D003D007900026E0FEBE3E
:101B79000102802DEEB505028027EA60249025EA4E
:101B890075F080C007C005C003C002120CC49026BE
:101B99000075F080120CC4D002D003D005D00780A4
:101BA9004D900026E0B50502801EEA601B902600D4
:101BB90075F080C007C005C003C002120CC4D00272
:101BC900D003D005D0078026900026E0FEBE010292
:101BD900801CEA60199025EA75F080C007C005C02D
:101BE90003C002120CC4D002D003D005D00790263E
:101BF9001275F080C007C005C003C002120CC412E0
:101C09000D63AE82D002D003D005D007BE310122C8
:101C1900BE4264900026E0FCB50502805AEA60578E
:101C2900900027E0240FF0900028E0F8A3E0F97471
:101C39000F28F8E439F9900028E8F0E9A3F09000BA
:101C490028E0F8A3E0F9900027E0F57475720F8F8A
:101C5900738B7588828983C007C005C004C003C01F
:101C69000212199DD002D003D004D005D0079000EC
:101C790026EC04F0021B73BE41028003021B739021
:101C89000026E0FEBE0103021B73EA7003021B7308
:101C9900900027E024F1F0900028E0F9A3E0FCE9A6
:101CA90024F1F9EC34FFFC900028E9F0ECA3F09062
:101CB9000028E0F9A3E0FC900027E0F57475720FA5
:101CC9008F738B7589828C83C007C006C005C003DA
:101CD900C00212199DD002D003D005D006D007EE5C
:101CE90014900026F0021B73D2B4852782852883BD
:101CF900E0F58222D2B4852982852A83E0F5822201
:101D0900AF8290D6BAC0071208BDE4F508F509906C
:101D1900000012012F90279175F080120CC4D00792
:101D29008F82120F4575820A120C5690261275F091
:101D390080120CC490279F75F080020CC4AF82906A
:101D4900D6BAC0071208BDE4F508F50990000012DB
:101D5900012F9027B575F080120CC4D0078F82121D
:101D69000F4575820A120C5690261275F080120CD6
:101D7900C490279F75F080020CC490D6BA1208BD92
:101D8900E4F508F50990000012012F75820212018D
:101D990049852782852883120089121D09120D633E
:101DA900AF82BF31012285278285288312008912DB
:101DB9001D0980E990D6BA1208BDE4F508F5099025
:101DC900000012012F758202120149852982852A94
:101DD90083120089121D46120D63AF82BF310122A1
:101DE900852982852A83120089121D4680E9758218
:101DF9000212016175820312014990D6BA1208BD17
:101E09007508BA7509D690000012013CE4F508F589
:101E19000990000012012F9027C375F080120CC49D
:101E29009027D275F080120CC47582021201499074
:101E390027DD75F080120CC49027ED75F080120C27
:101E4900C49027F675F080120CC490280075F080B4
:101E5900120CC490280975F080120CC490281275D0
:101E6900F080120CC490281B75F080120CC49028C5
:101E79002575F080120CC490283575F080020CC4C9
:101E890075080085258285268312007912028A90B9
:101E990000001208BD758200120161754D1F754E53
:101EA90000758214120716121DF7120D63AF82BF57
:101EB90031028023BF32028023BF33028023BF3423
:101EC900028028BF36028028BF3702802DBF410219
:101ED9008014BF42D2801E12166780CB12129E80D8
:101EE900C612152B80C11216FD80BC1218AC80B722
:0F1EF900121A5780B2121D8380AD121DBD80A832
:1020290000000000003E5B4F5B3E3E6B4F6B3E1C69
:102039003E7C3E1C183C7E3C181C577D571C1C5E80
:102049007F5E1C00183C1800FFE7C3E7FF00182457
:102059001800FFE7DBE7FF30483A060E2629792901
:1020690026407F050507407F05253F5A3CE73C5A36
:102079007F3E1C1C08081C1C3E7F14227F22145F13
:102089005F005F5F06097F017F006689956A60606E
:1020990060606094A2FFA29408047E040810207E68
:1020A900201008082A1C08081C2A08081E101010ED
:1020B900100C1E0C1E0C30383E3830060E3E0E0633
:1020C900000000000000005F000000070007001486
:1020D9007F147F14242A7F2A122313086462364945
:1020E9005620500008070300001C2241000041222D
:1020F9001C002A1C7F1C2A08083E08080080703032
:1021090000080808080800006060002010080402A0
:102119003E5149453E00427F4000724949494621A6
:1021290041494D331814127F1027454545393C4A1A
:102139004949314121110907364949493646494931
:10214900291E000014000000403400000008142279
:1021590041141414141400412214080201590906E7
:102169003E415D594E7C1211127C7F494949363EE8
:10217900414141227F4141413E7F494949417F09CE
:102189000909013E414151737F0808087F00417FD9
:1021990041002040413F017F081422417F404040D7
:1021A900407F021C027F7F0408107F3E4141413E6F
:1021B9007F090909063E4151215E7F0919294626F1
:1021C9004949493203017F01033F4040403F1F20F5
:1021D90040201F3F4038403F6314081463030478CC
:1021E90004036159494D43007F41414102040810EC
:1021F90020004141417F0402010204404040404027
:10220900000307080020545478407F284444383894
:1022190044444428384444287F3854545418000806
:102229007E090218A4A49C787F0804047800447DE0
:1022390040002040403D007F1028440000417F407D
:10224900007C047804787C080404783844444438D1
:10225900FC1824241818242418FC7C0804040848B1
:102269005454542404043F44243C4040207C1C2002
:1022790040201C3C4030403C44281028444C90905D
:10228900907C4464544C44000836410000007700B7
:1022990000004136080002010204023C2623263CC4
:1022A9001EA1A161123A4040207A3854545559214F
:1022B9005555794122545478422155547840205437
:1022C9005579400C1E527212395555555939545485
:1022D900545939555454580000457C410002457DF4
:1022E900420001457C407D1211127DF0282528F01D
:1022F9007C545545002054547C547C0A097F49324A
:10230900494949323A4444443A324A4848303A41C0
:1023190041217A3A42402078009DA0A07D3D424269
:10232900423D3D4040403D3C24FF2424487E4943F2
:10233900662B2FFC2F2BFF0929F620C0887E090365
:1023490020545479410000447D413048484A32388C
:102359004040227A007A0A0A727D0D19317D2629B8
:10236900292F28262929292630484D4020380808B0
:10237900080808080808382F10C8ACBA2F102834E4
:10238900FA00007B000008142A142222142A1408D7
:10239900AA005500AAAA55AA55AA000000FF0010D4
:1023A9001010FF00141414FF001010FF00FF10108C
:1023B900F010F0141414FC001414F700FF0000FFCF
:1023C90000FF1414F404FC141417101F10101F102C
:1023D9001F1414141F00101010F0000000001F102B
:1023E9001010101F10101010F010000000FF101036
:1023F90010101010101010FF10000000FF14000042
:10240900FF00FF00001F10170000FC04F41414174C
:1024190010171414F404F40000FF00F71414141432
:10242900141414F700F7141414171410101F101FA4
:10243900141414F4141010F010F000001F101F00F1
:1024490000001F14000000FC140000F010F0101030
:10245900FF10FF141414FF141010101F00000000C7
:10246900F010FFFFFFFFFFF0F0F0F0F0FFFFFF00BB
:1024790000000000FFFF0F0F0F0F0F3844443844CE
:10248900FC4A4A4A347E02020606027E027E026342
:10249900554941633844443C04407E201E200602CD
:1024A9007E020299A5E7A5991C2A492A1C4C7201AA
:1024B900724C304A4D4D303048784830BC625A46EB
:1024C9003D3E494949007E0101017E2A2A2A2A2ADC
:1024D90044445F444440514A444040444A514000C6
:1024E90000FF0103E080FF000008086B6B0836124B
:1024F900362436060F090F060000181800000010D0
:1025090010003040FF0101001F01011E00191D17B5
:1025190012003C3C3C3C000000000031343746329C
:10252900353830333639454142434457656C636F1A
:102539006D650A004543454E2D343333300A005248
:102549006F746174696F6E203000526F74617469C1
:102559006F6E203100526F746174696F6E203200A2
:10256900526F746174696F6E2033003A2000456EB2
:102579007465722073746172742061646472657326
:10258900733A0A00456E746572206461746120743F
:102599007970650A00422D427974652C20412D57C6
:1025A9006F72642C0A00442D446F75626C65207744
:1025B9006F72640A00427974650A00576F72640A7F
:1025C90000446F75626C6520776F72640A00456E0E
:1025D90074657220626C6F636B2073697A653A0A5D
:1025E900005072657373204120666F7220707265A6
:1025F90076696F75730A005072657373204220669D
:102609006F72206E6578740A005072657373203199
:1026190020666F72206D656E750A00456E7465726D
:10262900206279746520746F20636865636B0A00A2
:10263900496E2070726F67726573732E2E2E0A00B1
:102649004D656D6F727920636865636B206661699A
:102659006C65640A0053756363657373210A0050DE
:1026690072657373203120666F72206D656E750017
:10267900456E74657220627974650A00456E7465E9
:102689007220616464726573730A00496E20707206
:102699006F67726573730A002066657463686564A1
:1026A900210A53756363657373210A00436865637F
:1026B9006B206661696C65640A00456E74657220F9
:1026C90074617267657420616464726573733A0A30
:1026D90000456E7465722073697A653A0A004D6F18
:1026E900766520696E2070726F67726573732E2E1E
:1026F9002E0A00446F6E65210A00456E74657220CA
:102709006E657720627974653A0A00456E74657260
:1027190020616464726573733A0A00507265737359
:10272900203220746F206564697420616761696E65
:102739000A005072657373203320746F20656469D1
:1027490074206E65787420616464726573730A001D
:102759004E6F206D61746368657320666F756E6472
:102769000A00206D61746368657320666F756E6415
:102779000A00456E746572206279746520746F2051
:10278900636F756E743A0A0054656D706572617491
:102799007572653A20005072657373206B657920F4
:1027A900746F20726566726573680A004C696768A0
:1027B90074206C6576656C3A20004272616E646FB4
:1027C9006E20436C696E650A004543454E203433DB
:1027D90033300A00313A20426173696320636865C6
:1027E900636B0A00323A2044756D700A00333A204F
:1027F900436865636B0A00413A204D6F76650A00AC
:10280900343A20456469740A00353A2046696E6491
:102819000A00363A20436F756E740A00423A205412
:10282900656D70657261747572650A00373A204C7E
:06283900696768740A00E3
:101F08007A10E4FBFCE58225E0F582E58333F5836E
:101F1800EB33FBEC33FCEB9508F5F0EC9509400648
:091F2800FCABF0438201DADD227A
:06003500E478FFF6D8FD9F
:100013007900E94400601B7A0090283F782A75A094
:1000230000E493F2A308B8000205A0D9F4DAF2754C
:02003300A0FF2C
:101F3100E5828508F0A4C582C0F08509F0A4D0F03F
:101F410025F0C5838508F0A42583F58322E508459E
:101F51000960467A01E50825E0F508E509334012F4
:101F6100F509E5829508E583950940030A80E6C3F2
:101F7100E50913F509E50813F508C3E5829508F5A8
:101F8100F0E58395094005F58385F082C3E50913E2
:0A1F9100F509E50813F508DAE1226E
:10003B007800E84400600A790175A000E4F309D860
:10004B00FC7829E84400600C7901900001E4F0A3EE
:04005B00D8FCD9FAFA
:0D000600758179122025E582600302000358
:101F9B0020F71430F6148883A88220F507E6A8836F
:101FAB0075830022E280F7E49322E022C2D5E58319
:101FBB0030E70DD2D5E4C39582F582E49583F583A2
:101FCB00E50930E70BE4C39508F508E49509F50935
:101FDB00121F4E30D50BE4C39582F582E49583F541
:101FEB008322C2D5E58330E70DD2D5E4C39582F5C4
:101FFB0082E49583F583E50930E70DB2D5E4C3950B
:10200B0008F508E49509F509121F0830D50BE4C350
:0E201B009582F582E49583F58322758200227A
:00000001FF
