:03000000020006F5
:10005F00752300752440752500752680752700755A
:0A006F0028C0E4F529F52A02000379
:03000300022224B2
:10007900AE82AF83D2B48E828F83E508F0C2B422F8
:10008900AE82AF837C007D008C028D03C3EA9EEBB8
:1000990064808FF063F08095F050147AE87B031A3E
:1000A900BAFF011BEA4B70F70CBC00DC0D80D922AA
:1000B900AF82C2B5D2B4852382852483EFF0C2B45E
:1000C900D2B5D2B4852382852483E508F0C2B4224F
:1000D900AE82AF838F05C2B5D2B4852382852483CE
:1000E900EDF0C2B4C2B5D2B4852382852483EEF083
:1000F900C2B4AF09AE08D2B5D2B5D2B485238285D0
:100109002483EFF0C2B4D2B5D2B485238285248387
:10011900EEF0C2B42285822D85832E85082F8509AC
:10012900302285823385833485083585093622E571
:1001390082FF24F7500122EF60068F067F008004BA
:100149007E017F008E3122E582FF24FC404EEF2F95
:1001590090015D7380068014802280307F48753756
:10016900F0753800753940753A01803E7F2875373A
:10017900407538017539F0753A00802E7F887537DA
:10018900F0753800753940753A01801E7FE875377A
:10019900407538017539F0753A00800E7F4875371A
:1001A900F0753800753940753A018F087582360245
:1001B90000B9AE82AF83C2B5D2B4852382852483C8
:1001C900742AF0C2B4D2B5D2B48523828524838F30
:1001D90005EDF0C2B4D2B5D2B4852382852483EE6D
:1001E900F0C2B4D2B5D2B4852382852483E50BF05D
:1001F900C2B4D2B5D2B4852382852483E50AF0C27C
:10020900B4C2B5D2B4852382852483742BF0C2B4D9
:10021900D2B5D2B4852382852483E509F0C2B4D24C
:10022900B5D2B4852382852483E508F0C2B4D2B55A
:10023900D2B4852382852483E50DF0C2B4D2B5D228
:10024900B4852382852483E50CF0C2B4227537F086
:10025900753800753940753A01C2B4D2B5C2B5D204
:10026900B4852382852483E4F0C2B4D2B5D2B4859F
:100279002382852483E4F0C2B4D2B5D2B485238223
:10028900852483E4F0C2B4D2B5D2B485238285240F
:1002990083E4F0C2B49000C8120089750800758221
:1002A900011200B990003212008975080075822880
:1002B9001200B990000A1200897508237582C012CC
:1002C90000B97508117582C11200B9C2B5D2B485D9
:1002D900238285248374C5F0C2B4D2B5D2B48523F0
:1002E90082852483743DF0C2B4D2B5D2B485238209
:1002F9008524837430F0C2B47508AA7582C71200C8
:10030900B97508887582361200B9C2B5D2B4852389
:1003190082852483743AF0C2B4D2B5D2B4852382DB
:100329008524837455F0C2B4D2B5D2B485238285AD
:100339002483E4F0C2B475081B7509009000B1125A
:1003490000D97508077582B71200B975080075825A
:10035900111200B99000961200897508007582295A
:100369001200B99001F4120089AE37AF381EBEFFF2
:10037900011F8E0A8F0BAE39AF3A1EBEFF011F8EC9
:100389000C8F0DE4F508F5099000000201BBAE825F
:10039900AF838E048F050CBC00010D8C0A8D0BAC4C
:1003A9003BAD3C0CBC00010D8C0C8D0D853B0885CB
:1003B9003C098E828F831201BBC2B5D2B4852382D8
:1003C900852483742CF0C2B4D2B5D2B48523828536
:1003D9002483E53EF0C2B4D2B4852382852483E523
:1003E9003DF0C2B4228582458583467401C3954197
:1003F900FCE49542FD900001ECF0EDA3F085410885
:1004090085420990FFFE1222DDAC82AD83AA41AB81
:1004190042E541253FF53BE5423540F53C85433D05
:1004290085443E854582854683C005C004C003C016
:1004390002120397E53FC39541F53BE5409542F527
:100449003C85433D85443E85458285468312039715
:10045900E5412545F582E5423546F583853F3B85EE
:10046900403C85433D85443E120397E545C395418C
:10047900F582E5469542F583853F3B85403C8543BA
:100489003D85443E120397D002D003D004D00578AD
:100499000079007547018948C3E89AE964808BF0BF
:1004A90063F08095F0400122900001E0F549A3E056
:1004B900F54A20E7181ABAFF011B74022CFCE43D27
:1004C900FD900001EC2549F0ED354AA3F0C004C0C8
:1004D9000508B800010974022547F547E43548F5D0
:1004E90048900001E0FEA3E0FF900001E5472EF0EF
:1004F900E5483FA3F0AE45AF46E82EFCE93FFD8C49
:10050900498D4A853F4B85404CEA254BFCEB354CE0
:10051900FD8C4D8D4E854D3B854E3C85433D854437
:100529003E854982854A83C007C006C005C004C00C
:1005390003C002C001C000120397D000D001D0024D
:10054900D003D004D005D006D007EEC398FCEF99AC
:10055900FD8C4F8D50854D3B854E3C85433D8544F3
:100569003E854F82855083C007C006C005C004C0C0
:1005790003C002C001C000120397D000D001D0020D
:10058900D003D004D005E54BC39AFCE54C9BFD8C08
:100599003B8D3C85433D85443E854982854A83C0E0
:1005A90005C004C003C002C001C000120397D000F7
:1005B900D001D002D003D004D0058C3B8D3C8543BB
:1005C9003D85443E854F82855083C005C004C003E4
:1005D900C002C001C000120397D000D001D002D0E0
:1005E90003D004D005D006D007EA2EFCEB3FFD8CE2
:1005F9004F8D50E8254BFCE9354CFD8C3B8D3C85F6
:10060900433D85443E854F82855083C007C006C05F
:1006190005C004C003C002C001C000120397D00086
:10062900D001D002D003D004D005D006D007EEC344
:100639009AFEEF9BFF8C3B8D3C85433D85443E8E66
:10064900828F83C007C006C005C004C003C002C0B2
:1006590001C000120397D000D001D002D003D0040A
:10066900D005E54BC398FCE54C99FD8C3B8D3C8549
:10067900433D85443E854F82855083C005C004C0F3
:1006890003C002C001C000120397D000D001D002FC
:10069900D003D004D005D006D0078C3B8D3C8543D0
:1006A9003D85443E8E828F83C005C004C003C002CD
:1006B900C001C000120397D000D001D002D003D0EE
:1006C90004D005D005D0040204A1858253AD537E20
:1006D90000ED2DFBEE33FCA937AA38ED29F9EE3AE6
:1006E900FAAF39A83AED2FFFEE38FE900003E4F097
:1006F900A3F0900003E0F8A3E0FDC3E899ED64805E
:100709008AF063F08095F0400122900005E4F0A39F
:10071900F0900005E0F554A3E0F555C3E5549FE5D5
:100729005564808EF063F08095F0504788828D8300
:1007390085543F8555408553417542008551438510
:100749005244C007C006C005C004C003C002C001AE
:10075900C0001203EED000D001D002D003D004D0E3
:1007690005D006D007900005EB2554F0EC3555A3CC
:10077900F0809E900003E0F8A3E0FD900003EB28D1
:10078900F0EC3DA3F00206FBAE82AF838E048F0529
:10079900C3EC94F0ED9400500DAC56AD57C3EC94F6
:1007A90040ED9401400122E5582EFCE5593FFD1C1E
:1007B900BCFF011DC3EC94F0ED9400400A74F0C332
:1007C9009EF558E49FF559E55A2556FCE55B3557E2
:1007D900FD1CBCFF011DC3EC9440ED9401400D7458
:1007E90040C39556F55A74019557F55BE5582EFCAB
:1007F900E5593FFD1CBCFF011D8C0A8D0BE55A25EF
:1008090056FCE55B3557FD1CBCFF011D8C0C8D0D9D
:100819008556088557098E828F831201BBC2B5D2CE
:10082900B4852382852483742CF0C2B4D2B5AF5D1C
:10083900AD5AAE5BED4E6030AB58AC59EB4C602114
:10084900D2B4852382852483EFF0C2B4D2B4852340
:1008590082852483E55CFAF0C2B41BBBFF011C80CE
:10086900DB1DBDFF011E80CC22AE82AF838F05E464
:10087900F508F509750AEFF50B750C3F750D019033
:100889000000C006C0051201BBD005D006C2B5D212
:10089900B4852382852483742CF0C2B4D2B5D2B432
:1008A900852382852483EDF0C2B4D2B48523828561
:1008B9002483EEF0C2B47CB07F048C028F031CBC8D
:1008C900FF011FEA4B60667B10D2B4852382852421
:1008D90083EDF0C2B4D2B4852382852483EEF0C2BD
:1008E900B4D2B4852382852483EDF0C2B4D2B48511
:1008F9002382852483EEF0C2B4D2B4852382852471
:1009090083EDF0C2B4D2B4852382852483EEF0C28C
:10091900B4D2B4852382852483EDF0C2B4D2B485E0
:100929002382852483EEF0C2B4DB9E808D7F3F8FC6
:10093900041FEC601AD2B4852382852483EDF0C2AA
:10094900B4D2B4852382852483EEF0C2B480E02238
:10095900AE82AF83C3EE94F0EF648094805067ACAD
:100969005EAD5FC3EC9440ED648094815058AA65F4
:100979007B008A088B09900006C007C006C005C025
:1009890004C003C0021222DDA882A983D002D003C9
:10099900D004D005D006D007E82EF8E93FF918B8F9
:1009A900FF0119E920E71FEBC40354F8CAC403CABD
:1009B9006ACA54F8CA6AFBEA2CFAEB3DFB1ABAFF79
:1009C900011BEB30E701227401B565047401800154
:1009D900E4FB8B6CE561B56308E562B56403D3801C
:1009E90001C392007900B90507900007E4F0804936
:1009F900856008750900900005C007C006C005C0DC
:100A090004C003C0011222DDA882AA83D001D00349
:100A1900D004D005D006D007E824D5F566EA3423FA
:100A2900F567E9F83395E0FAE82566F582EA35676E
:100A3900F583E493FA900007F0C2D58565F0E930B3
:100A4900E704B2D5F404A430D50AF42401C5F0F4BE
:100A59003400C5F02EF566EF35F0F5678900856637
:100A690068856769896A756B00900007E020E00373
:100A7900020B31EB604EC000E56AF83395E0FAE805
:100A89002EF8EA3FFA88828A83E56BF83395E0FA13
:100A9900E82CF8EA3DFA883B8A3C85613D85623E4F
:100AA900C007C006C005C004C003C001C0001203CE
:100AB90097D000D001D003D004D005D006D007D0FC
:100AC90000020BE8C000856882856983C2D5856507
:100AD900F0E56B30E704B2D5F404A430D50AF42468
:100AE90001C5F0F43400C5F02CF8ED35F0FA88565C
:100AF9008A57A8657A0088588A59885A8A5B856115
:100B09005C85625DC007C006C005C004C003C001A2
:100B1900C000120791D000D001D003D004D005D075
:100B290006D007D000020BE8300003020BE8E56CA1
:100B3900604CC003E8FA3395E0FBEA2EFAEB3FFB81
:100B49008A828B83E56BFA3395E0FBEA2CFAEB3D5D
:100B5900FB8A3B8B3C85633D85643EC007C006C06C
:100B690005C004C003C001C000120397D000D00122
:100B7900D003D004D005D006D007D0038061C000CF
:100B8900856682856783C2D58565F0E56B30E704A4
:100B9900B2D5F404A430D50AF42401C5F0F4340024
:100BA900C5F02CF8ED35F0FA88568A57A8657A0011
:100BB90088588A59885A8A5B85635C85645DC00751
:100BC900C006C005C004C003C001C000120791D00F
:100BD90000D001D003D004D005D006D007D00090B2
:100BE9000007E0C313FAF0056BC3E56B64809488D2
:100BF9005003020A7209C3E964809486500302090A
:100C0900EF22AF82BF0A26AD31E4C40354F8CDC444
:100C190003CD6DCD54F8CD6DFEAB2FAC30ED2BFB74
:100C2900EE3CFC8B2F8C30E4F52DF52E22BF0D0107
:100C390022852F5E85305F8F6085336185346285BB
:100C49003563853664853165852D82852E83120944
:100C5900598531087509009000061222DDAE82AF70
:100C690083AC2DAD2EEE2CFCEF3DFD8C2D8D2E226F
:100C7900AD82AE83AFF07B007C00EB2DF8EC3EF942
:100C89008F02888289838AF0122347FA60208A8238
:100C9900C007C006C005C004C003120C0BD003D0A6
:100CA90004D005D006D0070BBB00CF0C80CC22AFF7
:100CB900827B007C007D007E00C2B48B828C83EF36
:100CC900F0D2B40BBB00090CBC00050DBD00010E30
:100CD900C3EB94FFEC94FFED9400EE940040DA220C
:100CE900900008E4F0900008E0FFBF080D900008AC
:100CF900E4F075820A120C0B8006120D12120C0B0D
:100D0900900008E02401F080DC7590F07590F08582
:100D190090215321F074F0B521F29000141200894A
:100D2900E59054F0F52174F0B5210280ED900001B1
:100D3900120089E59054F0F52174F0B5210280DAAA
:100D49007590FEE59054F0F52174F0B52102800507
:100D5900752200803D7590FDE59054F0F52174F001
:100D6900B52102800575220180287590FBE5905414
:100D7900F0F52174F0B52102800575220280137502
:100D890090F7E59054F0F52174F0B5210280B17522
:100D9900220374E0B52115E52275F004A424D0F5E9
:100DA90082742835F0F583E493F5822274D0B52155
:100DB90018E52275F004A424D0FE742835F0FF8EBE
:100DC900828F83A3E493F5822274B0B52119E522B9
:100DD90075F004A424D0FE742835F0FF8E828F8329
:100DE900A3A3E493F58222E52275F004A424D0FE9E
:100DF900742835F0FF8E828F83A3A3A3E493F58231
:100E090022AF82900009E4F0A3F0BF010040638F94
:100E1900057E0075080A8E098D828E83C006C0057D
:100E2900122363AB82AC83D005D00690000BEBF0A4
:100E3900ECA3F075080A7509008D828E8312239937
:100E4900AD828D07900009E0FDA3E0FE8D088E09B3
:100E590090000AC0071222DDAD82AE83D007900050
:100E69000BE0FBA3E0FC900009EB2DF0EC3EA3F0B6
:100E79008098900009E0FEA3E08E82F58322120E8D
:100E89000AE5828583F090000EF0E5F0A3F090006A
:100E99000EE0FEA3E0FFC3EE9401EF94004042751B
:100EA900080A7509008E828F83C007C0061222FACC
:100EB900AC82D006D00790000DECF075080A7509D0
:100EC900008E828F831222B4AE82AF8390000EEE21
:100ED900F0EFA3F090000DE02430F582120C0B80A6
:100EE900AD75820A020C0BAF82900011E4F09000FC
:100EF90012F07E00BF01005003020F7B8F047D00BA
:100F0900740F5CFA900010EAF07508108D098C8254
:100F19008D83C006122399AC82AD83D0068C0790CD
:100F29000010E0FD24F64013EE2411F582E43400AC
:100F3900F5838D0474302CFCF08033EE2411FBE42E
:100F49003400FC7A0075080A8A098D828A83C007F1
:100F5900C006C004C003122363AA82AD83D003D0A4
:100F690004D006D00774412AFA8B828C83F00E02D2
:100F79000EFD900012E0F582120C0B900011E0F5C5
:100F890082020C0BE582FF24C6920140088F06EE0F
:100F990024D0FE800474C92FFE8E822290F800129C
:100FA90008729000141200899007E01208729000EC
:100FB9001412008975820012015090000012087203
:100FC9007551007552F87582141206D39000641297
:100FD9000089900000120872758205120138E4F543
:100FE90008F5099007FF12012B9028E075F080128F
:100FF9000C797582031201389028E975F080120C7A
:10100900799028F475F080120C799000C812008943
:10101900900000120872758201120150E4F508F57A
:101029000990000012011E9028FF75F080120C79BA
:101039009001F41200899000001208727582021260
:101049000150E4F508F50990000012011E90290AE3
:1010590075F080120C799001F41200899000001249
:101069000872758203120150E4F508F50990000031
:1010790012011E9000C812008990291575F080127E
:101089000C799000C8020089900013E4F0A3F07F66
:1010990000C007120D12AE82C006120C0BD0068ECC
:1010A90082120F8DAE82D007900013E0FCA3E0FD01
:1010B9007B00900013EE4CF0EB4DA3F0BF030280D0
:1010C9001C900013E0FDA3E0C454F0CDC4CD6DCD58
:1010D90054F0CD6DFE900013EDF0EEA3F00FBF04B8
:1010E9000040AE900013E0FEA3E08E82F5832290CB
:1010F9000015E4F07F00C007120D12AE82C006127F
:101109000C0BD0068E82120F8DAE82D0079000157F
:10111900E04EF0BF01028009900015E0C454F0FED2
:10112900F00FBF020040CF900015E0F58222AF8397
:10113900E582900018F0EFA3F090D6BA120872E495
:10114900F508F50990000012011E75820212013896
:1011590090001AE4F0A3F0900018E0FEA3E0FF90DD
:101169000017E0FD900016E0F5F0EDA4FBACF0C02F
:1011790006C00790001AE0F9A3E0FA896F8A708B1C
:10118900008C07C3E56F98E5709FD007D006400132
:101199002274FFB56F04B5700122C003C004C2B444
:1011A9008D0875090089828A83C007C006C005C0F9
:1011B90004C003C002C0011222DDE5828583F0D09C
:1011C90001D002D003D004D005D006D0072EF8EF05
:1011D90035F0FC886D8C6ED2B4E92EFBEA3FF582BE
:1011E9008E04E92CFCC007C006C005C004C0031268
:1011F9000EF0D003D0048C82C004C003120EF0900C
:10120900292075F080120C79D003D004D005D006BE
:10121900D007856D6F856E70757100D004D003C3DA
:10122900E5719D503BC2B4856F82857083E0900063
:101239001CF07402256FF56FE43570F570D2B49027
:10124900001CE0F582C007C006C005C004C0031237
:101259000EF0D003D004D005D006D007057180BFA9
:10126900C003C00475820AC007C006C005C004C017
:1012790003120C0BD003D004D005D006D0078D0182
:101289007A0090001AE0F8A3E0FCE928F8EA3CFCAF
:1012990090001AE8F0ECA3F0D004D0030211789082
:1012A900D6BA120872E4F508F50990000012011E79
:1012B90075820212013890001E7401F0902923757D
:1012C900F080120C79121091AE82AF8390001FEE5C
:1012D900F0EFA3F075820AC007C006120C0B902923
:1012E9003975F080120C7990294A75F080120C79C1
:1012F90090295B75F080120C79D006D007C007C021
:1013090006120D12AD82D006D00790001DEDF0BD7A
:1013190041028023BD42028005BD444B80329000CA
:101329001D7401F090296A75F080C007C006120C7F
:1013390079D006D007803090001D7402F090297092
:1013490075F080C007C006120C79D006D007801747
:1013590090001D7404F090297675F080C007C006CE
:10136900120C79D006D00790001DE0FDBD01028066
:101379000DBD02028008BD040280030213069029F4
:101389008375F080C007C006120C791210F8AD827F
:1013990075820AC005120C0BD005D006D007BD0F07
:1013A90000501C90001DE0FC900016EDF090001715
:1013B900ECF08E828F83C005121137D005801B9007
:1013C900001DE0FC900016740FF0900017ECF08EF1
:1013D900828F83C005121137D005C3740F9DE43382
:1013E900FF8F7290001DE0FCFBC0038D017A007530
:1013F900080F8A0989828A83C007C005C004C0030F
:10140900122399A982AA83D003D004D005D00774E6
:101419000129F573E43AF57490001EE07E00B57376
:1014290008EEB57404D0038028D003EF6023902917
:101439009675F080C007C005C004C003C002C00192
:10144900120C79D001D002D003D004D005D0078086
:101459005290001EE0FEBE01028027E572602390D3
:1014690029A875F080C007C005C004C003C002C028
:1014790001120C79D001D002D003D004D005D007D5
:1014890080219029BE75F080C007C005C004C00343
:10149900C002C001120C79D001D002D003D004D00F
:1014A90005D0079029E075F080C007C005C004C0C9
:1014B90003C002C001120C79120D12AE82D001D004
:1014C90002D003D004D005D007BE426EC003740118
:1014D90029F573E43AF57490001EE0F8FA7B00B53B
:1014E9007308EBB57404D0038050D00390001FE05B
:1014F900F9A3E0FA740F29F9E43AFA90001FE9F028
:10150900EAA3F090001FE0F9A3E0FA900016740F27
:10151900F0900017ECF089828A83C007C005C004E7
:10152900C003C000121137D000D003D004D005D0B9
:101539000790001EE804F00213F2BE415990001E04
:10154900E0FABA0102804F90001FE0F8A3E0F9E841
:1015590024F1F8E934FFF990001FE8F0E9A3F090CD
:10156900001FE0F8A3E0F9900016740FF09000173F
:10157900EBF088828983C007C005C004C003C0029C
:10158900121137D002D003D004D005D007EA149045
:10159900001EF00213F2BE3101220213F22290D68C
:1015A900BA120872E4F508F50990000012011E75D7
:1015B9008202120138900022E4F09029F275F0803D
:1015C900120C791210F8E582900021F075820A1246
:1015D9000C0B902A0775F080120C797E007F00C2EF
:1015E900B48E048F05900021E0FBF97A008C828D7E
:1015F90083E9F0EAA3F0D2B4E9B5030280438B8210
:10160900C005C004C001120EF0758220120C0BD067
:10161900018982120EF0758220120C0BD004D005BC
:101629008C828D83E0F582120EF075820A120C0B02
:10163900902A1775F080120C799000227401F080BD
:1016490078C2B4900021EBF4F0E0FBF97A008C82C7
:101659008D83E9F0EAA3F0D2B4E9B503028045EB42
:10166900F4F582C005C004C001120EF07582201283
:101679000C0BD0018982120EF0758220120C0BD04E
:1016890004D0058C828D83E0F582120EF075820AF2
:10169900120C0B902A1775F080120C7990002274A5
:1016A90001F080150EBE00010F8E048F05C3EC9466
:1016B900FFED94FF50030215E8900022E0600990C5
:1016C9002A2C75F080120C79902A3675F080120C4C
:1016D90079120D12AF82BF31F82290D6BA12087270
:1016E900E4F508F50990000012011E758202120145
:1016F90038902A4775F080120C791210F8AF82756C
:10170900820AC007120C0B902A5375F080120C79CB
:10171900121091AD82AE8375820AC006C005120C03
:101729000B902A6275F080120C79D005D006D0078B
:10173900C2B48D828E838F057E00EDF0EEA3F0D2C8
:10174900B4EDB507108D82120EF0902A6F75F080F6
:10175900120C798009902A8375F080120C799029EE
:10176900E075F080120C79120D12AF82BF31F822A8
:1017790090D6BA120872E4F508F509900000120132
:101789001E758202120138902A9175F080120C7927
:10179900121091AE82AF8375820AC007C006120C7F
:1017A9000B902AA375F080120C791210F8AD82758E
:1017B900820AC005120C0B902AAF75F080120C79C1
:1017C900121091AB82AC8375820AC004C003120C5B
:1017D9000B902AC275F080120C79D003D004D00581
:1017E900D006D00779007A00C003C0048D007C00C0
:1017F900C3E998EA9CD004D0035031C005C2B48E25
:10180900828F838B758C76E0F8A3E0FD85758285E0
:101819007683E8F0EDA3F0D2B40EBE00010F0BBB46
:1018290000010C09B900010AD00580BC902AD775BE
:10183900F080120C799029E075F080120C79120D64
:1018490012AF82BF31F822AF83E582900023F0EF17
:10185900A3F0900023E0FEA3E0FFFC8E058C82C07C
:1018690007C006C005C004120EF0D004D0058D8251
:10187900C005C004120EF090292075F080120C7971
:10188900D004D005D006D007C2B48E828F83E0FB86
:10189900D2B48B82C007C006C005C004120EF07511
:1018A900820A120C0B902ADE75F080120C79121044
:1018B900F8AB8275820AC003120C0BD003D004D096
:1018C90005D006D007C2B47A008E828F83EBF0EA86
:1018D900A3F0D2B48C82C005C003120EF0D003D09D
:1018E900058D82C003120EF090292075F080120C2C
:1018F90079D0038B82120EF075820A020C0B90D6F6
:10190900BA120872E4F508F50990000012011E7573
:101919008202120138902AEF75F080120C791210A8
:1019290091AE82AF8375820AC007C006120C0BD034
:1019390006D0078E828F83C007C006121850D006C2
:10194900D0079029E075F080C007C006120C799085
:101959002AFF75F080120C79902B1675F080120C05
:1019690079120D12AD82D006D007900025EDF0BD99
:10197900310122BD322F90D6BAC007C006120872B3
:10198900E4F508F50990000012011ED006D0078E73
:10199900828F83C007C006121850D006D007900066
:1019A90025E4F08035BD333290D6BAC007C006129F
:1019B9000872E4F508F50990000012011ED006D05E
:1019C900070EBE00010F8E828F83C007C006121852
:1019D90050D006D007900025E4F0900025E0FDBD29
:1019E900310122BD320122BD33012202194B22AF3E
:1019F90083E582900029F0EFA3F090D6BA1208721D
:101A0900E4F508F50990000012011E758202120121
:101A190038900029E0FEA3E0FF900027E0FD900048
:101A290026E0FC900028E0FB79007A00C0058C00D4
:101A39007D00C3E998EA9DD005400122C004C2B4E3
:101A4900E92EF8EA3FFC88828C83E0FCD2B4ECB53D
:101A590005028004D0048076D004C0058B820BC0B7
:101A690007C006C005C004C003C002C001120EF0C1
:101A790090292075F080120C79D001D002D003D0C2
:101A890004D005D006D007E92EEA3FF5828E0589F4
:101A990000E82DFDC007C006C005C004C003C00290
:101AA900C001120EF0D001D002D003D004D0058DB0
:101AB90082C005C004C003C002C001120EF0D001EB
:101AC900D002D003D004D005D006D007D00509B97B
:101AD90000010A021A3590D6BA120872E4F508F51F
:101AE9000990000012011E75820212013890002B24
:101AF9007401F090002CE4F0902B3475F080120CF6
:101B0900791210F8AF8275820AC007120C0B90295E
:101B19002375F080120C79121091AD82AE8390007A
:101B29002DEDF0EEA3F075820AC006C005120C0B6C
:101B390090298375F080120C791210F8AC827582A5
:101B49000AC004120C0BD004D005D006D0077B00C4
:101B59007A00C3EA9C5031C004C2B48A7775780010
:101B69008D798E7AA877AC78E82579F8EC357AFC06
:101B790088828C83E0FCD2B4ECB507028004D004DF
:101B89008003D0040B0A80CABB0F005024900026A2
:101B9900EBF0900027EFF0900028E4F08D828E831F
:101BA900C007C004C0031219F8D003D004D00780BD
:101BB90029900026740FF0900027EFF0900028E498
:101BC900F08D828E83C007C004C0031219F8D003B8
:101BD900D004D00790002C740FF0C3740F9BE4332A
:101BE900F57B8BF0EC84F57990002CE0FCFAC002CF
:101BF9008B00790075080F890988828983C007C01D
:101C090004C003C002122399E5828583F0D002D073
:101C190003D004D0072401F8E435F0F990002BE053
:101C29007D00B50008EDB50104D0028022D002EB99
:101C390024F0501B90299675F080C007C004C0039A
:101C4900C002120C79D002D003D004D00780429090
:101C5900002BE0FDBD0102801FE57B601B9029A8D8
:101C690075F080C007C004C003C002120C79D0020D
:101C7900D003D004D00780199029BE75F080C00721
:101C8900C004C003C002120C79D002D003D004D022
:101C9900079029E075F080C007C004C003C0021294
:101CA9000C79120D12AD82D002D003D004D007BD39
:101CB9004273C002A879790008B800010990002B85
:101CC900E0F577AA777E00EAB50008EEB50104D001
:101CD900028052D00290002DE0F9A3E0FE740F2992
:101CE900F9E43EFE90002DE9F0EEA3F090002DE01E
:101CF900F9A3E0FE900026740FF0900027EFF09012
:101D09000028ECF089828E83C007C004C003C0029A
:101D19001219F8D002D003D004D00790002BE57730
:101D290004F0021BF7BD415E90002BE0FEBE0102EC
:101D3900805490002DE0F8A3E0F9E824F1F8E934A3
:101D4900FFF990002DE8F0E9A3F090002DE0F8A349
:101D5900E0F9900026740FF0900027EFF09000282A
:101D6900EAF088828983C007C006C004C003C002A4
:101D79001219F8D002D003D004D006D007EE14907F
:101D8900002BF0021BF7BD310122021BF72290D66E
:101D9900BA120872E4F508F50990000012011E75DF
:101DA90082021201389000327401F0900031E4F09F
:101DB900902AEF75F080120C79121091AE82AF83E0
:101DC90090002FEEF0EFA3F075820AC007C006124B
:101DD9000C0B90298375F080120C791210F8AD82E2
:101DE90075820AC005120C0B902B4175F080120CFC
:101DF900791210F8AC82D005D006D0077B007900A3
:101E09007A00C006C0078D007F00C3E998EA9FD019
:101E190007D0065026C005C2B4E92EF8EA3FFD886E
:101E2900828D83E0FDD2B4EDB504028004D0058033
:101E390003D0050B09B900CA0A80C7BB0F0050249B
:101E4900900026EBF0900027ECF0900028E4F08E4B
:101E5900828F83C005C004C0031219F8D003D004CF
:101E6900D0058029900026740FF0900027ECF0909F
:101E79000028E4F08E828F83C005C004C0031219C4
:101E8900F8D003D004D005900031740FF0C3740F5B
:101E99009BE433F57E8BF0ED84F57C900031E0FD19
:101EA900FAC0028B00790075080F89098882898335
:101EB900C005C004C003C002122399E5828583F0DE
:101EC900D002D003D004D0052401F8E435F0F9900C
:101ED9000032E07E00B50008EEB50104D002802290
:101EE900D002EB24F0501B90299675F080C005C0F4
:101EF90004C003C002120C79D002D003D004D0056B
:101F09008042900032E0FEBE0102801FE57E601B28
:101F19009029A875F080C005C004C003C002120C46
:101F290079D002D003D004D00580199029BE75F06C
:101F390080C005C004C003C002120C79D002D003CE
:101F4900D004D0059029E075F080C005C004C00315
:101F5900C002120C79120D12AE82D002D003D00445
:101F6900D005BE4273C002A87C790008B8000109F7
:101F7900900032E0F57DAA7D7F00EAB50008EFB553
:101F89000104D0028052D00290002FE0F9A3E0FFB3
:101F9900740F29F9E43FFF90002FE9F0EFA3F090C7
:101FA900002FE0F9A3E0FF900026740FF0900027BE
:101FB900ECF0900028EDF089828F83C005C004C041
:101FC90003C0021219F8D002D003D004D005900042
:101FD90032E57D04F0021EAABE415E900032E0FFA8
:101FE900BF0102805490002FE0F8A3E0F9E824F142
:101FF900F8E934FFF990002FE8F0E9A3F090002FF9
:10200900E0F8A3E0F9900026740FF0900027ECF0B7
:10201900900028EAF088828983C007C005C004C0FF
:1020290003C0021219F8D002D003D004D005D0079A
:10203900EF14900032F0021EAABE310122021EAA3C
:1020490022D2B4852782852883E0FFC2B48F8222F9
:10205900D2B4852982852A83E0FFC2B48F8222AF58
:102069008290D6BAC007120872E4F508F509900003
:102079000012011E758202120138902B5775F080EB
:10208900120C79D0078F82120EF075820A120C0B8E
:10209900902B6575F080120C79902B7775F0800282
:1020A9000C79AF8290D6BAC007120872E4F508F528
:1020B9000990000012011E758202120138902B91BD
:1020C90075F080120C79D0078F82120EF075820A92
:1020D900120C0B902B6575F080120C79902B77758B
:1020E900F080020C7990D6BA120872E4F508F50965
:1020F90090000012011E758202120138902B57754B
:10210900F080120C7912204A120EF075820A120C14
:102119000B902B6575F080120C79902B7775F080F8
:10212900120C79120D12AF82BF3001229001F41204
:10213900008912204A12206880E990D6BA120872E2
:10214900E4F508F50990000012011E7582021201DA
:1021590038902B9175F080120C79122059120EF0DB
:1021690075820A120C0B902B6575F080120C799010
:102179002B7775F080120C79120D12AF82BF3001E6
:10218900229001F41200891220591220AB80E975BE
:10219900820212015075820312013890D6BA1208D0
:1021A900727508BA7509D690000012012BE4F5087A
:1021B900F50990000012011E902B9F75F080120CFA
:1021C90079902BAE75F080120C79902BB975F0804F
:1021D900120C79902BC975F080120C79902BD2755D
:1021E900F080120C79902BDC75F080120C79902B11
:1021F900E575F080120C79902BEE75F080120C7950
:10220900902BF775F080120C79902C0175F08012E3
:102219000C79902C1175F080020C797508008525D0
:1022290082852683120079120256900000120872E4
:1022390075820012015075511F7552007582141272
:1022490006D3122198120D12AF82C007120EF0D0D8
:1022590007BF31028028BF32028028BF330280289D
:10226900BF3402802DBF3502802DBF3602802DBFBD
:1022790037028032BF41028014BF42C68023121642
:10228900E380BF1212A880BA1215A780B512177978
:1022990080B012190780AB121ADF80A6121D978031
:0B22A900A11220EE809C1221438097C0
:1023D50000000000003E5B4F5B3E3E6B4F6B3E1CBA
:1023E5003E7C3E1C183C7E3C181C577D571C1C5ED1
:1023F5007F5E1C00183C1800FFE7C3E7FF001824A8
:102405001800FFE7DBE7FF30483A060E2629792951
:1024150026407F050507407F05253F5A3CE73C5A86
:102425007F3E1C1C08081C1C3E7F14227F22145F63
:102435005F005F5F06097F017F006689956A6060BE
:1024450060606094A2FFA29408047E040810207EB8
:10245500201008082A1C08081C2A08081E1010103D
:10246500100C1E0C1E0C30383E3830060E3E0E0683
:10247500000000000000005F0000000700070014D6
:102485007F147F14242A7F2A122313086462364995
:102495005620500008070300001C2241000041227D
:1024A5001C002A1C7F1C2A08083E08080080703082
:1024B50000080808080800006060002010080402F1
:1024C5003E5149453E00427F4000724949494621F7
:1024D50041494D331814127F1027454545393C4A6B
:1024E5004949314121110907364949493646494982
:1024F500291E0000140000004034000000081422CA
:102505004114141414140041221408020159090637
:102515003E415D594E7C1211127C7F494949363E38
:10252500414141227F4141413E7F494949417F091E
:102535000909013E414151737F0808087F00417F29
:1025450041002040413F017F081422417F40404027
:10255500407F021C027F7F0408107F3E4141413EBF
:102565007F090909063E4151215E7F091929462641
:102575004949493203017F01033F4040403F1F2045
:1025850040201F3F4038403F63140814630304781C
:1025950004036159494D43007F414141020408103C
:1025A50020004141417F0402010204404040404077
:1025B500000307080020545478407F2844443838E5
:1025C50044444428384444287F3854545418000857
:1025D5007E090218A4A49C787F0804047800447D31
:1025E50040002040403D007F1028440000417F40CE
:1025F500007C047804787C08040478384444443822
:10260500FC1824241818242418FC7C080404084801
:102615005454542404043F44243C4040207C1C2052
:1026250040201C3C4030403C44281028444C9090AD
:10263500907C4464544C4400083641000000770007
:1026450000004136080002010204023C2623263C14
:102655001EA1A161123A4040207A3854545559219F
:102665005555794122545478422155547840205487
:102675005579400C1E5272123955555559395454D5
:10268500545939555454580000457C410002457D44
:10269500420001457C407D1211127DF0282528F06D
:1026A5007C545545002054547C547C0A097F49329A
:1026B500494949323A4444443A324A4848303A4111
:1026C50041217A3A42402078009DA0A07D3D4242BA
:1026D500423D3D4040403D3C24FF2424487E494343
:1026E500662B2FFC2F2BFF0929F620C0887E0903B6
:1026F50020545479410000447D413048484A3238DD
:102705004040227A007A0A0A727D0D19317D262908
:10271500292F28262929292630484D402038080800
:10272500080808080808382F10C8ACBA2F10283434
:10273500FA00007B000008142A142222142A140827
:10274500AA005500AAAA55AA55AA000000FF001024
:102755001010FF00141414FF001010FF00FF1010DC
:10276500F010F0141414FC001414F700FF0000FF1F
:1027750000FF1414F404FC141417101F10101F107C
:102785001F1414141F00101010F0000000001F107B
:102795001010101F10101010F010000000FF101086
:1027A50010101010101010FF10000000FF14000092
:1027B500FF00FF00001F10170000FC04F41414179D
:1027C50010171414F404F40000FF00F71414141483
:1027D500141414F700F7141414171410101F101FF5
:1027E500141414F4141010F010F000001F101F0042
:1027F50000001F14000000FC140000F010F0101081
:10280500FF10FF141414FF141010101F0000000017
:10281500F010FFFFFFFFFFF0F0F0F0F0FFFFFF000B
:1028250000000000FFFF0F0F0F0F0F38444438441E
:10283500FC4A4A4A347E02020606027E027E026392
:10284500554941633844443C04407E201E2006021D
:102855007E020299A5E7A5991C2A492A1C4C7201FA
:10286500724C304A4D4D303048784830BC625A463B
:102875003D3E494949007E0101017E2A2A2A2A2A2C
:1028850044445F444440514A444040444A51400016
:1028950000FF0103E080FF000008086B6B0836129B
:1028A500362436060F090F06000018180000001020
:1028B50010003040FF0101001F01011E00191D1706
:1028C50012003C3C3C3C00000000003134374532EE
:1028D500353830333639464142434457656C636F6A
:1028E5006D650A004543454E2D343333300A005299
:1028F5006F746174696F6E203000526F7461746912
:102905006F6E203100526F746174696F6E203200F2
:10291500526F746174696F6E2033003A2000456E02
:102925007465722073746172742061646472657376
:10293500733A0A00456E746572206461746120748F
:102945007970650A00422D427974652C20412D5716
:102955006F72642C0A00442D446F75626C65207794
:102965006F72640A00427974650A00576F72640ACF
:1029750000446F75626C6520776F72640A00456E5E
:1029850074657220626C6F636B2073697A653A0AAD
:10299500005072657373204220666F72206E6578F1
:1029A500740A005072657373204120666F7220703F
:1029B500726576696F75730A00507265737320418D
:1029C50020666F722070726576696F75732C204270
:1029D50020666F72206E6578740A00507265737395
:1029E500203120666F72206D656E750A00456E7424
:1029F5006572206279746520746F20636865636B06
:102A05000A00496E2070726F67726573732E2E2EE1
:102A15000A004D656D6F727920636865636B20668A
:102A250061696C65640A0053756363657373210A94
:102A3500005072657373203120666F72206D656E6C
:102A45007500456E74657220627974650A00456E7D
:102A550074657220616464726573730A00496E203F
:102A650070726F67726573730A00206665746368B8
:102A75006564210A53756363657373210A004368AE
:102A850065636B206661696C65640A00456E7465F3
:102A950072207374617274206164642E0A00456E3D
:102AA5007465722073697A650A00456E74657220D3
:102AB500746172676574206164642E0A004D6F76D7
:102AC5006520696E2070726F67726573732E2E2E86
:102AD5000A00446F6E65210A00456E746572206EAA
:102AE500657720627974653A0A00456E74657220CF
:102AF500616464726573733A0A005072657373207A
:102B05003220746F206564697420616761696E0A9B
:102B1500005072657373203320746F206564697487
:102B2500206E65787420616464726573730A00456C
:102B35006E74657220627974653A0A00456E746533
:102B450072206279746520746F20636F756E743AB4
:102B55000A0054656D70657261747572653A20007E
:102B65005072657373203020666F72206D656E75C7
:102B75000A00507265737320616E79206B65792048
:102B8500746F20726566726573680A004C696768C0
:102B950074206C6576656C3A20004272616E646FD4
:102BA5006E20436C696E650A004543454E203433FB
:102BB50033300A00313A20426173696320636865E6
:102BC500636B0A00323A2044756D700A00333A206F
:102BD500436865636B0A00413A204D6F76650A00CC
:102BE500343A20456469740A00353A2046696E64B2
:102BF5000A00363A20436F756E740A00423A205433
:102C0500656D70657261747572650A00373A204C9E
:062C1500696768740A0003
:1022B4007A10E4FBFCE58225E0F582E58333F583BF
:1022C400EB33FBEC33FCEB9508F5F0EC9509400699
:0922D400FCABF0438201DADD22CB
:06003500E478FFF6D8FD9F
:100013007900E94400601B7A00902C1B783375A0AB
:1000230000E493F2A308B8000205A0D9F4DAF2754C
:02003300A0FF2C
:1022DD00E5828508F0A4C582C0F08509F0A4D0F090
:1022ED0025F0C5838508F0A42583F58322E50845EF
:1022FD000960467A01E50825E0F508E50933401245
:10230D00F509E5829508E583950940030A80E6C342
:10231D00E50913F509E50813F508C3E5829508F5F8
:10232D00F0E58395094005F58385F082C3E5091332
:0A233D00F509E50813F508DAE122BE
:10003B007800E84400600A790175A000E4F309D860
:10004B00FC7832E84400600C7901900001E4F0A3E5
:04005B00D8FCD9FAFA
:0D00060075817E1223D1E5826003020003A4
:1023470020F71430F6148883A88220F507E6A883BF
:1023570075830022E280F7E49322E022C2D5E58369
:1023670030E70DD2D5E4C39582F582E49583F583F2
:10237700E50930E70BE4C39508F508E49509F50985
:102387001222FA30D50BE4C39582F582E49583F5E2
:102397008322C2D5E58330E70DD2D5E4C39582F514
:1023A70082E49583F583E50930E70DB2D5E4C3955B
:1023B70008F508E49509F5091222B430D50BE4C3F2
:0E23C7009582F582E49583F5832275820022CB
:00000001FF
