:03000000020006F5
:10005F00752300752440752500752680752700755A
:0A006F0028C0E4F529F52A02000379
:03000300021A8D51
:10007900AE82AF83D2B48E828F83E508F0C2B422F8
:10008900AE82AF83D2B48E828F83E0FEC2B48E82F9
:1000990022AE82AF837C007D008C028D03C3EA9E71
:1000A900EB64808FF063F08095F050147AE87B035D
:1000B9001ABAFF011BEA4B70F70CBC00DC0D80D9A2
:1000C90022AF82C2B5D2B4852382852483EFF0C2E0
:1000D900B4D2B5D2B4852382852483E508F0C2B4AD
:1000E90022AE82AF838F05C2B5D2B485238285241F
:1000F90083EDF0C2B4C2B5D2B4852382852483EEE0
:10010900F0C2B4AF09AE08D2B5D2B5D2B485238254
:10011900852483EFF0C2B4D2B5D2B4852382852475
:1001290083EEF0C2B42285822D85832E85082F8522
:10013900093022858233858334850835850936223D
:10014900E582FF24F7500122EF60068F067F0080C9
:10015900047E017F008E3122E582FF24FC406AEF94
:100169002F90016E738006801B803080457F4890F8
:10017900000174F0F0E4A3F09000037440F07401FE
:10018900A3F0805A7F289000017440F07401A3F015
:1001990090000374F0F0E4A3F080437F889000019D
:1001A90074F0F0E4A3F09000037440F07401A3F03C
:1001B900802C7FE89000017440F07401A3F0900056
:1001C9000374F0F0E4A3F080157F4890000174F007
:1001D900F0E4A3F09000037440F07401A3F08F08D9
:1001E9007582360200CAAE82AF83C2B5D2B4852306
:1001F90082852483742AF0C2B4D2B5D2B48523820D
:100209008524838F05EDF0C2B4D2B5D2B48523829B
:10021900852483EEF0C2B4D2B5D2B4852382852475
:1002290083E50BF0C2B4D2B5D2B485238285248389
:10023900E50AF0C2B4C2B5D2B48523828524837499
:100249002BF0C2B4D2B5D2B4852382852483E509C3
:10025900F0C2B4D2B5D2B4852382852483E508F0EF
:10026900C2B4D2B5D2B4852382852483E50DF0C208
:10027900B4D2B5D2B4852382852483E50CF0C2B407
:100289002290000174F0F0E4A3F09000037440F0B0
:100299007401A3F0C2B4D2B5C2B5D2B485238285A4
:1002A9002483E4F0C2B4D2B5D2B4852382852483F1
:1002B900E4F0C2B4D2B5D2B4852382852483E4F0B4
:1002C900C2B4D2B5D2B4852382852483E4F0C2B402
:1002D9009000C812009A7508007582011200CA9030
:1002E900003212009A7508007582281200CA90001F
:1002F9000A12009A7508237582C01200CA7508117E
:100309007582C11200CAC2B5D2B4852382852483FD
:1003190074C5F0C2B4D2B5D2B4852382852483745E
:100329003DF0C2B4D2B5D2B485238285248374301A
:10033900F0C2B47508AA7582C71200CA7508887513
:1003490082361200CAC2B5D2B48523828524837449
:100359003AF0C2B4D2B5D2B48523828524837455C8
:10036900F0C2B4D2B5D2B4852382852483E4F0C225
:10037900B475081B7509009000B11200EA750807E9
:100389007582B71200CA7508007582111200CA90E9
:10039900009612009A7508007582291200CA900108
:1003A900F412009A900001E0FEA3E0FF1EBEFF01D7
:1003B9001F8E0A8F0B900003E0FEA3E0FF1EBEFF15
:1003C900011F8E0C8F0DE4F508F50990000002015C
:1003D900EFAE82AF838E048F050CBC00010D8C0A31
:1003E9008D0BAC37AD380CBC00010D8C0C8D0D8517
:1003F90037088538098E828F831201EFC2B5D2B4CE
:10040900852382852483742CF0C2B4D2B5D2B485F5
:100419002382852483E53AF0C2B4D2B48523828548
:100429002483E539F0C2B42285824185834274016F
:10043900C3953DFCE4953EFD900005ECF0EDA3F07D
:10044900853D08853E0990FFFE121B2BAC82AD83CA
:10045900AA3DAB3EE53D253BF537E53E353CF53854
:10046900853F3985403A854182854283C005C0046C
:10047900C003C0021203DAE53BC3953DF537E53CFD
:10048900953EF538853F3985403A854182854283D5
:100499001203DAE53D2541F582E53E3542F58385CE
:1004A9003B37853C38853F3985403A1203DAE541C7
:1004B900C3953DF582E542953EF583853B37853CFD
:1004C90038853F3985403A1203DAD002D003D00487
:1004D900D005780079007543018944C3E89AE96435
:1004E900808BF063F08095F0400122900005E0F5E3
:1004F90045A3E0F54620E7181ABAFF011B74022C40
:10050900FCE43DFD900005EC2545F0ED3546A3F0F2
:10051900C004C00508B800010974022543F543E485
:100529003544F544900005E0FEA3E0FF900005E5A1
:10053900432EF0E5443FA3F0AE41AF42E82EFCE97B
:100549003FFD8C458D46853B47853C48EA2547FC60
:10055900EB3548FD8C498D4A854937854A38853FB1
:100569003985403A854582854683C007C006C0055E
:10057900C004C003C002C001C0001203DAD000D019
:1005890001D002D003D004D005D006D007EEC3981D
:10059900FCEF99FD8C4B8D4C854937854A38853F51
:1005A9003985403A854B82854C83C007C006C00512
:1005B900C004C003C002C001C0001203DAD000D0D9
:1005C90001D002D003D004D005E547C39AFCE54821
:1005D9009BFD8C378D38853F3985403A8545828525
:1005E9004683C005C004C003C002C001C000120395
:1005F900DAD000D001D002D003D004D0058C378DD9
:1006090038853F3985403A854B82854C83C005C082
:1006190004C003C002C001C0001203DAD000D00137
:10062900D002D003D004D005D006D007EA2EFCEBC7
:100639003FFD8C4B8D4CE82547FCE93548FD8C374F
:100649008D38853F3985403A854B82854C83C00773
:10065900C006C005C004C003C002C001C000120327
:10066900DAD000D001D002D003D004D005D006D012
:1006790007EEC39AFEEF9BFF8C378D38853F39858E
:10068900403A8E828F83C007C006C005C004C003EC
:10069900C002C001C0001203DAD000D001D002D0DC
:1006A90003D004D005E547C398FCE54899FD8C378C
:1006B9008D38853F3985403A854B82854C83C00505
:1006C900C004C003C002C001C0001203DAD000D0C8
:1006D90001D002D003D004D005D006D0078C378DC5
:1006E90038853F3985403A8E828F83C005C004C062
:1006F90003C002C001C0001203DAD000D001D00249
:10070900D003D004D005D005D0040204E485824F7B
:10071900AD4F7E00ED2DFBEE33FC900001E0F9A317
:10072900E0FAED29F9EE3AFA900003E0FFA3E0F8C8
:10073900ED2FFFEE38FE900007E4F0A3F0900007DC
:10074900E0F8A3E0FDC3E899ED64808AF063F080E6
:1007590095F0400122900009E4F0A3F0900009E02F
:10076900F550A3E0F551C3E5509FE55164808EF043
:1007790063F08095F0504788828D8385503B855181
:100789003C854F3D753E00854D3F854E40C007C0B5
:1007990006C005C004C003C002C001C00012043174
:1007A900D000D001D002D003D004D005D006D007A4
:1007B900900009EB2550F0EC3551A3F0809E900094
:1007C90007E0F8A3E0FD900007EB28F0EC3DA3F06B
:1007D900020746AE82AF838E048F05C3EC94F0ED19
:1007E9009400500DAC52AD53C3EC9440ED940140CC
:1007F9000122E5542EFCE5553FFD1CBCFF011DC33C
:10080900EC94F0ED9400400A74F0C39EF554E49F13
:10081900F555E5562552FCE5573553FD1CBCFF013E
:100829001DC3EC9440ED9401400D7440C39552F5FD
:100839005674019553F557E5542EFCE5553FFD1CBB
:10084900BCFF011D8C0A8D0BE5562552FCE5573579
:1008590053FD1CBCFF011D8C0C8D0D855208855361
:10086900098E828F831201EFC2B5D2B485238285A6
:100879002483742CF0C2B4D2B5AF59AD56AE57ED3E
:100889004E6030AB54AC55EB4C6021D2B485238219
:10089900852483EFF0C2B4D2B4852382852483E50D
:1008A90058FAF0C2B41BBBFF011C80DB1DBDFF0160
:1008B9001E80CC22AE82AF838F05E4F508F5097559
:1008C9000AEFF50B750C3F750D01900000C006C0CD
:1008D900051201EFD005D006C2B5D2B485238285B1
:1008E9002483742CF0C2B4D2B5D2B4852382852472
:1008F90083EDF0C2B4D2B4852382852483EEF0C29D
:10090900B47CB07F048C028F031CBCFF011FEA4B2F
:1009190060667B10D2B4852382852483EDF0C2B44E
:10092900D2B4852382852483EEF0C2B4D2B4852360
:1009390082852483EDF0C2B4D2B4852382852483D1
:10094900EEF0C2B4D2B4852382852483EDF0C2B41B
:10095900D2B4852382852483EEF0C2B4D2B4852330
:1009690082852483EDF0C2B4D2B4852382852483A1
:10097900EEF0C2B4DB9E808D7F3F8F041FEC601ABE
:10098900D2B4852382852483EDF0C2B4D2B4852301
:1009990082852483EEF0C2B480E022AE82AF83C3A5
:1009A900EE94F0EF648094805067AC5AAD5BC3EC71
:1009B9009440ED648094815058AA617B008A088B29
:1009C90009900006C007C006C005C004C003C002E4
:1009D900121B2BA882A983D002D003D004D005D042
:1009E90006D007E82EF8E93FF918B8FF0119E92000
:1009F900E71FEBC40354F8CAC403CA6ACA54F8CA45
:100A09006AFBEA2CFAEB3DFB1ABAFF011BEB30E754
:100A190001227401B5610474018001E4FB8B68E56E
:100A29005DB55F08E55EB56003D38001C3920079C7
:100A390000B9050790000BE4F08049855C08750949
:100A490000900005C007C006C005C004C003C0016E
:100A5900121B2BA882AA83D001D003D004D005D0C1
:100A690006D007E82423F562EA341CF563E9F83374
:100A790095E0FAE82562F582EA3563F583E493FAAD
:100A890090000BF0C2D58561F0E930E704B2D5F4E6
:100A990004A430D50AF42401C5F0F43400C5F02EBD
:100AA900F562EF35F0F563890085626485636589D0
:100AB9006675670090000BE020E003020B7CEB6099
:100AC9004EC000E566F83395E0FAE82EF8EA3FFAF9
:100AD90088828A83E567F83395E0FAE82CF8EA3DDD
:100AE900FA88378A38855D39855E3AC007C006C0FD
:100AF90005C004C003C001C0001203DAD000D00150
:100B0900D003D004D005D006D007D000020C33C0E2
:100B190000856482856583C2D58561F0E56730E724
:100B290004B2D5F404A430D50AF42401C5F0F43490
:100B390000C5F02CF8ED35F0FA88528A53A8617A8D
:100B49000088548A5588568A57855D58855E59C0EC
:100B590007C006C005C004C003C001C0001207DCFD
:100B6900D000D001D003D004D005D006D007D000E2
:100B7900020C33300003020C33E568604CC003E813
:100B8900FA3395E0FBEA2EFAEB3FFB8A828B83E589
:100B990067FA3395E0FBEA2CFAEB3DFB8A378B3891
:100BA900855F3985603AC007C006C005C004C00327
:100BB900C001C0001203DAD000D001D003D004D0A4
:100BC90005D006D007D0038061C0008562828563A5
:100BD90083C2D58561F0E56730E704B2D5F404A492
:100BE90030D50AF42401C5F0F43400C5F02CF8ED31
:100BF90035F0FA88528A53A8617A0088548A558850
:100C0900568A57855F58856059C007C006C005C018
:100C190004C003C001C0001207DCD000D001D0031A
:100C2900D004D005D006D007D00090000BE0C31344
:100C3900FAF00567C3E567648094885003020ABD2A
:100C490009C3E9648094865003020A3A22AF82BF3D
:100C59000A26AD31E4C40354F8CDC403CD6DCD5497
:100C6900F8CD6DFEAB2FAC30ED2BFBEE3CFC8B2FA2
:100C79008C30E4F52DF52E22BF0D0122852F5A85E2
:100C8900305B8F5C85335D85345E85355F85366085
:100C9900853161852D82852E831209A485310875D8
:100CA9000900900006121B2BAE82AF83AC2DAD2E2E
:100CB900EE2CFCEF3DFD8C2D8D2E22AD82AE83AF47
:100CC900F07B007C00EB2DF8EC3EF98F02888289DD
:100CD900838AF0121B95FA60208A82C007C006C079
:100CE90005C004C003120C56D003D004D005D006A9
:100CF900D0070BBB00CF0C80CC22E58290000CF012
:100D0900E0FF7B007C007D007E00C2B48B828C8377
:100D1900EFF0D2B40BBB00090CBC00050DBD0001FE
:100D29000EC3EB94FFEC94FFED9400EE940040DACF
:100D39002290000DE4F090000DE0FFBF080D900037
:100D49000DE4F075820A120C568006120D63120C1E
:100D59005690000DE02401F080DC7590F07590F05C
:100D69008590215321F074F0B521F29000141200FE
:100D79009AE59054F0F52174F0B5210280ED9000C8
:100D89000112009AE59054F0F52174F0B521028022
:100D9900DA7590FEE59054F0F52174F0B5210280E2
:100DA90005752200803D7590FDE59054F0F521749C
:100DB900F0B52102800575220180287590FBE59028
:100DC90054F0F52174F0B5210280057522028013D3
:100DD9007590F7E59054F0F52174F0B5210280B1D2
:100DE90075220374E0B52115E52275F004A4241ECB
:100DF900F582742135F0F583E493F5822274D0B538
:100E09002118E52275F004A4241EFE742135F0FF93
:100E19008E828F83A3E493F5822274B0B52119E5FC
:100E29002275F004A4241EFE742135F0FF8E828FF2
:100E390083A3A3E493F58222E52275F004A4241E7A
:100E4900FE742135F0FF8E828F83A3A3A3E493F56B
:100E59008222AF8290000EE4F0A3F0BF010040634C
:100E69008F057E0075080A8E098D828E83C006C0A3
:100E790005121BB1AB82AC83D005D006900010EBF4
:100E8900F0ECA3F075080A7509008D828E83121B98
:100E9900E7AD828D0790000EE0FDA3E0FE8D088E80
:100EA9000990000AC007121B2BAD82AE83D00790B0
:100EB9000010E0FBA3E0FC90000EEB2DF0EC3EA34C
:100EC900F0809890000EE0FEA3E08E82F58322E583
:100ED90082900012F0E0F582120E5BE5828583F0C4
:100EE900900014F0E5F0A3F0900014E0FEA3E0FFF9
:100EF900C3EE9401EF9400404275080A7509008E0B
:100F0900828F83C007C006121B48AC82D006D00767
:100F1900900013ECF075080A7509008E828F831210
:100F29001B02AE82AF83900014EEF0EFA3F09000A5
:100F390013E02430F582120C5680AD22AF82756918
:100F490000756A007E00BF0100405A8F047D00745D
:100F59000F5CFA7508108D098C828D83C006C0025A
:100F6900121BE7AC82D002D0068C07EA24F6400CAB
:100F7900EE2469F98A0574302DF78026EE2469F983
:100F89007D0075080A8D098A828D83C007C006C055
:100F990001121BB1AC82AD83D001D006D0077441D8
:100FA9002CF70E80A1856A82120C56856982020C83
:100FB90056E582FF24C6920140088F06EE24D0FE32
:100FC900800474C92FFE8E822290F8001208BD9009
:100FD900001412009A9007E01208BD900014120044
:100FE9009A7582001201619000001208BD754D00CA
:100FF900754EF875821412071690006412009A90C3
:1010090000001208BD758205120149E4F508F509C9
:101019009007FF12013C90212E75F080120CC475C7
:10102900820312014990213775F080120CC4902176
:101039004275F080120CC49000C812009A9000000A
:101049001208BD758201120161E4F508F5099000E5
:101059000012012F90214D75F080120CC49001F4FB
:1010690012009A9000001208BD758202120161E413
:10107900F508F50990000012012F90215875F080AC
:10108900120CC49001F412009A9000001208BD7568
:101099008203120161E4F508F50990000012012F9D
:1010A9009000C812009A90216375F080120CC490C8
:1010B90000C802009A900016E4F0A3F07F00C00770
:1010C900120D63AE82C006120C56D0068E82120F24
:1010D900BAAE82D007900016E0FCA3E0FD7B009039
:1010E9000016EE4CF0EB4DA3F0BF0302801C9000FC
:1010F90016E0FDA3E0C454F0CDC4CD6DCD54F0CDC0
:101109006DFE900016EDF0EEA3F00FBF040040AEA7
:10111900900016E0FEA3E08E82F58322900018E489
:10112900F07F00C007120D63AE82C006120C56D0C4
:10113900068E82120FBAAE82D007900018E04EF0E8
:10114900BF01028009900018E0C454F0FEF00FBFFF
:10115900020040CF900018E0F5822290D6BA12081A
:10116900BDE4F508F50990000012012F75820212FD
:10117900014990001AE4F090216E75F080120CC4B8
:10118900121125E582900019F075820A120C569009
:10119900218375F080120CC47E007F00C2B48E04D6
:1011A9008F05900019E0FBF97A008C828D83E9F0B4
:1011B900EAA3F0D2B4E9B5030280438B82C005C02B
:1011C90004C001120F45758220120C56D001898284
:1011D900120F45758220120C56D004D0058C828DD1
:1011E90083E0F582120F4575820A120C56902193FD
:1011F90075F080120CC490001A7401F08078C2B4A2
:10120900900019EBF4F0E0FBF97A008C828D83E908
:10121900F0EAA3F0D2B4E9B503028045EBF4F58214
:10122900C005C004C001120F45758220120C56D0AA
:10123900018982120F45758220120C56D004D005FF
:101249008C828D83E0F582120F4575820A120C5645
:1012590090219375F080120CC490001A7401F080EB
:10126900150EBE00010F8E048F05C3EC94FFED949B
:10127900FF50030211A590001AE060099021A8759A
:10128900F080120CC49021B275F080120CC4120DBA
:1012990063AF82BF31F82290D6BA1208BDE4F508CF
:1012A900F50990000012012F75820212014990215F
:1012B900C475F080120CC4121125AF8275820AC060
:1012C90007120C569021D075F080120CC41210BE72
:1012D900AD82AE8375820AC006C005120C569021F4
:1012E900DF75F080120CC4D005D006D007C2B48DCA
:1012F900828E838F057E00EDF0EEA3F0D2B4EDB5BA
:1013090007108D82120F459021EC75F080120CC4E4
:10131900800990220075F080120CC49021B275F0FA
:1013290080120CC4120D63AF82BF31F82290D6BA75
:101339001208BDE4F508F50990000012012F758225
:101349000212014990220E75F080120CC41210BECF
:10135900AE82AF8375820AC007C006120C5690226E
:101369002475F080120CC41210BEAC82AD83758254
:101379000AC005C004120C5690223B75F080120C6D
:10138900C4121125AB8275820AC003120C56902231
:101399004875F080120CC4D003D004D005D006D013
:1013A900077A00C3EA9B506DC0038A6F7570008588
:1013B9006F6D85706EEE256DF9EF356EFBB9FF0720
:1013C900BBFF04D003804ED003EC256DF8ED356EDC
:1013D900F9B8FF05B9FF02803CC003C2B48E6D8F16
:1013E9006EE56F256DF8E570356EFB88828B838C11
:1013F900018D03E56F29F9E5703BFB896B8B6CE087
:10140900F87B00856B82856C83E8F0EBA3F0D2B49E
:101419000AD003808E90225D75F080120CC4902151
:10142900B275F080120CC4120D63AF82BF31F8227D
:10143900AF83E58290001BF0EFA3F090001BE0FE64
:10144900A3E0FFFC8E058C82C007C006C005C0045E
:10145900120F45D004D0058D82C005C004120F4576
:1014690090226475F080120CC4D004D005D006D047
:1014790007C2B48E828F83E0FBD2B48B82C007C0CF
:1014890006C005C004120F4575820A120C56902237
:101499006775F080120CC4121125AB8275820AC0DF
:1014A90003120C56D003D004D005D006D007C2B41D
:1014B9007A008E828F83EBF0EAA3F0D2B48C82C0DB
:1014C90005C003120F45D003D0058D82C003120F4A
:1014D9004590226475F080120CC4D0038B82120FE0
:1014E9004575820A020C5690D6BA1208BDE4F50871
:1014F900F50990000012012F75820212014990220C
:101509007875F080120CC41210BEAE82AF8375825A
:101519000AC007C006120C56D006D0078E828F83E8
:10152900C007C006121439D006D0079021B275F051
:1015390080C007C006120CC490228875F080120C76
:10154900C490229F75F080120CC4120D63AD82D035
:1015590006D00790001DEDF0BD310122BD322F905C
:10156900D6BAC007C0061208BDE4F508F50990000F
:101579000012012FD006D0078E828F83C007C006C4
:10158900121439D006D00790001DE4F08035BD3320
:101599003290D6BAC007C0061208BDE4F508F509AD
:1015A90090000012012FD006D0070EBE00010F8E49
:1015B900828F83C007C006121439D006D007900065
:1015C9001DE4F090001DE0FDBD310122BD32012274
:1015D900BD33012202153422AE82AF8390D6BAC040
:1015E90007C0061208BDE4F508F5099000001201CC
:1015F9002F758202120149D006D007E57470139045
:1016090022BD75F080C007C006120CC4D006D007F1
:101619008017857482C007C006120F459022CF75C6
:10162900F080120CC4D006D007AD737C00C3EC95D2
:1016390071400122C2B48C027B008E008F01EA281E
:10164900F8EB39F988828983E0FB89028E01EC295C
:10165900F9EBB5723B8D820DC007C006C005C00409
:10166900C002C001120F4590226475F080120CC4AB
:10167900D001D0028A82C001120F45D0018982129D
:101689000F4575820A120C56D004D005D006D00732
:101699000C02163690D6BA1208BDE4F508F5099081
:1016A900000012012F75820212014990001E740177
:1016B900F09022DF75F080120CC412112585827515
:1016C90075820A120C5690220E75F080120CC41203
:1016D90010BEAD82AE8375820AC006C005120C56D3
:1016E9009022F575F080120CC41211258582777548
:1016F900820A120C56D005D0067576007A00C3EA24
:1017090095775021C2B48A0079008D038E04E82BA5
:10171900FBE93CFC8B828C83E0FCD2B4ECB575020E
:1017290005760A80D9AC7675710F85757275730067
:101739008576748D828E83C006C005C0041215E1BA
:1017490075780FA9777A0075080F8A0989828A83C3
:10175900121BE7A982D004D005D0068979C3740F7A
:101769009576E433FAF88A7A8A7B8A7C90001EE0BF
:10177900F57D7401B57D028032E579B57D02802B56
:10178900EA602890230875F080C006C005C004C02F
:1017990002C000120CC490231E75F080120CC4D034
:1017A90000D002D004D005D006805790001EE0F585
:1017B9007DE579B57D028022E8601F90231E75F0D2
:1017C90080C006C005C004C002C000120CC4D0000D
:1017D900D002D004D005D00680287401B57D0280DE
:1017E90021E57A601D90230875F080C006C005C008
:1017F90004C002C000120CC4D000D002D004D0052D
:10180900D0069021B275F080C006C005C004C002A0
:10181900C000120CC4120D6385827DD000D002D0A5
:1018290004D005D0067431B57D01227442B57D57C7
:1018390090001EE0F57EE579B57E02804AE57B6081
:1018490046A978740F29F5788D018E07740F29F947
:10185900E43FFF89058F0675710F85757285787369
:101869008C748D828E83C006C005C004C002C0007E
:101879001215E1D000D002D004D005D00690001E88
:10188900E57E04F00217757441B57D0280030217E5
:101899007590001EE0FFBF0103021775E57C700318
:1018A900021775E57824F1F5788D018E03E924F1A5
:1018B900F9EB34FFFB89058B0675710F8575728508
:1018C90078738C748D828E83C007C006C005C004EE
:1018D900C002C0001215E1D000D002D004D005D05A
:1018E90006D007EF1490001EF0021775D2B48527B1
:1018F90082852883E0F58222D2B4852982852A83CC
:10190900E0F58222AF8290D6BAC0071208BDE4F58D
:1019190008F50990000012012F90233075F080120C
:101929000CC4D0078F82120F4575820A120C56908B
:1019390021B275F080120CC490233E75F080020C20
:10194900C4AF8290D6BAC0071208BDE4F508F509FC
:1019590090000012012F90235475F080120CC4D00E
:10196900078F82120F4575820A120C569021B275A3
:10197900F080120CC490233E75F080020CC490D6FE
:10198900BA1208BDE4F508F50990000012012F7597
:10199900820212014985278285288312008912193A
:1019A9000D120D63AF82BF310122852782852883FD
:1019B90012008912190D80E990D6BA1208BDE4F512
:1019C90008F50990000012012F758202120149855C
:1019D9002982852A8312008912194A120D63AF825E
:1019E900BF310122852982852A8312008912194A69
:1019F90080E975820212016175820312014990D64C
:101A0900BA1208BD7508BA7509D690000012013CD2
:101A1900E4F508F50990000012012F90236275F092
:101A290080120CC490237175F080120CC475820267
:101A390012014990237C75F080120CC490238C7597
:101A4900F080120CC490239575F080120CC4902379
:101A59009F75F080120CC49023A875F080120CC4F5
:101A69009023B175F080120CC49023BA75F08012DE
:101A79000CC49023C475F080120CC49023D475F063
:101A890080020CC475080085258285268312007999
:101A990012028A9000001208BD7582001201617558
:101AA9004D1F754E007582141207161219FB120D7F
:101AB90063AF82BF3102801EBF3302801EBF340272
:101AC9008023BF36028023BF37028028BF410280AE
:101AD9000FBF42D780191212A080D012116480CB97
:101AE90012133680C61214F080C112169D80BC12E2
:091AF900198780B71219C180B2EF
:101C230000000000003E5B4F5B3E3E6B4F6B3E1C73
:101C33003E7C3E1C183C7E3C181C577D571C1C5E8A
:101C43007F5E1C00183C1800FFE7C3E7FF00182461
:101C53001800FFE7DBE7FF30483A060E262979290B
:101C630026407F050507407F05253F5A3CE73C5A40
:101C73007F3E1C1C08081C1C3E7F14227F22145F1D
:101C83005F005F5F06097F017F006689956A606078
:101C930060606094A2FFA29408047E040810207E72
:101CA300201008082A1C08081C2A08081E101010F7
:101CB300100C1E0C1E0C30383E3830060E3E0E063D
:101CC300000000000000005F000000070007001490
:101CD3007F147F14242A7F2A12231308646236494F
:101CE3005620500008070300001C22410000412237
:101CF3001C002A1C7F1C2A08083E0808008070303C
:101D030000080808080800006060002010080402AA
:101D13003E5149453E00427F4000724949494621B0
:101D230041494D331814127F1027454545393C4A24
:101D3300494931412111090736494949364649493B
:101D4300291E000014000000403400000008142283
:101D530041141414141400412214080201590906F1
:101D63003E415D594E7C1211127C7F494949363EF2
:101D7300414141227F4141413E7F494949417F09D8
:101D83000909013E414151737F0808087F00417FE3
:101D930041002040413F017F081422417F404040E1
:101DA300407F021C027F7F0408107F3E4141413E79
:101DB3007F090909063E4151215E7F0919294626FB
:101DC3004949493203017F01033F4040403F1F20FF
:101DD30040201F3F4038403F6314081463030478D6
:101DE30004036159494D43007F41414102040810F6
:101DF30020004141417F0402010204404040404031
:101E0300000307080020545478407F28444438389E
:101E130044444428384444287F3854545418000810
:101E23007E090218A4A49C787F0804047800447DEA
:101E330040002040403D007F1028440000417F4087
:101E4300007C047804787C080404783844444438DB
:101E5300FC1824241818242418FC7C0804040848BB
:101E63005454542404043F44243C4040207C1C200C
:101E730040201C3C4030403C44281028444C909067
:101E8300907C4464544C44000836410000007700C1
:101E930000004136080002010204023C2623263CCE
:101EA3001EA1A161123A4040207A38545455592159
:101EB3005555794122545478422155547840205441
:101EC3005579400C1E52721239555555593954548F
:101ED300545939555454580000457C410002457DFE
:101EE300420001457C407D1211127DF0282528F027
:101EF3007C545545002054547C547C0A097F493254
:101F0300494949323A4444443A324A4848303A41CA
:101F130041217A3A42402078009DA0A07D3D424273
:101F2300423D3D4040403D3C24FF2424487E4943FC
:101F3300662B2FFC2F2BFF0929F620C0887E09036F
:101F430020545479410000447D413048484A323896
:101F53004040227A007A0A0A727D0D19317D2629C2
:101F6300292F28262929292630484D4020380808BA
:101F7300080808080808382F10C8ACBA2F102834EE
:101F8300FA00007B000008142A142222142A1408E1
:101F9300AA005500AAAA55AA55AA000000FF0010DE
:101FA3001010FF00141414FF001010FF00FF101096
:101FB300F010F0141414FC001414F700FF0000FFD9
:101FC30000FF1414F404FC141417101F10101F1036
:101FD3001F1414141F00101010F0000000001F1035
:101FE3001010101F10101010F010000000FF101040
:101FF30010101010101010FF10000000FF1400004C
:10200300FF00FF00001F10170000FC04F414141756
:1020130010171414F404F40000FF00F7141414143C
:10202300141414F700F7141414171410101F101FAE
:10203300141414F4141010F010F000001F101F00FB
:1020430000001F14000000FC140000F010F010103A
:10205300FF10FF141414FF141010101F00000000D1
:10206300F010FFFFFFFFFFF0F0F0F0F0FFFFFF00C5
:1020730000000000FFFF0F0F0F0F0F3844443844D8
:10208300FC4A4A4A347E02020606027E027E02634C
:10209300554941633844443C04407E201E200602D7
:1020A3007E020299A5E7A5991C2A492A1C4C7201B4
:1020B300724C304A4D4D303048784830BC625A46F5
:1020C3003D3E494949007E0101017E2A2A2A2A2AE6
:1020D30044445F444440514A444040444A514000D0
:1020E30000FF0103E080FF000008086B6B08361255
:1020F300362436060F090F060000181800000010DA
:1021030010003040FF0101001F01011E00191D17BF
:1021130012003C3C3C3C00000000003134374632A6
:10212300353830333639454142434457656C636F24
:102133006D650A004543454E2D343333300A005252
:102143006F746174696F6E203000526F74617469CB
:102153006F6E203100526F746174696F6E203200AC
:10216300526F746174696F6E203300456E746572CB
:10217300206279746520746F20636865636B0A005D
:10218300496E2070726F67726573732E2E2E0A006C
:102193004D656D6F727920636865636B2066616955
:1021A3006C65640A0053756363657373210A005099
:1021B30072657373203120666F72206D656E750AC8
:1021C30000456E74657220627974650A00456E7409
:1021D300657220616464726573730A00496E2070CE
:1021E300726F67726573730A00206665746368654E
:1021F30064210A53756363657373210A0043686539
:10220300636B206661696C65640A00456E74657270
:1022130020737461727420616464726573733A0A23
:1022230000456E7465722074617267657420616421
:1022330064726573733A0A00456E7465722073693C
:102243007A653A0A004D6F766520696E2070726F69
:1022530067726573732E2E2E0A00446F6E65210A12
:10226300003A2000456E746572206E6577206279AE
:1022730074653A0A00456E74657220616464726520
:1022830073733A0A005072657373203220746F209F
:102293006564697420616761696E0A0050726573D1
:1022A30073203320746F2065646974206E657874BD
:1022B30020616464726573730A004E6F206D6174EC
:1022C3006368657320666F756E640A00206D6174C0
:1022D3006368657320666F756E640A00456E746586
:1022E30072206279746520746F20636F756E743A1F
:1022F3000A00456E74657220626C6F636B207369AC
:102303007A653A0A005072657373204120666F72D2
:102313002070726576696F75730A00507265737306
:10232300204220666F72206E6578740A0054656DD2
:1023330070657261747572653A20005072657373CB
:10234300206B657920746F20726566726573680A05
:10235300004C69676874206C6576656C3A200042AE
:1023630072616E646F6E20436C696E650A0045434B
:10237300454E20343333300A00313A2042617369C9
:102383006320636865636B0A00323A2044756D709D
:102393000A00333A20436865636B0A00413A204DD3
:1023A3006F76650A00343A20456469740A00353A49
:1023B3002046696E640A00363A20436F756E740ACC
:1023C30000423A2054656D70657261747572650AD6
:0B23D30000373A204C696768740A006C
:101B02007A10E4FBFCE58225E0F582E58333F58378
:101B1200EB33FBEC33FCEB9508F5F0EC9509400652
:091B2200FCABF0438201DADD2284
:06003500E478FFF6D8FD9F
:100013007900E94400601B7A009023DE781F75A005
:1000230000E493F2A308B8000205A0D9F4DAF2754C
:02003300A0FF2C
:101B2B00E5828508F0A4C582C0F08509F0A4D0F049
:101B3B0025F0C5838508F0A42583F58322E50845A8
:101B4B000960467A01E50825E0F508E509334012FE
:101B5B00F509E5829508E583950940030A80E6C3FC
:101B6B00E50913F509E50813F508C3E5829508F5B2
:101B7B00F0E58395094005F58385F082C3E50913EC
:0A1B8B00F509E50813F508DAE12278
:10003B007800E84400600A790175A000E4F309D860
:10004B00FC781EE84400600C7901900001E4F0A3F9
:04005B00D8FCD9FAFA
:0D00060075817E121C1FE58260030200035D
:101B950020F71430F6148883A88220F507E6A88379
:101BA50075830022E280F7E49322E022C2D5E58323
:101BB50030E70DD2D5E4C39582F582E49583F583AC
:101BC500E50930E70BE4C39508F508E49509F5093F
:101BD500121B4830D50BE4C39582F582E49583F555
:101BE5008322C2D5E58330E70DD2D5E4C39582F5CE
:101BF50082E49583F583E50930E70DB2D5E4C39515
:101C050008F508E49509F509121B0230D50BE4C364
:0E1C15009582F582E49583F583227582002284
:00000001FF
