:03000000020006F5
:10005F00752300752440752500752680752700755A
:0A006F0028C0E4F529F52A02000379
:03000300021E9545
:10007900AE82AF83D2B48E828F83E508F0C2B422F8
:10008900AE82AF83D2B48E828F83E0FEC2B48E82F9
:1000990022AE82AF837C007D008C028D03C3EA9E71
:1000A900EB64808FF063F08095F050147AE87B035D
:1000B9001ABAFF011BEA4B70F70CBC00DC0D80D9A2
:1000C90022AF82C2B5D2B4852382852483EFF0C2E0
:1000D900B4D2B5D2B4852382852483E508F0C2B4AD
:1000E90022AE82AF838F05C2B5D2B485238285241F
:1000F90083EDF0C2B4C2B5D2B4852382852483EEE0
:10010900F0C2B4AF09AE08D2B5D2B5D2B485238254
:10011900852483EFF0C2B4D2B5D2B4852382852475
:1001290083EEF0C2B42285822D85832E85082F8522
:10013900093022858233858334850835850936223D
:10014900E582FF24F7500122EF60068F067F0080C9
:10015900047E017F008E3122E582FF24FC406AEF94
:100169002F90016E738006801B803080457F4890F8
:10017900000174F0F0E4A3F09000037440F07401FE
:10018900A3F0805A7F289000017440F07401A3F015
:1001990090000374F0F0E4A3F080437F889000019D
:1001A90074F0F0E4A3F09000037440F07401A3F03C
:1001B900802C7FE89000017440F07401A3F0900056
:1001C9000374F0F0E4A3F080157F4890000174F007
:1001D900F0E4A3F09000037440F07401A3F08F08D9
:1001E9007582360200CAAE82AF83C2B5D2B4852306
:1001F90082852483742AF0C2B4D2B5D2B48523820D
:100209008524838F05EDF0C2B4D2B5D2B48523829B
:10021900852483EEF0C2B4D2B5D2B4852382852475
:1002290083E50BF0C2B4D2B5D2B485238285248389
:10023900E50AF0C2B4C2B5D2B48523828524837499
:100249002BF0C2B4D2B5D2B4852382852483E509C3
:10025900F0C2B4D2B5D2B4852382852483E508F0EF
:10026900C2B4D2B5D2B4852382852483E50DF0C208
:10027900B4D2B5D2B4852382852483E50CF0C2B407
:100289002290000174F0F0E4A3F09000037440F0B0
:100299007401A3F0C2B4D2B5C2B5D2B485238285A4
:1002A9002483E4F0C2B4D2B5D2B4852382852483F1
:1002B900E4F0C2B4D2B5D2B4852382852483E4F0B4
:1002C900C2B4D2B5D2B4852382852483E4F0C2B402
:1002D9009000C812009A7508007582011200CA9030
:1002E900003212009A7508007582281200CA90001F
:1002F9000A12009A7508237582C01200CA7508117E
:100309007582C11200CAC2B5D2B4852382852483FD
:1003190074C5F0C2B4D2B5D2B4852382852483745E
:100329003DF0C2B4D2B5D2B485238285248374301A
:10033900F0C2B47508AA7582C71200CA7508887513
:1003490082361200CAC2B5D2B48523828524837449
:100359003AF0C2B4D2B5D2B48523828524837455C8
:10036900F0C2B4D2B5D2B4852382852483E4F0C225
:10037900B475081B7509009000B11200EA750807E9
:100389007582B71200CA7508007582111200CA90E9
:10039900009612009A7508007582291200CA900108
:1003A900F412009A900001E0FEA3E0FF1EBEFF01D7
:1003B9001F8E0A8F0B900003E0FEA3E0FF1EBEFF15
:1003C900011F8E0C8F0DE4F508F50990000002015C
:1003D900EFAE82AF838E048F050CBC00010D8C0A31
:1003E9008D0BAC37AD380CBC00010D8C0C8D0D8517
:1003F90037088538098E828F831201EFC2B5D2B4CE
:10040900852382852483742CF0C2B4D2B5D2B485F5
:100419002382852483E53AF0C2B4D2B48523828548
:100429002483E539F0C2B42285824185834274016F
:10043900C3953DFCE4953EFD900005ECF0EDA3F07D
:10044900853D08853E0990FFFE121F47AC82AD83AA
:10045900AA3DAB3EE53D253BF537E53E353CF53854
:10046900853F3985403A854182854283C005C0046C
:10047900C003C0021203DAE53BC3953DF537E53CFD
:10048900953EF538853F3985403A854182854283D5
:100499001203DAE53D2541F582E53E3542F58385CE
:1004A9003B37853C38853F3985403A1203DAE541C7
:1004B900C3953DF582E542953EF583853B37853CFD
:1004C90038853F3985403A1203DAD002D003D00487
:1004D900D005780079007543018944C3E89AE96435
:1004E900808BF063F08095F0400122900005E0F5E3
:1004F90045A3E0F54620E7181ABAFF011B74022C40
:10050900FCE43DFD900005EC2545F0ED3546A3F0F2
:10051900C004C00508B800010974022543F543E485
:100529003544F544900005E0FEA3E0FF900005E5A1
:10053900432EF0E5443FA3F0AE41AF42E82EFCE97B
:100549003FFD8C458D46853B47853C48EA2547FC60
:10055900EB3548FD8C498D4A854937854A38853FB1
:100569003985403A854582854683C007C006C0055E
:10057900C004C003C002C001C0001203DAD000D019
:1005890001D002D003D004D005D006D007EEC3981D
:10059900FCEF99FD8C4B8D4C854937854A38853F51
:1005A9003985403A854B82854C83C007C006C00512
:1005B900C004C003C002C001C0001203DAD000D0D9
:1005C90001D002D003D004D005E547C39AFCE54821
:1005D9009BFD8C378D38853F3985403A8545828525
:1005E9004683C005C004C003C002C001C000120395
:1005F900DAD000D001D002D003D004D0058C378DD9
:1006090038853F3985403A854B82854C83C005C082
:1006190004C003C002C001C0001203DAD000D00137
:10062900D002D003D004D005D006D007EA2EFCEBC7
:100639003FFD8C4B8D4CE82547FCE93548FD8C374F
:100649008D38853F3985403A854B82854C83C00773
:10065900C006C005C004C003C002C001C000120327
:10066900DAD000D001D002D003D004D005D006D012
:1006790007EEC39AFEEF9BFF8C378D38853F39858E
:10068900403A8E828F83C007C006C005C004C003EC
:10069900C002C001C0001203DAD000D001D002D0DC
:1006A90003D004D005E547C398FCE54899FD8C378C
:1006B9008D38853F3985403A854B82854C83C00505
:1006C900C004C003C002C001C0001203DAD000D0C8
:1006D90001D002D003D004D005D006D0078C378DC5
:1006E90038853F3985403A8E828F83C005C004C062
:1006F90003C002C001C0001203DAD000D001D00249
:10070900D003D004D005D005D0040204E485824F7B
:10071900AD4F7E00ED2DFBEE33FC900001E0F9A317
:10072900E0FAED29F9EE3AFA900003E0FFA3E0F8C8
:10073900ED2FFFEE38FE900007E4F0A3F0900007DC
:10074900E0F8A3E0FDC3E899ED64808AF063F080E6
:1007590095F0400122900009E4F0A3F0900009E02F
:10076900F550A3E0F551C3E5509FE55164808EF043
:1007790063F08095F0504788828D8385503B855181
:100789003C854F3D753E00854D3F854E40C007C0B5
:1007990006C005C004C003C002C001C00012043174
:1007A900D000D001D002D003D004D005D006D007A4
:1007B900900009EB2550F0EC3551A3F0809E900094
:1007C90007E0F8A3E0FD900007EB28F0EC3DA3F06B
:1007D900020746AE82AF838E048F05C3EC94F0ED19
:1007E9009400500DAC52AD53C3EC9440ED940140CC
:1007F9000122E5542EFCE5553FFD1CBCFF011DC33C
:10080900EC94F0ED9400400A74F0C39EF554E49F13
:10081900F555E5562552FCE5573553FD1CBCFF013E
:100829001DC3EC9440ED9401400D7440C39552F5FD
:100839005674019553F557E5542EFCE5553FFD1CBB
:10084900BCFF011D8C0A8D0BE5562552FCE5573579
:1008590053FD1CBCFF011D8C0C8D0D855208855361
:10086900098E828F831201EFC2B5D2B485238285A6
:100879002483742CF0C2B4D2B5AF59AD56AE57ED3E
:100889004E6030AB54AC55EB4C6021D2B485238219
:10089900852483EFF0C2B4D2B4852382852483E50D
:1008A90058FAF0C2B41BBBFF011C80DB1DBDFF0160
:1008B9001E80CC22AE82AF838F05E4F508F5097559
:1008C9000AEFF50B750C3F750D01900000C006C0CD
:1008D900051201EFD005D006C2B5D2B485238285B1
:1008E9002483742CF0C2B4D2B5D2B4852382852472
:1008F90083EDF0C2B4D2B4852382852483EEF0C29D
:10090900B47CB07F048C028F031CBCFF011FEA4B2F
:1009190060667B10D2B4852382852483EDF0C2B44E
:10092900D2B4852382852483EEF0C2B4D2B4852360
:1009390082852483EDF0C2B4D2B4852382852483D1
:10094900EEF0C2B4D2B4852382852483EDF0C2B41B
:10095900D2B4852382852483EEF0C2B4D2B4852330
:1009690082852483EDF0C2B4D2B4852382852483A1
:10097900EEF0C2B4DB9E808D7F3F8F041FEC601ABE
:10098900D2B4852382852483EDF0C2B4D2B4852301
:1009990082852483EEF0C2B480E022AE82AF83C3A5
:1009A900EE94F0EF648094805067AC5AAD5BC3EC71
:1009B9009440ED648094815058AA617B008A088B29
:1009C90009900006C007C006C005C004C003C002E4
:1009D900121F47A882A983D002D003D004D005D022
:1009E90006D007E82EF8E93FF918B8FF0119E92000
:1009F900E71FEBC40354F8CAC403CA6ACA54F8CA45
:100A09006AFBEA2CFAEB3DFB1ABAFF011BEB30E754
:100A190001227401B5610474018001E4FB8B68E56E
:100A29005DB55F08E55EB56003D38001C3920079C7
:100A390000B9050790000BE4F08049855C08750949
:100A490000900005C007C006C005C004C003C0016E
:100A5900121F47A882AA83D001D003D004D005D0A1
:100A690006D007E8243FF562EA3420F563E9F83354
:100A790095E0FAE82562F582EA3563F583E493FAAD
:100A890090000BF0C2D58561F0E930E704B2D5F4E6
:100A990004A430D50AF42401C5F0F43400C5F02EBD
:100AA900F562EF35F0F563890085626485636589D0
:100AB9006675670090000BE020E003020B7CEB6099
:100AC9004EC000E566F83395E0FAE82EF8EA3FFAF9
:100AD90088828A83E567F83395E0FAE82CF8EA3DDD
:100AE900FA88378A38855D39855E3AC007C006C0FD
:100AF90005C004C003C001C0001203DAD000D00150
:100B0900D003D004D005D006D007D000020C33C0E2
:100B190000856482856583C2D58561F0E56730E724
:100B290004B2D5F404A430D50AF42401C5F0F43490
:100B390000C5F02CF8ED35F0FA88528A53A8617A8D
:100B49000088548A5588568A57855D58855E59C0EC
:100B590007C006C005C004C003C001C0001207DCFD
:100B6900D000D001D003D004D005D006D007D000E2
:100B7900020C33300003020C33E568604CC003E813
:100B8900FA3395E0FBEA2EFAEB3FFB8A828B83E589
:100B990067FA3395E0FBEA2CFAEB3DFB8A378B3891
:100BA900855F3985603AC007C006C005C004C00327
:100BB900C001C0001203DAD000D001D003D004D0A4
:100BC90005D006D007D0038061C0008562828563A5
:100BD90083C2D58561F0E56730E704B2D5F404A492
:100BE90030D50AF42401C5F0F43400C5F02CF8ED31
:100BF90035F0FA88528A53A8617A0088548A558850
:100C0900568A57855F58856059C007C006C005C018
:100C190004C003C001C0001207DCD000D001D0031A
:100C2900D004D005D006D007D00090000BE0C31344
:100C3900FAF00567C3E567648094885003020ABD2A
:100C490009C3E9648094865003020A3A22AF82BF3D
:100C59000A26AD31E4C40354F8CDC403CD6DCD5497
:100C6900F8CD6DFEAB2FAC30ED2BFBEE3CFC8B2FA2
:100C79008C30E4F52DF52E22BF0D0122852F5A85E2
:100C8900305B8F5C85335D85345E85355F85366085
:100C9900853161852D82852E831209A485310875D8
:100CA9000900900006121F47AE82AF83AC2DAD2E0E
:100CB900EE2CFCEF3DFD8C2D8D2E22AD82AE83AF47
:100CC900F07B007C00EB2DF8EC3EF98F02888289DD
:100CD900838AF0121FB1FA60208A82C007C006C059
:100CE90005C004C003120C56D003D004D005D006A9
:100CF900D0070BBB00CF0C80CC22E58290000CF012
:100D0900E0FF7B007C007D007E00C2B48B828C8377
:100D1900EFF0D2B40BBB00090CBC00050DBD0001FE
:100D29000EC3EB94FFEC94FFED9400EE940040DACF
:100D39002290000DE4F090000DE0FFBF080D900037
:100D49000DE4F075820A120C568006120D63120C1E
:100D59005690000DE02401F080DC7590F07590F05C
:100D69008590215321F074F0B521F29000141200FE
:100D79009AE59054F0F52174F0B5210280ED9000C8
:100D89000112009AE59054F0F52174F0B521028022
:100D9900DA7590FEE59054F0F52174F0B5210280E2
:100DA90005752200803D7590FDE59054F0F521749C
:100DB900F0B52102800575220180287590FBE59028
:100DC90054F0F52174F0B5210280057522028013D3
:100DD9007590F7E59054F0F52174F0B5210280B1D2
:100DE90075220374E0B52115E52275F004A4243AAF
:100DF900F582742535F0F583E493F5822274D0B534
:100E09002118E52275F004A4243AFE742535F0FF73
:100E19008E828F83A3E493F5822274B0B52119E5FC
:100E29002275F004A4243AFE742535F0FF8E828FD2
:100E390083A3A3E493F58222E52275F004A4243A5E
:100E4900FE742535F0FF8E828F83A3A3A3E493F567
:100E59008222AF8290000EE4F0A3F0BF010040634C
:100E69008F057E0075080A8E098D828E83C006C0A3
:100E790005121FCDAB82AC83D005D006900010EBD4
:100E8900F0ECA3F075080A7509008D828E83122093
:100E990003AD828D0790000EE0FDA3E0FE8D088E64
:100EA9000990000AC007121F47AD82AE83D0079090
:100EB9000010E0FBA3E0FC90000EEB2DF0EC3EA34C
:100EC900F0809890000EE0FEA3E08E82F58322E583
:100ED90082900012F0E0F582120E5BE5828583F0C4
:100EE900900014F0E5F0A3F0900014E0FEA3E0FFF9
:100EF900C3EE9401EF9400404275080A7509008E0B
:100F0900828F83C007C006121F64AC82D006D00747
:100F1900900013ECF075080A7509008E828F831210
:100F29001F1EAE82AF83900014EEF0EFA3F0900085
:100F390013E02430F582120C5680AD22AF82756918
:100F490000756A007E00BF0100405A8F047D00745D
:100F59000F5CFA7508108D098C828D83C006C0025A
:100F6900122003AC82D002D0068C07EA24F6400C8A
:100F7900EE2469F98A0574302DF78026EE2469F983
:100F89007D0075080A8D098A828D83C007C006C055
:100F990001121FCDAC82AD83D001D006D0077441B8
:100FA9002CF70E80A1856A82120C56856982020C83
:100FB90056E582FF24C6920140088F06EE24D0FE32
:100FC900800474C92FFE8E822290F8001208BD9009
:100FD900001412009A9007E01208BD900014120044
:100FE9009A7582001201619000001208BD754D00CA
:100FF900754EF875821412071690006412009A90C3
:1010090000001208BD758205120149E4F508F509C9
:101019009007FF12013C90254A75F080120CC475A7
:10102900820312014990255375F080120CC4902552
:101039005E75F080120CC49000C812009A900000EE
:101049001208BD758201120161E4F508F5099000E5
:101059000012012F90256975F080120CC49001F4DB
:1010690012009A9000001208BD758202120161E413
:10107900F508F50990000012012F90257475F0808C
:10108900120CC49001F412009A9000001208BD7568
:101099008203120161E4F508F50990000012012F9D
:1010A9009000C812009A90257F75F080120CC490A8
:1010B90000C802009A900016E4F0A3F07F00C00770
:1010C900120D63AE82C006120C56D0068E82120F24
:1010D900BAAE82D007900016E0FCA3E0FD7B009039
:1010E9000016EE4CF0EB4DA3F0BF0302801C9000FC
:1010F90016E0FDA3E0C454F0CDC4CD6DCD54F0CDC0
:101109006DFE900016EDF0EEA3F00FBF040040AEA7
:10111900900016E0FEA3E08E82F58322900018E489
:10112900F07F00C007120D63AE82C006120C56D0C4
:10113900068E82120FBAAE82D007900018E04EF0E8
:10114900BF01028009900018E0C454F0FEF00FBFFF
:10115900020040CF900018E0F58222AF83E582902B
:10116900001BF0EFA3F090D6BA1208BDE4F508F51C
:101179000990000012012F75820212014990001D89
:10118900E4F090001AE0FF900019E0F5F0EFA4FDFB
:10119900AEF090001DE0FCFA7B00C3EA9DEB648091
:1011A9008EF063F08095F0400122C005C0068CF0F6
:1011B900EFA4FAABF090001BE0F8A3E0F98A6D8B7D
:1011C9006EE8256DFDE9356EFEBDFF08BEFF05D051
:1011D90006D00522C2B4E8256DFDE9356EFE8D6B9A
:1011E9008E6CD2B488058906EA2DFDEB3EFEF582A8
:1011F9008CF0EFA428F8C007C006C005C000120F84
:1012090045D0008882120F4590258A75F080120C0E
:10121900C4D005D006D007856B6D856C6E756F00DF
:10122900D006D005C3E56F9F502CC2B4856D828569
:101239006E83E0FC7402256DF56DE4356EF56ED2B2
:10124900B48C82C007C006C005120F45D005D00670
:10125900D007056F80CE75820AC007C006C0051287
:101269000C56D005D006D00790001DE02FF00211D2
:101279009B90D6BA1208BDE4F508F5099000001252
:10128900012F75820212014990001F7401F0902507
:101299008D75F080120CC41210BEAE82AF8390001F
:1012A90020EEF0EFA3F075820AC007C006120C56B3
:1012B9009025A375F080120CC49025B475F08012A6
:1012C9000CC49025C575F080120CC4D006D007C097
:1012D90007C006120D63AD82D006D00790001EED3F
:1012E900F0BD41028023BD42028005BD444B8032DE
:1012F90090001E7401F09025D475F080C007C006D7
:10130900120CC4D006D007803090001E7402F090F1
:1013190025DA75F080C007C006120CC4D006D007C4
:10132900801790001E7404F09025E075F080C007C6
:10133900C006120CC4D006D00790001EE0FDBD0106
:1013490002800DBD02028008BD040280030212D88A
:101359009025ED75F080C007C006120CC412112546
:10136900AD8275820AC005120C56D005D006D00789
:10137900BD0F00501C90001EE0FC900019EDF0908C
:10138900001AECF08E828F83C005121164D005809B
:101399001B90001EE0FC900019740FF090001AECED
:1013A900F08E828F83C005121164D0057F00750805
:1013B9000F8F098D828F83122003AE8290001EE069
:1013C900FFFD90001FE0FCBC01028026ECB506027F
:1013D900802090260075F080C007C006C005120C59
:1013E900C490261675F080120CC4D005D006D0071B
:1013F900803B90001FE0FCB5060280179026167509
:10140900F080C007C006C005120CC4D005D006D0B4
:1014190007801ABC0102801590260075F080C0076C
:10142900C006C005120CC4D005D006D007902628E6
:1014390075F080C007C006C005120CC4120D63AC5C
:1014490082D005D006D007BC425490001FE0FBB5FE
:101459000602804A900020E0F9A3E0FA740F29F906
:10146900E43AFA900020E9F0EAA3F0900020E0F9CC
:10147900A3E0FA900019740FF090001AEFF0898236
:101489008A83C007C006C005C003121164D003D007
:1014990005D006D00790001FEB04F00213CBBC4126
:1014A9005590001FE0FBBB0102804B900020E0F942
:1014B900A3E0FAE924F1F9EA34FFFA900020E9F00F
:1014C900EAA3F0900020E0F9A3E0FA900019740F64
:1014D900F090001AEDF089828A83C007C006C00522
:1014E900C003121164D003D005D006D007EB1490C5
:1014F900001FF00213CBBC3101220213CB2290D67C
:10150900BA1208BDE4F508F50990000012012F751B
:101519008202120149900023E4F090263A75F08086
:10152900120CC4121125E582900022F075820A126C
:101539000C5690264F75F080120CC47E007F00C2B5
:10154900B48E048F05900022E0FBF97A008C828D1D
:1015590083E9F0EAA3F0D2B4E9B5030280438B82B0
:10156900C005C004C001120F45758220120C56D067
:10157900018982120F45758220120C56D004D005BC
:101589008C828D83E0F582120F4575820A120C5602
:1015990090265F75F080120CC49000237401F080CE
:1015A90078C2B4900022EBF4F0E0FBF97A008C8267
:1015B9008D83E9F0EAA3F0D2B4E9B503028045EBE3
:1015C900F4F582C005C004C001120F4575822012CE
:1015D9000C56D0018982120F45758220120C56D003
:1015E90004D0058C828D83E0F582120F4575820A3D
:1015F900120C5690265F75F080120CC4900023746B
:1016090001F080150EBE00010F8E048F05C3EC9406
:10161900FFED94FF5003021548900023E060099004
:10162900267475F080120CC490262875F080120C6F
:10163900C4120D63AF82BF31F82290D6BA1208BD29
:10164900E4F508F50990000012012F7582021201D4
:101659004990267E75F080120CC4121125AF82754F
:10166900820AC007120C5690268A75F080120CC4A3
:101679001210BEAD82AE8375820AC006C005120C77
:101689005690269975F080120CC4D005D006D00763
:10169900C2B48D828E838F057E00EDF0EEA3F0D269
:1016A900B4EDB507108D82120F459026A675F0800E
:1016B900120CC480099026BA75F080120CC49026C9
:1016C9002875F080120CC4120D63AF82BF31F82265
:1016D90090D6BA1208BDE4F508F509900000120188
:1016E9002F75820212014990258D75F080120CC464
:1016F9001210BEAE82AF8375820AC007C006120CF3
:10170900569026C875F080120CC41210BEAC82AD7A
:101719008375820AC005C004120C569026DF75F045
:1017290080120CC4121125AB8275820AC003120CF7
:10173900569026EC75F080120CC4D003D004D00565
:10174900D006D0077A00C3EA9B506DC0038A74752E
:101759007500857472857573EE2572F9EF3573FB23
:10176900B9FF07BBFF04D003804ED003EC2572F804
:10177900ED3573F9B8FF05B9FF02803CC003C2B467
:101789008E728F73E5742572F8E5753573FB88825F
:101799008B838C018D03E57429F9E5753BFB897011
:1017A9008B71E0F87B00857082857183E8F0EBA38B
:1017B900F0D2B40AD003808E90270175F080120C04
:1017C900C490262875F080120CC4120D63AF82BF35
:1017D90031F822AF83E582900024F0EFA3F0900066
:1017E90024E0FEA3E0FFFC8E058C82C007C006C082
:1017F90005C004120F45D004D0058D82C005C00470
:10180900120F4590258A75F080120CC4D004D005BA
:10181900D006D007C2B48E828F83E0FBD2B48B820C
:10182900C007C006C005C004120F4575820A120C14
:101839005690270875F080120CC4121125AB8275D9
:10184900820AC003120C56D003D004D005D006D0AA
:1018590007C2B47A008E828F83EBF0EAA3F0D2B488
:101869008C82C005C003120F45D003D0058D82C0FC
:1018790003120F4590258A75F080120CC4D0038B92
:1018890082120F4575820A020C5690D6BA1208BD0B
:10189900E4F508F50990000012012F758202120182
:1018A9004990271975F080120CC41210BEAE82AF90
:1018B9008375820AC007C006120C56D006D0078E5F
:1018C900828F83C007C0061217DCD006D007902686
:1018D9002875F080C007C006120CC490272975F03E
:1018E90080120CC490274075F080120CC4120D634D
:1018F900AD82D006D007900026EDF0BD310122BDA2
:10190900322F90D6BAC007C0061208BDE4F508F513
:101919000990000012012FD006D0078E828F83C054
:1019290007C0061217DCD006D007900026E4F08025
:1019390035BD333290D6BAC007C0061208BDE4F5EA
:1019490008F50990000012012FD006D0070EBE003D
:10195900010F8E828F83C007C0061217DCD006D014
:1019690007900026E4F0900026E0FDBD310122BD7C
:10197900320122BD3301220218D722AF83E58290BA
:10198900002BF0EFA3F090D6BA1208BDE4F508F5E4
:101999000990000012012F75820212014990002A54
:1019A900E0FFE0700B90275E75F080120CC4800E8A
:1019B9008F82120F4590277075F080120CC4900029
:1019C90028E0FF900027E0FE900029E0FD757600F1
:1019D900C3E5769E400122C007AA767B0090002BC2
:1019E900E0F8A3E0F988778978EA2577FCEB357880
:1019F900FFBCFF06BFFF03D00722D007C006C2B451
:101A0900EA2577FCEB3578FE8C828E83E0FEB507FC
:101A1900028004D006804BD0068D820DC007C00617
:101A2900C005C003C002C001C000120F4590258A3D
:101A390075F080120CC4D000D001D002D003EA2581
:101A490077EB3578F582E57628F8C000120F45D096
:101A5900008882120F4575820A120C56D005D006ED
:101A6900D00705760219D990D6BA1208BDE4F5084F
:101A7900F50990000012012F7582021201499000A8
:101A89002D7401F090278075F080120CC412112575
:101A990085827975820A120C5690258D75F080120F
:101AA9000CC41210BEAD82AE8390002FEDF0EEA3F0
:101AB900F075820AC006C005120C569025ED75F026
:101AC90080120CC412112585827B75820A120C566C
:101AD900D005D006757A007A00C3EA957B5021C2F9
:101AE900B48A0079008D038E04E82BFBE93CFC8B5A
:101AF900828C83E0FCD2B4ECB57902057A0A80D9EC
:101B0900AC7A900027740FF0900028E579F09000E6
:101B190029E4F090002AE57AF08D828E83C00412C0
:101B2900198490002E740FF0AB7A7E00F5088E09A7
:101B39008B828E83122003AD82D004C3740F957AF1
:101B4900E433FEFB8E7E8E7D8E0090002DE0F57CC9
:101B59007401B57C028031EDB57C02802BEE6028E2
:101B690090260075F080C006C005C004C003C000FF
:101B7900120CC490261675F080120CC4D000D00344
:101B8900D004D005D006805690002DE0B50502801E
:101B990022EB601F90261675F080C006C005C004B0
:101BA900C003C000120CC4D000D003D004D005D0AB
:101BB90006802B90002DE0FFBF01028021E57E60A9
:101BC9001D90260075F080C006C005C004C003C082
:101BD90000120CC4D000D003D004D005D006902642
:101BE9002875F080C006C005C004C003C000120CEF
:101BF900C4120D63AF82D000D003D004D005D00643
:101C0900BF310122BF42028002807A90002DE0F5A7
:101C19007CEDB57C02806EE57D606AC00090002E87
:101C2900E0240FF090002FE0F8A3E0F9740F28F8F2
:101C3900E439F990002FE8F0E9A3F090002FE0F8DB
:101C4900A3E0F990002EE0FA900027740FF09000BD
:101C590028E579F0900029EAF090002AECF08882D2
:101C69008983C006C005C004C003C000121984D00E
:101C790000D003D004D005D00690002DE57C04F0F7
:101C8900D000021B53BF41028003021B5390002D59
:101C9900E0FFBF0103021B53E87003021B53C0009E
:101CA90090002EE024F1F090002FE0F9A3E0FAE98A
:101CB90024F1F9EA34FFFA90002FE9F0EAA3F09051
:101CC900002FE0F9A3E0FA90002EE0F890002774C5
:101CD9000FF0900028E579F0900029E8F090002AAB
:101CE900ECF089828A83C007C006C005C004C0031E
:101CF900C000121984D000D003D004D005D006D07A
:101D090007EF1490002DF0D000021B53AF8290D63C
:101D1900BAC0071208BDE4F508F5099000001201E0
:101D29002F90279675F080120CC4D0078F82120F5E
:101D39004575820A120C5690262875F080120CC43B
:101D49009027A475F080020CC4AF8290D6BAC00760
:101D59001208BDE4F508F50990000012012F90273B
:101D6900BA75F080120CC4D0078F82120F457582A4
:101D79000A120C5690262875F080120CC49027A4DC
:101D890075F080020CC490D6BA1208BDE4F508F5C6
:101D99000990000012012F758202120149852782DC
:101DA900852883120089121D15120D63AF82BF3178
:101DB9000122852782852883120089121D1580E951
:101DC90090D6BA1208BDE4F508F509900000120191
:101DD9002F758202120149852982852A8312008979
:101DE900121D52120D63AF82BF31012285298285EE
:101DF9002A83120089121D5280E97582021201613B
:101E090075820312014990D6BA1208BD7508BA75D0
:101E190009D690000012013CE4F508F5099000008C
:101E290012012F9027C875F080120CC49027D7751E
:101E3900F080120CC47582021201499027E275F0F4
:101E490080120CC49027F275F080120CC49027FB05
:101E590075F080120CC490280575F080120CC4909E
:101E6900280E75F080120CC490281775F080120C9A
:101E7900C490282075F080120CC490282A75F0802F
:101E8900120CC490283A75F080020CC475080085BC
:101E9900258285268312007912028A900000120891
:101EA900BD758200120161754D1F754E0075821452
:101EB900120716121E03120D63AF82BF310280286A
:101EC900BF32028028BF33028028BF3402802DBF71
:101ED9003502802DBF3602802DBF37028032BF41C7
:101EE900028014BF42CD802312164380C612127A93
:101EF90080C112150780BC1216D980B712189380B9
:101F0900B2121A7080AD121A7080A8121D8F80A3A8
:051F1900121DC9809EAD
:10203F0000000000003E5B4F5B3E3E6B4F6B3E1C53
:10204F003E7C3E1C183C7E3C181C577D571C1C5E6A
:10205F007F5E1C00183C1800FFE7C3E7FF00182441
:10206F001800FFE7DBE7FF30483A060E26297929EB
:10207F0026407F050507407F05253F5A3CE73C5A20
:10208F007F3E1C1C08081C1C3E7F14227F22145FFD
:10209F005F005F5F06097F017F006689956A606058
:1020AF0060606094A2FFA29408047E040810207E52
:1020BF00201008082A1C08081C2A08081E101010D7
:1020CF00100C1E0C1E0C30383E3830060E3E0E061D
:1020DF00000000000000005F000000070007001470
:1020EF007F147F14242A7F2A12231308646236492F
:1020FF005620500008070300001C22410000412217
:10210F001C002A1C7F1C2A08083E0808008070301B
:10211F00000808080808000060600020100804028A
:10212F003E5149453E00427F400072494949462190
:10213F0041494D331814127F1027454545393C4A04
:10214F00494931412111090736494949364649491B
:10215F00291E000014000000403400000008142263
:10216F0041141414141400412214080201590906D1
:10217F003E415D594E7C1211127C7F494949363ED2
:10218F00414141227F4141413E7F494949417F09B8
:10219F000909013E414151737F0808087F00417FC3
:1021AF0041002040413F017F081422417F404040C1
:1021BF00407F021C027F7F0408107F3E4141413E59
:1021CF007F090909063E4151215E7F0919294626DB
:1021DF004949493203017F01033F4040403F1F20DF
:1021EF0040201F3F4038403F6314081463030478B6
:1021FF0004036159494D43007F41414102040810D6
:10220F0020004141417F0402010204404040404010
:10221F00000307080020545478407F28444438387E
:10222F0044444428384444287F38545454180008F0
:10223F007E090218A4A49C787F0804047800447DCA
:10224F0040002040403D007F1028440000417F4067
:10225F00007C047804787C080404783844444438BB
:10226F00FC1824241818242418FC7C08040408489B
:10227F005454542404043F44243C4040207C1C20EC
:10228F0040201C3C4030403C44281028444C909047
:10229F00907C4464544C44000836410000007700A1
:1022AF0000004136080002010204023C2623263CAE
:1022BF001EA1A161123A4040207A38545455592139
:1022CF005555794122545478422155547840205421
:1022DF005579400C1E52721239555555593954546F
:1022EF00545939555454580000457C410002457DDE
:1022FF00420001457C407D1211127DF0282528F007
:10230F007C545545002054547C547C0A097F493233
:10231F00494949323A4444443A324A4848303A41AA
:10232F0041217A3A42402078009DA0A07D3D424253
:10233F00423D3D4040403D3C24FF2424487E4943DC
:10234F00662B2FFC2F2BFF0929F620C0887E09034F
:10235F0020545479410000447D413048484A323876
:10236F004040227A007A0A0A727D0D19317D2629A2
:10237F00292F28262929292630484D40203808089A
:10238F00080808080808382F10C8ACBA2F102834CE
:10239F00FA00007B000008142A142222142A1408C1
:1023AF00AA005500AAAA55AA55AA000000FF0010BE
:1023BF001010FF00141414FF001010FF00FF101076
:1023CF00F010F0141414FC001414F700FF0000FFB9
:1023DF0000FF1414F404FC141417101F10101F1016
:1023EF001F1414141F00101010F0000000001F1015
:1023FF001010101F10101010F010000000FF101020
:10240F0010101010101010FF10000000FF1400002B
:10241F00FF00FF00001F10170000FC04F414141736
:10242F0010171414F404F40000FF00F7141414141C
:10243F00141414F700F7141414171410101F101F8E
:10244F00141414F4141010F010F000001F101F00DB
:10245F0000001F14000000FC140000F010F010101A
:10246F00FF10FF141414FF141010101F00000000B1
:10247F00F010FFFFFFFFFFF0F0F0F0F0FFFFFF00A5
:10248F0000000000FFFF0F0F0F0F0F3844443844B8
:10249F00FC4A4A4A347E02020606027E027E02632C
:1024AF00554941633844443C04407E201E200602B7
:1024BF007E020299A5E7A5991C2A492A1C4C720194
:1024CF00724C304A4D4D303048784830BC625A46D5
:1024DF003D3E494949007E0101017E2A2A2A2A2AC6
:1024EF0044445F444440514A444040444A514000B0
:1024FF0000FF0103E080FF000008086B6B08361235
:10250F00362436060F090F060000181800000010B9
:10251F0010003040FF0101001F01011E00191D179F
:10252F0012003C3C3C3C0000000000313437463286
:10253F00353830333639454142434457656C636F04
:10254F006D650A004543454E2D343333300A005232
:10255F006F746174696F6E203000526F74617469AB
:10256F006F6E203100526F746174696F6E2032008C
:10257F00526F746174696F6E2033003A2000456E9C
:10258F007465722073746172742061646472657310
:10259F00733A0A00456E7465722064617461207429
:1025AF007970650A00422D427974652C20412D57B0
:1025BF006F72642C0A00442D446F75626C6520772E
:1025CF006F72640A00427974650A00576F72640A69
:1025DF0000446F75626C6520776F72640A00456EF8
:1025EF0074657220626C6F636B2073697A653A0A47
:1025FF00005072657373204120666F722070726590
:10260F0076696F75730A0050726573732042206686
:10261F006F72206E6578740A005072657373203183
:10262F0020666F72206D656E750A00456E74657257
:10263F00206279746520746F20636865636B0A008C
:10264F00496E2070726F67726573732E2E2E0A009B
:10265F004D656D6F727920636865636B2066616984
:10266F006C65640A0053756363657373210A0045D3
:10267F006E74657220627974650A00456E746572B6
:10268F0020616464726573730A00496E2070726F03
:10269F0067726573730A00206665746368656421E9
:1026AF000A53756363657373210A00436865636B2F
:1026BF00206661696C65640A00456E7465722074EA
:1026CF00617267657420616464726573733A0A009E
:1026DF00456E7465722073697A653A0A004D6F769C
:1026EF006520696E2070726F67726573732E2E2E60
:1026FF000A00446F6E65210A00456E746572206E84
:10270F00657720627974653A0A00456E74657220A8
:10271F00616464726573733A0A0050726573732053
:10272F003220746F206564697420616761696E0A75
:10273F00005072657373203320746F206564697461
:10274F00206E65787420616464726573730A004E3D
:10275F006F206D61746368657320666F756E640AB0
:10276F0000206D61746368657320666F756E640A0F
:10277F0000456E746572206279746520746F2063F2
:10278F006F756E743A0A0054656D70657261747579
:10279F0072653A20005072657373206B65792074EF
:1027AF006F20726566726573680A004C696768749A
:1027BF00206C6576656C3A20004272616E646F6EB4
:1027CF0020436C696E650A004543454E2034333310
:1027DF00300A00313A204261736963206368656390
:1027EF006B0A00323A2044756D700A00333A204369
:1027FF006865636B0A00413A204D6F76650A0034B5
:10280F003A20456469740A00353A2046696E640AB5
:10281F0000363A20436F756E740A00423A205465B1
:10282F006D70657261747572650A00373A204C6974
:05283F006768740A0047
:101F1E007A10E4FBFCE58225E0F582E58333F58358
:101F2E00EB33FBEC33FCEB9508F5F0EC9509400632
:091F3E00FCABF0438201DADD2264
:06003500E478FFF6D8FD9F
:100013007900E94400601B7A00902844783175A088
:1000230000E493F2A308B8000205A0D9F4DAF2754C
:02003300A0FF2C
:101F4700E5828508F0A4C582C0F08509F0A4D0F029
:101F570025F0C5838508F0A42583F58322E5084588
:101F67000960467A01E50825E0F508E509334012DE
:101F7700F509E5829508E583950940030A80E6C3DC
:101F8700E50913F509E50813F508C3E5829508F592
:101F9700F0E58395094005F58385F082C3E50913CC
:0A1FA700F509E50813F508DAE12258
:10003B007800E84400600A790175A000E4F309D860
:10004B00FC7830E84400600C7901900001E4F0A3E7
:04005B00D8FCD9FAFA
:0D00060075817E12203BE58260030200033D
:101FB10020F71430F6148883A88220F507E6A88359
:101FC10075830022E280F7E49322E022C2D5E58303
:101FD10030E70DD2D5E4C39582F582E49583F5838C
:101FE100E50930E70BE4C39508F508E49509F5091F
:101FF100121F6430D50BE4C39582F582E49583F515
:102001008322C2D5E58330E70DD2D5E4C39582F5AD
:1020110082E49583F583E50930E70DB2D5E4C395F4
:1020210008F508E49509F509121F1E30D50BE4C324
:0E2031009582F582E49583F583227582002264
:00000001FF
