:04000000020029329F
:01000B0032C2
:0100130032BA
:01001B0032B2
:030023000210E5E3
:100082007523007524407525007526807527007537
:0E00920028C0E4F529F52AF56BF56C0200266E
:0300260002194676
:1000A000AE82AF83D2B48E828F83E508F0C2B422D1
:1000B000AE82AF83D2B48E828F83E0FEC2B48E82D2
:1000C00022AE82AF837C007D008C028D03C3EA9E4A
:1000D000EB64808FF063F08095F050147AE87B0336
:1000E0001ABAFF011BEA4B70F70CBC00DC0D80D97B
:1000F00022AF82C2B5D2B4852382852483EFF0C2B9
:10010000B4D2B5D2B4852382852483E508F0C2B485
:1001100022AE82AF838F05C2B5D2B48523828524F7
:1001200083EDF0C2B4C2B5D2B4852382852483EEB8
:10013000F0C2B4AF09AE08D2B5D2B5D2B48523822D
:10014000852483EFF0C2B4D2B5D2B485238285244E
:1001500083EEF0C2B42285822D85832E85082F85FB
:100160000930228582338583348508358509362216
:10017000E582FF24F7500122EF60068F067F0080A2
:10018000047E017F008E3122E582FF24FC406AEF6D
:100190002F900195738006801B803080457F4890AA
:1001A000000174F0F0E4A3F09000037440F07401D7
:1001B000A3F0805A7F289000017440F07401A3F0EE
:1001C00090000374F0F0E4A3F080437F8890000176
:1001D00074F0F0E4A3F09000037440F07401A3F015
:1001E000802C7FE89000017440F07401A3F090002F
:1001F0000374F0F0E4A3F080157F4890000174F0E0
:10020000F0E4A3F09000037440F07401A3F08F08B1
:100210007582360200F1AE82AF83C2B5D2B48523B7
:1002200082852483742AF0C2B4D2B5D2B4852382E5
:100230008524838F05EDF0C2B4D2B5D2B485238274
:10024000852483EEF0C2B4D2B5D2B485238285244E
:1002500083E50BF0C2B4D2B5D2B485238285248362
:10026000E50AF0C2B4C2B5D2B48523828524837472
:100270002BF0C2B4D2B5D2B4852382852483E5099C
:10028000F0C2B4D2B5D2B4852382852483E508F0C8
:10029000C2B4D2B5D2B4852382852483E50DF0C2E1
:1002A000B4D2B5D2B4852382852483E50CF0C2B4E0
:1002B0002290000174F0F0E4A3F09000037440F089
:1002C0007401A3F0C2B4D2B5C2B5D2B4852382857D
:1002D0002483E4F0C2B4D2B5D2B4852382852483CA
:1002E000E4F0C2B4D2B5D2B4852382852483E4F08D
:1002F000C2B4D2B5D2B4852382852483E4F0C2B4DB
:100300009000C81200C17508007582011200F190BA
:1003100000321200C17508007582281200F19000A9
:100320000A1200C17508237582C01200F175081108
:100330007582C11200F1C2B5D2B4852382852483AF
:1003400074C5F0C2B4D2B5D2B48523828524837437
:100350003DF0C2B4D2B5D2B48523828524837430F3
:10036000F0C2B47508AA7582C71200F175088875C5
:1003700082361200F1C2B5D2B485238285248374FB
:100380003AF0C2B4D2B5D2B48523828524837455A1
:10039000F0C2B4D2B5D2B4852382852483E4F0C2FE
:1003A000B475081B7509009000B11201117508079A
:1003B0007582B71200F17508007582111200F19074
:1003C00000961200C17508007582291200F1900193
:1003D000F41200C1900001E0FEA3E0FF1EBEFF0189
:1003E0001F8E0A8F0B900003E0FEA3E0FF1EBEFFEE
:1003F000011F8E0C8F0DE4F508F509900000020234
:1004000016AE82AF838E048F050CBC00010D8C0AE2
:100410008D0BAC37AD380CBC00010D8C0C8D0D85EF
:1004200037088538098E828F83120216C2B5D2B47E
:10043000852382852483742CF0C2B4D2B5D2B485CE
:100440002382852483E53AF0C2B4D2B48523828521
:100450002483E539F0C2B422858241858342740148
:10046000C3953DFCE4953EFD900005ECF0EDA3F056
:10047000853D08853E0990FFFE1219BFAC82AD8311
:10048000AA3DAB3EE53D253BF537E53E353CF5382D
:10049000853F3985403A854182854283C005C00445
:1004A000C003C002120401E53BC3953DF537E53CAE
:1004B000953EF538853F3985403A854182854283AE
:1004C000120401E53D2541F582E53E3542F583857F
:1004D0003B37853C38853F3985403A120401E54178
:1004E000C3953DF582E542953EF583853B37853CD6
:1004F00038853F3985403A120401D002D003D00438
:10050000D005780079007543018944C3E89AE9640D
:10051000808BF063F08095F0400122900005E0F5BB
:1005200045A3E0F54620E7181ABAFF011B74022C18
:10053000FCE43DFD900005EC2545F0ED3546A3F0CB
:10054000C004C00508B800010974022543F543E45E
:100550003544F544900005E0FEA3E0FF900005E57A
:10056000432EF0E5443FA3F0AE41AF42E82EFCE954
:100570003FFD8C458D46853B47853C48EA2547FC39
:10058000EB3548FD8C498D4A854937854A38853F8A
:100590003985403A854582854683C007C006C00537
:1005A000C004C003C002C001C000120401D000D0CA
:1005B00001D002D003D004D005D006D007EEC398F6
:1005C000FCEF99FD8C4B8D4C854937854A38853F2A
:1005D0003985403A854B82854C83C007C006C005EB
:1005E000C004C003C002C001C000120401D000D08A
:1005F00001D002D003D004D005E547C39AFCE548FA
:100600009BFD8C378D38853F3985403A85458285FD
:100610004683C005C004C003C002C001C00012046C
:1006200001D000D001D002D003D004D0058C378D8A
:1006300038853F3985403A854B82854C83C005C05B
:1006400004C003C002C001C000120401D000D001E8
:10065000D002D003D004D005D006D007EA2EFCEBA0
:100660003FFD8C4B8D4CE82547FCE93548FD8C3728
:100670008D38853F3985403A854B82854C83C0074C
:10068000C006C005C004C003C002C001C0001204FF
:1006900001D000D001D002D003D004D005D006D0C4
:1006A00007EEC39AFEEF9BFF8C378D38853F398567
:1006B000403A8E828F83C007C006C005C004C003C5
:1006C000C002C001C000120401D000D001D002D08D
:1006D00003D004D005E547C398FCE54899FD8C3765
:1006E0008D38853F3985403A854B82854C83C005DE
:1006F000C004C003C002C001C000120401D000D079
:1007000001D002D003D004D005D006D0078C378D9D
:1007100038853F3985403A8E828F83C005C004C03A
:1007200003C002C001C000120401D000D001D002F9
:10073000D003D004D005D005D00402050B85824F2C
:10074000AD4F7E00ED2DFBEE33FC900001E0F9A3F0
:10075000E0FAED29F9EE3AFA900003E0FFA3E0F8A1
:10076000ED2FFFEE38FE900007E4F0A3F0900007B5
:10077000E0F8A3E0FDC3E899ED64808AF063F080BF
:1007800095F0400122900009E4F0A3F0900009E008
:10079000F550A3E0F551C3E5509FE55164808EF01C
:1007A00063F08095F0504788828D8385503B85515A
:1007B0003C854F3D753E00854D3F854E40C007C08E
:1007C00006C005C004C003C002C001C00012045826
:1007D000D000D001D002D003D004D005D006D0077D
:1007E000900009EB2550F0EC3551A3F0809E90006D
:1007F00007E0F8A3E0FD900007EB28F0EC3DA3F044
:1008000002076DAE82AF838E048F05C3EC94F0EDCA
:100810009400500DAC52AD53C3EC9440ED940140A4
:100820000122E5542EFCE5553FFD1CBCFF011DC314
:10083000EC94F0ED9400400A74F0C39EF554E49FEC
:10084000F555E5562552FCE5573553FD1CBCFF0117
:100850001DC3EC9440ED9401400D7440C39552F5D6
:100860005674019553F557E5542EFCE5553FFD1C94
:10087000BCFF011D8C0A8D0BE5562552FCE5573552
:1008800053FD1CBCFF011D8C0C8D0D85520885533A
:10089000098E828F83120216C2B5D2B48523828557
:1008A0002483742CF0C2B4D2B5AF59AD56AE57ED17
:1008B0004E6030AB54AC55EB4C6021D2B4852382F2
:1008C000852483EFF0C2B4D2B4852382852483E5E6
:1008D00058FAF0C2B41BBBFF011C80DB1DBDFF0139
:1008E0001E80CC22AE82AF838F05E4F508F5097532
:1008F0000AEFF50B750C3F750D01900000C006C0A6
:1009000005120216D005D006C2B5D2B48523828561
:100910002483742CF0C2B4D2B5D2B485238285244A
:1009200083EDF0C2B4D2B4852382852483EEF0C275
:10093000B47CB07F048C028F031CBCFF011FEA4B08
:1009400060667B10D2B4852382852483EDF0C2B427
:10095000D2B4852382852483EEF0C2B4D2B4852339
:1009600082852483EDF0C2B4D2B4852382852483AA
:10097000EEF0C2B4D2B4852382852483EDF0C2B4F4
:10098000D2B4852382852483EEF0C2B4D2B4852309
:1009900082852483EDF0C2B4D2B48523828524837A
:1009A000EEF0C2B4DB9E808D7F3F8F041FEC601A97
:1009B000D2B4852382852483EDF0C2B4D2B48523DA
:1009C00082852483EEF0C2B480E022AE82AF83C37E
:1009D000EE94F0EF648094805067AC5AAD5BC3EC4A
:1009E0009440ED648094815058AA617B008A088B02
:1009F00009900006C007C006C005C004C003C002BD
:100A00001219BFA882A983D002D003D004D005D088
:100A100006D007E82EF8E93FF918B8FF0119E920D8
:100A2000E71FEBC40354F8CAC403CA6ACA54F8CA1D
:100A30006AFBEA2CFAEB3DFB1ABAFF011BEB30E72D
:100A400001227401B5610474018001E4FB8B68E547
:100A50005DB55F08E55EB56003D38001C3920079A0
:100A600000B9050790000BE4F08049855C08750922
:100A700000900005C007C006C005C004C003C00147
:100A80001219BFA882AA83D001D003D004D005D008
:100A900006D007E824B7F562EA341AF563E9F833BB
:100AA00095E0FAE82562F582EA3563F583E493FA86
:100AB00090000BF0C2D58561F0E930E704B2D5F4BF
:100AC00004A430D50AF42401C5F0F43400C5F02E96
:100AD000F562EF35F0F563890085626485636589A9
:100AE0006675670090000BE020E003020BA3EB604B
:100AF0004EC000E566F83395E0FAE82EF8EA3FFAD2
:100B000088828A83E567F83395E0FAE82CF8EA3DB5
:100B1000FA88378A38855D39855E3AC007C006C0D5
:100B200005C004C003C001C000120401D000D00100
:100B3000D003D004D005D006D007D000020C5AC094
:100B400000856482856583C2D58561F0E56730E7FD
:100B500004B2D5F404A430D50AF42401C5F0F43469
:100B600000C5F02CF8ED35F0FA88528A53A8617A66
:100B70000088548A5588568A57855D58855E59C0C5
:100B800007C006C005C004C003C001C000120803AE
:100B9000D000D001D003D004D005D006D007D000BB
:100BA000020C5A300003020C5AE568604CC003E89E
:100BB000FA3395E0FBEA2EFAEB3FFB8A828B83E562
:100BC00067FA3395E0FBEA2CFAEB3DFB8A378B386A
:100BD000855F3985603AC007C006C005C004C00300
:100BE000C001C000120401D000D001D003D004D055
:100BF00005D006D007D0038061C00085628285637E
:100C000083C2D58561F0E56730E704B2D5F404A46A
:100C100030D50AF42401C5F0F43400C5F02CF8ED09
:100C200035F0FA88528A53A8617A0088548A558828
:100C3000568A57855F58856059C007C006C005C0F1
:100C400004C003C001C000120803D000D001D003CB
:100C5000D004D005D006D007D00090000BE0C3131D
:100C6000FAF00567C3E567648094885003020AE4DC
:100C700009C3E9648094865003020A6122AF82BFEF
:100C80000A26AD31E4C40354F8CDC403CD6DCD5470
:100C9000F8CD6DFEAB2FAC30ED2BFBEE3CFC8B2F7B
:100CA0008C30E4F52DF52E22BF0D0122852F5A85BB
:100CB000305B8F5C85335D85345E85355F8536605E
:100CC000853161852D82852E831209CB853108758A
:100CD00009009000061219BFAE82AF83AC2DAD2E75
:100CE000EE2CFCEF3DFD8C2D8D2E22AD82AE83AF20
:100CF000F07B007C00EB2DF8EC3EF98F02888289B6
:100D0000838AF0121A29FA60208A82C007C006C0BE
:100D100005C004C003120C7DD003D004D005D0065A
:100D2000D0070BBB00CF0C80CC22E58290000CF0EA
:100D3000E0FF7B007C007D007E00C2B48B828C8350
:100D4000EFF0D2B40BBB00090CBC00050DBD0001D7
:100D50000EC3EB94FFEC94FFED9400EE940040DAA8
:100D60002290000DE4F090000DE0FFBF080D900010
:100D70000DE4F075820A120C7D8006120D8A120CA9
:100D80007D90000DE02401F080DC7590F07590F00E
:100D90008590215321F074F0B521F29000141200D7
:100DA000C1E59054F0F52174F0B5210280ED90007A
:100DB000011200C1E59054F0F52174F0B5210280D4
:100DC000DA7590FEE59054F0F52174F0B5210280BB
:100DD00005752200803D7590FDE59054F0F5217475
:100DE000F0B52102800575220180287590FBE59001
:100DF00054F0F52174F0B5210280057522028013AC
:100E00007590F7E59054F0F52174F0B5210280B1AA
:100E100075220374E0B52115E52275F004A424B20F
:100E2000F582741F35F0F583E493F5822274D0B512
:100E30002118E52275F004A424B2FE741F35F0FFDA
:100E40008E828F83A3E493F5822274B0B52119E5D5
:100E50002275F004A424B2FE741F35F0FF8E828F39
:100E600083A3A3E493F58222E52275F004A424B2BF
:100E7000FE741F35F0FF8E828F83A3A3A3E493F546
:100E80008222AF8290000EE4F0A3F0BF0100406325
:100E90008F057E0075080A8E098D828E83C006C07C
:100EA00005121A45AB82AC83D005D006900010EB3A
:100EB000F0ECA3F075080A7509008D828E83121A72
:100EC0007BAD828D0790000EE0FDA3E0FE8D088EC5
:100ED0000990000AC0071219BFAD82AE83D00790F7
:100EE0000010E0FBA3E0FC90000EEB2DF0EC3EA325
:100EF000F0809890000EE0FEA3E08E82F58322E55C
:100F000082900012F0E0F582120E82E5828583F075
:100F1000900014F0E5F0A3F0900014E0FEA3E0FFD1
:100F2000C3EE9401EF9400404275080A7509008EE3
:100F3000828F83C007C0061219DCAC82D006D007AE
:100F4000900013ECF075080A7509008E828F8312E9
:100F50001996AE82AF83900014EEF0EFA3F09000EC
:100F600013E02430F582120C7D80AD22AF827569CA
:100F700030756A307E00BF0100405A8F047D0074D6
:100F80000F5CFA7508108D098C828D83C006C00233
:100F9000121A7BAC82D002D0068C07EA24F6400CF1
:100FA000EE2469F98A0574302DF78026EE2469F95C
:100FB0007D0075080A8D098A828D83C007C006C02E
:100FC00001121A45AC82AD83D001D006D00774411E
:100FD0002CF70E80A1856A82120C7D856982020C35
:100FE0007DE582FF24C6920140088F06EE24D0FEE4
:100FF000800474C92FFE8E822290F8001208E490BB
:1010000000141200C19007E01208E49000141200CE
:10101000C17582001201889000001208E4754D002D
:10102000754EF875821412073D9000641200C1904D
:1010300000001208E4758205120170E4F508F50954
:101040009007FF120163901FC275F080120CEB75C0
:101050008203120170901FCB75F080120CEB901F71
:10106000D675F080120CEB9000C81200C190000001
:101070001208E4758201120188E4F508F509900070
:1010800000120156901FE175F080120CEB9001F4F4
:101090001200C19000001208E4758202120188E477
:1010A000F508F509900000120156901FEC75F080CC
:1010B000120CEB9001F41200C19000001208E475CC
:1010C0008203120188E4F508F50990000012015628
:1010D0009000C81200C1901FF775F080120CEB90C1
:1010E00000C80200C130980885996BC298756C01E0
:1010F00032759850758920758DFDD28ED2ACD2AFE5
:101100002290200275F080120CEB90201575F08073
:10111000120CEB120D8AAF82BF31028012BF320275
:10112000800DBF33028008BF34028003BF35E48FD7
:101130006F90203F75F080120CEB90205475F0807A
:10114000120CEB120D8AAF82BF3108756D087598CD
:10115000508009BF32ED756D097598D090205F758C
:10116000F080120CEB7408B56D0B90206F75F08059
:10117000120CEB800E7409B56D0990208775F08014
:10118000120CEB120D8AAF827408B56D05BF3002E8
:10119000800FE4BF310104FE7007BF320104FD601F
:1011A0000A8F82120FE185826E80137409B56D0378
:1011B000EE7003ED60CD8F82120FE185826E438762
:1011C00080AF6FBF31028014BF32028014BF330280
:1011D0008014BF34028014BF35198014758DA98026
:1011E00012758DD5800D758DEA8008758DF580039B
:1011F000758DFB856F82120C7D858D82120F6C12AE
:101200000D8A758920D28ED2AFD2AC22AE82AF8346
:101210007D00EE4F6021EDB401009202E433FD8EBB
:10122000038F04EB24FFF9EC34FFFAE95203EA528E
:10123000048B068C0780DB7F008D828F8322E56E16
:10124000700122AF6DBF08028008BF0902806E02E4
:101250001315AE6B7F008E828F8312120CE5828590
:1012600083F045F070077402B56E02801BAE6B7F91
:10127000008E828F8312120CAE82AF83AC6E7D0023
:10128000EEB50430EFB5052C536B7F90209775F0C9
:1012900080120CEB856B82120C7D75820A120C7D1C
:1012A000856E82120F6CAE6B7F008E828F8312125E
:1012B0000C020F6C9020A375F080020CEBA29AE454
:1012C00033FF7E00AC6B7D00EC4206ED42078E8260
:1012D0008F8312120CE5828583F045F0700774024B
:1012E000B56E028027A29AE433FF7E00AC6B7D00CE
:1012F000EC4206ED42078E828F8312120CAE82AF53
:1013000083BE011ABF00177401B56E129020A37539
:10131000F080020CEB9020B475F080020CEB22AF51
:10132000827402B56E0280030213D38F057E008D96
:10133000828E83C007C006C00512120CE582858329
:10134000F0D005D006D00745F0700B7408B56D06D7
:1013500053077F02147F8D828E83C007C006C005AD
:1013600012120CAB82AC83D005D006D007BB010DA6
:10137000BC000A7409B56D05D29B02147F8D828E64
:1013800083C007C006C00512120CAB82AC83D00527
:10139000D006D007BB010EBC000B7408B56D064328
:1013A000078002147F8D828E83C00712120CE582A3
:1013B0008583F0D00745F0700A7409B56D05C29BAE
:1013C00002147F9020C375F080C007120CEBD00789
:1013D00002147F7401B56E02800302147F8F057EB4
:1013E000008D828E83C007C006C00512120CAB822E
:1013F000AC83D005D006D007BB010EBC000B74082F
:10140000B56D0653077F02147F8D828E83C007C09F
:1014100006C00512120CAB82AC83D005D006D007F3
:10142000BB010CBC00097409B56D04C29B80508DD2
:10143000828E83C007C006C00512120CE582858328
:10144000F0D005D006D00745F0700A7408B56D05D8
:10145000430780802A8D828E83C00712120CE5829A
:101460008583F0D00745F070097409B56D04D29BEF
:10147000800D9020C375F080C007120CEBD0078F51
:101480009910990280FB8F8222900016E4F0A3F05D
:101490007F00C007120D8AAE82C006120C7DD006F6
:1014A0008E82120FE1AE82D007900016E0FCA3E01E
:1014B000FD7B00900016EE4CF0EB4DA3F0BF030255
:1014C000801C900016E0FDA3E0C454F0CDC4CD6DA7
:1014D000CD54F0CD6DFE900016EDF0EEA3F00FBFF1
:1014E000040040AE900016E0FEA3E08E82F5832259
:1014F000900018E4F07F00C007120D8AAE82C0068B
:10150000120C7DD0068E82120FE1AE82D0079000C1
:1015100018E04EF0BF01028009900018E0C454F0BA
:10152000FEF00FBF020040CF900018E0F58222903D
:10153000D6BA1208E4E4F508F50990000012015645
:101540007582021201707F009020D475F080C00770
:10155000120CEB1214F0AE8275820AC006120C7DDA
:101560009020E975F080120CEBD006D0077C007D4E
:1015700000C2B48C028D038E0079008A828B83E8CE
:10158000F0E9A3F0D2B4E8B50602803F8E82C00332
:10159000C002C000120F6C758220120C7DD0008832
:1015A00082120F6C758220120C7DD002D0038A82C9
:1015B0008B83E0F582120F6C75820A120C7D9020ED
:1015C000F975F080120CEB7F01806DC2B4EEF4FE71
:1015D000F879008A828B83E8F0E9A3F0D2B4E8B509
:1015E0000602803F8E82C003C002C000120F6C75DD
:1015F0008220120C7DD0008882120F6C758220121E
:101600000C7DD002D0038A828B83E0F582120F6CAE
:1016100075820A120C7D9020F975F080120CEB7F18
:101620000180150CBC00010D8C028D03C3EA94FFF0
:10163000EB94FF5003021571EF700990210E75F0C5
:1016400080120CEB90211875F080120CEB120D8AB1
:10165000AF82BF31F82290D6BA1208E4E4F508F55B
:101660000990000012015675820212017090212A21
:1016700075F080120CEB1214F0AF8275820AC0076D
:10168000120C7D90213675F080120CEB121489AD8E
:1016900082AE8375820AC006C005120C7D9021457A
:1016A00075F080120CEBD005D006D007C2B48D8245
:1016B0008E838F057E00EDF0EEA3F0D2B4EDB5077A
:1016C000108D82120F6C90215275F080120CEB80FD
:1016D0000990216675F080120CEB90211875F0804E
:1016E000120CEB120D8AAF82BF31F82290D6BA12DB
:1016F00008E4E4F508F5099000001201567582022D
:1017000012017090217475F080120CEB7401B56CAD
:10171000FB7430B56B04756C0022856B82120C7DF6
:1017200075820A120C7D756C0080E190D6BA1208A1
:10173000E4E4F508F50990000012015675820212E2
:10174000017090219175F080120CEB90219E75F044
:1017500080120CEB9021AB75F080120CEB9021BA4B
:1017600075F080120CEB120D8AAF82BF310280053A
:10177000BF32128009C007121789D0078007C0073F
:101780001217F9D007BF30A32290D6BA1208E4E4AA
:10179000F508F509900000120156758202120170D9
:1017A00012110190D6BA1208E4E4F508F509900088
:1017B000001201567582021201709021C375F080EB
:1017C000120CEB120D8A12131F120C7D7401B56CF2
:1017D0001F7430B56B04756C0022E56E6003121245
:1017E0003E856B82120C7D75820A120C7D756C0031
:1017F000756C007430B56BCB2290D6BA1208E4E455
:10180000F508F50990000012015675820212017068
:101810007F00C0071211019021D575F080120CEBEA
:10182000D007C007120D8AAE82D007BE313790D6DE
:10183000BAC0061208E4E4F508F5099000001201A8
:10184000569021F575F080120CEBD006C006120DF3
:101850008AAF82D006BF300280368F82C006121354
:101860001FD00680E7BE32287401B56CFB7430B51A
:101870006B05756C008019856B82C007C006120C61
:101880007D75820A120C7DD006D007756C0080D859
:10189000BE3001227430B56B0122BF300122021824
:1018A000222275820212018875820312017090D67D
:1018B000BA1208E47508BA7509D6900000120163DF
:1018C000E4F508F50990000012015690220B75F01E
:1018D00080120CEB90221A75F080120CEB758202CC
:1018E00012017090222575F080120CEB9022357554
:1018F000F080120CEB90223E75F080120CEB9022DF
:101900004875F080120CEB90225175F080120CEBB0
:1019100090225A75F080120CEB90226375F08012C1
:101920000CEB90226D75F080120CEB90227D75F01F
:1019300080120CEB90228775F080120CEB90229AAB
:1019400075F080020CEB75080085258285268312D0
:1019500000A01202B19000001208E475820012018A
:1019600088754D1F754E0075821412073D1210F1D7
:101970001218A2120D8AAF82BF3302800ABF38024A
:10198000800ABF39EB800A12152F80E41216EC8012
:06199000DF12172B80DAC4
:101AB70000000000003E5B4F5B3E3E6B4F6B3E1CE1
:101AC7003E7C3E1C183C7E3C181C577D571C1C5EF8
:101AD7007F5E1C00183C1800FFE7C3E7FF001824CF
:101AE7001800FFE7DBE7FF30483A060E2629792979
:101AF70026407F050507407F05253F5A3CE73C5AAE
:101B07007F3E1C1C08081C1C3E7F14227F22145F8A
:101B17005F005F5F06097F017F006689956A6060E5
:101B270060606094A2FFA29408047E040810207EDF
:101B3700201008082A1C08081C2A08081E10101064
:101B4700100C1E0C1E0C30383E3830060E3E0E06AA
:101B5700000000000000005F0000000700070014FD
:101B67007F147F14242A7F2A1223130864623649BC
:101B77005620500008070300001C224100004122A4
:101B87001C002A1C7F1C2A08083E080800807030A9
:101B97000008080808080000606000201008040218
:101BA7003E5149453E00427F40007249494946211E
:101BB70041494D331814127F1027454545393C4A92
:101BC70049493141211109073649494936464949A9
:101BD700291E0000140000004034000000081422F1
:101BE700411414141414004122140802015909065F
:101BF7003E415D594E7C1211127C7F494949363E60
:101C0700414141227F4141413E7F494949417F0945
:101C17000909013E414151737F0808087F00417F50
:101C270041002040413F017F081422417F4040404E
:101C3700407F021C027F7F0408107F3E4141413EE6
:101C47007F090909063E4151215E7F091929462668
:101C57004949493203017F01033F4040403F1F206C
:101C670040201F3F4038403F631408146303047843
:101C770004036159494D43007F4141410204081063
:101C870020004141417F040201020440404040409E
:101C9700000307080020545478407F28444438380C
:101CA70044444428384444287F385454541800087E
:101CB7007E090218A4A49C787F0804047800447D58
:101CC70040002040403D007F1028440000417F40F5
:101CD700007C047804787C08040478384444443849
:101CE700FC1824241818242418FC7C080404084829
:101CF7005454542404043F44243C4040207C1C207A
:101D070040201C3C4030403C44281028444C9090D4
:101D1700907C4464544C440008364100000077002E
:101D270000004136080002010204023C2623263C3B
:101D37001EA1A161123A4040207A385454555921C6
:101D470055557941225454784221555478402054AE
:101D57005579400C1E5272123955555559395454FC
:101D6700545939555454580000457C410002457D6B
:101D7700420001457C407D1211127DF0282528F094
:101D87007C545545002054547C547C0A097F4932C1
:101D9700494949323A4444443A324A4848303A4138
:101DA70041217A3A42402078009DA0A07D3D4242E1
:101DB700423D3D4040403D3C24FF2424487E49436A
:101DC700662B2FFC2F2BFF0929F620C0887E0903DD
:101DD70020545479410000447D413048484A323804
:101DE7004040227A007A0A0A727D0D19317D262930
:101DF700292F28262929292630484D402038080828
:101E0700080808080808382F10C8ACBA2F1028345B
:101E1700FA00007B000008142A142222142A14084E
:101E2700AA005500AAAA55AA55AA000000FF00104B
:101E37001010FF00141414FF001010FF00FF101003
:101E4700F010F0141414FC001414F700FF0000FF46
:101E570000FF1414F404FC141417101F10101F10A3
:101E67001F1414141F00101010F0000000001F10A2
:101E77001010101F10101010F010000000FF1010AD
:101E870010101010101010FF10000000FF140000B9
:101E9700FF00FF00001F10170000FC04F4141417C4
:101EA70010171414F404F40000FF00F714141414AA
:101EB700141414F700F7141414171410101F101F1C
:101EC700141414F4141010F010F000001F101F0069
:101ED70000001F14000000FC140000F010F01010A8
:101EE700FF10FF141414FF141010101F000000003F
:101EF700F010FFFFFFFFFFF0F0F0F0F0FFFFFF0033
:101F070000000000FFFF0F0F0F0F0F384444384445
:101F1700FC4A4A4A347E02020606027E027E0263B9
:101F2700554941633844443C04407E201E20060244
:101F37007E020299A5E7A5991C2A492A1C4C720121
:101F4700724C304A4D4D303048784830BC625A4662
:101F57003D3E494949007E0101017E2A2A2A2A2A53
:101F670044445F444440514A444040444A5140003D
:101F770000FF0103E080FF000008086B6B083612C2
:101F8700362436060F090F06000018180000001047
:101F970010003040FF0101001F01011E00191D172D
:101FA70012003C3C3C3C0000000000313437463214
:101FB700353830333639454142434457656C636F92
:101FC7006D650A004543454E2D343333300A0052C0
:101FD7006F746174696F6E203000526F7461746939
:101FE7006F6E203100526F746174696F6E2032001A
:101FF700526F746174696F6E20330053656C65634B
:1020070074206261756420726174653A0A00313A1E
:1020170020313230300A323A20323430300A333A03
:1020270020343830300A343A20393630300A353ADD
:102037002031393230300A00486F77206D616E7970
:10204700206461746120626974733F0A00313A2029
:10205700380A323A20390A0053656C656374207078
:1020670061726974793F0A00303A204E6F6E650AD3
:10207700313A204F64640A323A204576656E0A0089
:10208700313A204F64640A323A204576656E0A0079
:102097007061722E20636F6D702E20005278207051
:1020A7006172697479206572726F720A00436F6E8C
:1020B7006669672E206572726F720A005478207005
:1020C7006172697479206572726F720A00456E7465
:1020D7006572206279746520746F20636865636B2D
:1020E7000A00496E2070726F67726573732E2E2E09
:1020F7000A004D656D6F727920636865636B2066B2
:1021070061696C65640A0053756363657373210ABB
:10211700005072657373203120666F72206D656E93
:10212700750A00456E74657220627974650A004508
:102137006E74657220616464726573730A00496E18
:102147002070726F67726573730A00206665746327
:10215700686564210A53756363657373210A0043D5
:102167006865636B206661696C65640A0055415256
:1021770054204672656520747970652C203020667E
:102187006F72206D656E753A0A005768696368203B
:102197006D6F64653F0A00313A204C6F6F70626162
:1021A700636B0A00323A20496E746572626F61721E
:1021B700640A00303A20457869740A0050726573E2
:1021C70073203020666F72206D656E750A00313A94
:1021D700205472616E736D69740A323A20526563D6
:1021E700656976650A303A20457869740A0054783B
:1021F700204D6F64652C203020666F72206D656EF0
:10220700753A0A004272616E646F6E20436C696EA4
:10221700650A004543454E20343333300A00313ACE
:1022270020426173696320636865636B0A00323A11
:102237002044756D700A00333A20436865636B0A62
:1022470000413A204D6F76650A00343A20456469AB
:10225700740A00353A2046696E640A00363A20430C
:102267006F756E740A00423A2054656D706572612D
:10227700747572650A00373A204C696768740A00FA
:10228700383A20554152542066726565207479703A
:10229700650A00393A204543454E203433352055E9
:0522A7004152540A0041
:101996007A10E4FBFCE58225E0F582E58333F583E6
:1019A600EB33FBEC33FCEB9508F5F0EC95094006C0
:0919B600FCABF0438201DADD22F2
:06005800E478FFF6D8FD7C
:100036007900E94400601B7A009022AC781975A01B
:1000460000E493F2A308B8000205A0D9F4DAF27529
:02005600A0FF09
:1019BF00E5828508F0A4C582C0F08509F0A4D0F0B7
:1019CF0025F0C5838508F0A42583F58322E5084516
:1019DF000960467A01E50825E0F508E5093340126C
:1019EF00F509E5829508E583950940030A80E6C36A
:1019FF00E50913F509E50813F508C3E5829508F520
:101A0F00F0E58395094005F58385F082C3E5091359
:0A1A1F00F509E50813F508DAE122E5
:10005E007800E84400600A790175A000E4F309D83D
:10006E00FC7818E84400600C7901900001E4F0A3DC
:04007E00D8FCD9FAD7
:0D00290075816F121AB3E582600302002694
:101A290020F71430F6148883A88220F507E6A883E6
:101A390075830022E280F7E49322E022C2D5E58390
:101A490030E70DD2D5E4C39582F582E49583F58319
:101A5900E50930E70BE4C39508F508E49509F509AC
:101A69001219DC30D50BE4C39582F582E49583F530
:101A79008322C2D5E58330E70DD2D5E4C39582F53B
:101A890082E49583F583E50930E70DB2D5E4C39582
:101A990008F508E49509F50912199630D50BE4C340
:0E1AA9009582F582E49583F5832275820022F2
:00000001FF
