:0F00000075C102110FE50A90007293F58080F42C
:0F000F00F599C007C006C0017F04E47401F590A5
:0F001E00F50CE590600723DFF5EFE480EF7E043B
:0F002D007410F590F50BE590600323DEF5E50BFD
:0F003C00450CF50DE590B50DFBD001D006D007B2
:0F004B00E5998000750A00900062E493C3950D5B
:10005A006005A3050A80F4222811214112224214C4
:10006A0024448182848848183F065B4F666D7D0769
:08007A007F6F777C395E79711C
:00000001FF
