:03000000020006F5
:03005F0002000399
:03000300020154A3
:20006200E582FF24F050030200EAEF240A83F582EF241483F583E4739A9FA4A9AEB3B8BDD9
:20008200C2C7CCD1D6DBE0E5000000000000000000000000000000007582C0804E7582F94D
:2000A20080497582A480447582B0803F758299803A758292803575828280307582F8802B65
:2000C20075828080267582908021758288801C75828380177582C680127582A1800D758242
:2000E20086800875828E80037582002228112141122242142444818284884818F599C0077E
:20010200C006C0017F04E47401F590F50CE590600723DFF5EFE480EF7E047410F590F50B54
:20012200E590600323DEF5E50B450CF50DD001D006D007E599313A22750A009000EEE493AF
:20014200C3950D6005A3050A80F4850A8222858282227F00C0071200EEAE82C0061200621F
:13016200AD82D006D007EFB5060280028D808E0780E2225A
:06003500E478FFF6D8FD9F
:200013007900E94400601B7A00900179780175A000E493F2A308B8000205A0D9F4DAF27519
:02003300A0FF2C
:20003B007800E84400600A790175A000E4F309D8FC7800E84400600C7900900001E4F0A3C3
:04005B00D8FCD9FAFA
:0D000600758107120175E582600302000399
:04017500758200226D
:00000001FF
